{
	"contracts/Twitter.sol": {
		"Twitter": {
			"abi": [
				{
					"inputs": [
						{
							"internalType": "address",
							"name": "_profileContract",
							"type": "address"
						}
					],
					"stateMutability": "nonpayable",
					"type": "constructor"
				},
				{
					"inputs": [
						{
							"internalType": "address",
							"name": "owner",
							"type": "address"
						}
					],
					"name": "OwnableInvalidOwner",
					"type": "error"
				},
				{
					"inputs": [
						{
							"internalType": "address",
							"name": "account",
							"type": "address"
						}
					],
					"name": "OwnableUnauthorizedAccount",
					"type": "error"
				},
				{
					"anonymous": false,
					"inputs": [
						{
							"indexed": true,
							"internalType": "address",
							"name": "previousOwner",
							"type": "address"
						},
						{
							"indexed": true,
							"internalType": "address",
							"name": "newOwner",
							"type": "address"
						}
					],
					"name": "OwnershipTransferred",
					"type": "event"
				},
				{
					"anonymous": false,
					"inputs": [
						{
							"indexed": false,
							"internalType": "uint256",
							"name": "id",
							"type": "uint256"
						},
						{
							"indexed": false,
							"internalType": "address",
							"name": "author",
							"type": "address"
						},
						{
							"indexed": false,
							"internalType": "string",
							"name": "content",
							"type": "string"
						},
						{
							"indexed": false,
							"internalType": "uint256",
							"name": "timestamp",
							"type": "uint256"
						}
					],
					"name": "TweetCreated",
					"type": "event"
				},
				{
					"anonymous": false,
					"inputs": [
						{
							"indexed": false,
							"internalType": "address",
							"name": "liker",
							"type": "address"
						},
						{
							"indexed": false,
							"internalType": "address",
							"name": "tweetAuthor",
							"type": "address"
						},
						{
							"indexed": false,
							"internalType": "uint256",
							"name": "tweetId",
							"type": "uint256"
						},
						{
							"indexed": false,
							"internalType": "uint256",
							"name": "tweetLikeCount",
							"type": "uint256"
						}
					],
					"name": "TweetLiked",
					"type": "event"
				},
				{
					"anonymous": false,
					"inputs": [
						{
							"indexed": false,
							"internalType": "address",
							"name": "unliker",
							"type": "address"
						},
						{
							"indexed": false,
							"internalType": "address",
							"name": "tweetAuthor",
							"type": "address"
						},
						{
							"indexed": false,
							"internalType": "uint256",
							"name": "tweetId",
							"type": "uint256"
						},
						{
							"indexed": false,
							"internalType": "uint256",
							"name": "newLikeCount",
							"type": "uint256"
						}
					],
					"name": "TweetUnliked",
					"type": "event"
				},
				{
					"inputs": [],
					"name": "MAX_TWEET_LENGTH",
					"outputs": [
						{
							"internalType": "uint16",
							"name": "",
							"type": "uint16"
						}
					],
					"stateMutability": "view",
					"type": "function"
				},
				{
					"inputs": [
						{
							"internalType": "uint16",
							"name": "newTweetLength",
							"type": "uint16"
						}
					],
					"name": "changeTweetLength",
					"outputs": [],
					"stateMutability": "nonpayable",
					"type": "function"
				},
				{
					"inputs": [
						{
							"internalType": "string",
							"name": "_tweet",
							"type": "string"
						}
					],
					"name": "createTweet",
					"outputs": [],
					"stateMutability": "nonpayable",
					"type": "function"
				},
				{
					"inputs": [
						{
							"internalType": "address",
							"name": "_owner",
							"type": "address"
						}
					],
					"name": "getAllTweets",
					"outputs": [
						{
							"components": [
								{
									"internalType": "uint256",
									"name": "id",
									"type": "uint256"
								},
								{
									"internalType": "address",
									"name": "author",
									"type": "address"
								},
								{
									"internalType": "string",
									"name": "content",
									"type": "string"
								},
								{
									"internalType": "uint256",
									"name": "timestamp",
									"type": "uint256"
								},
								{
									"internalType": "uint256",
									"name": "likes",
									"type": "uint256"
								}
							],
							"internalType": "struct Twitter.Tweet[]",
							"name": "",
							"type": "tuple[]"
						}
					],
					"stateMutability": "view",
					"type": "function"
				},
				{
					"inputs": [
						{
							"internalType": "address",
							"name": "_author",
							"type": "address"
						}
					],
					"name": "getTotalLikes",
					"outputs": [
						{
							"internalType": "uint256",
							"name": "",
							"type": "uint256"
						}
					],
					"stateMutability": "view",
					"type": "function"
				},
				{
					"inputs": [
						{
							"internalType": "uint256",
							"name": "_i",
							"type": "uint256"
						}
					],
					"name": "getTweet",
					"outputs": [
						{
							"components": [
								{
									"internalType": "uint256",
									"name": "id",
									"type": "uint256"
								},
								{
									"internalType": "address",
									"name": "author",
									"type": "address"
								},
								{
									"internalType": "string",
									"name": "content",
									"type": "string"
								},
								{
									"internalType": "uint256",
									"name": "timestamp",
									"type": "uint256"
								},
								{
									"internalType": "uint256",
									"name": "likes",
									"type": "uint256"
								}
							],
							"internalType": "struct Twitter.Tweet",
							"name": "",
							"type": "tuple"
						}
					],
					"stateMutability": "view",
					"type": "function"
				},
				{
					"inputs": [
						{
							"internalType": "address",
							"name": "author",
							"type": "address"
						},
						{
							"internalType": "uint256",
							"name": "id",
							"type": "uint256"
						}
					],
					"name": "likeTweet",
					"outputs": [],
					"stateMutability": "nonpayable",
					"type": "function"
				},
				{
					"inputs": [],
					"name": "owner",
					"outputs": [
						{
							"internalType": "address",
							"name": "",
							"type": "address"
						}
					],
					"stateMutability": "view",
					"type": "function"
				},
				{
					"inputs": [],
					"name": "profileContract",
					"outputs": [
						{
							"internalType": "contract IProfile",
							"name": "",
							"type": "address"
						}
					],
					"stateMutability": "view",
					"type": "function"
				},
				{
					"inputs": [],
					"name": "renounceOwnership",
					"outputs": [],
					"stateMutability": "nonpayable",
					"type": "function"
				},
				{
					"inputs": [
						{
							"internalType": "address",
							"name": "newOwner",
							"type": "address"
						}
					],
					"name": "transferOwnership",
					"outputs": [],
					"stateMutability": "nonpayable",
					"type": "function"
				},
				{
					"inputs": [
						{
							"internalType": "address",
							"name": "",
							"type": "address"
						},
						{
							"internalType": "uint256",
							"name": "",
							"type": "uint256"
						}
					],
					"name": "tweets",
					"outputs": [
						{
							"internalType": "uint256",
							"name": "id",
							"type": "uint256"
						},
						{
							"internalType": "address",
							"name": "author",
							"type": "address"
						},
						{
							"internalType": "string",
							"name": "content",
							"type": "string"
						},
						{
							"internalType": "uint256",
							"name": "timestamp",
							"type": "uint256"
						},
						{
							"internalType": "uint256",
							"name": "likes",
							"type": "uint256"
						}
					],
					"stateMutability": "view",
					"type": "function"
				},
				{
					"inputs": [
						{
							"internalType": "address",
							"name": "author",
							"type": "address"
						},
						{
							"internalType": "uint256",
							"name": "id",
							"type": "uint256"
						}
					],
					"name": "unlikeTweet",
					"outputs": [],
					"stateMutability": "nonpayable",
					"type": "function"
				}
			],
			"devdoc": {
				"errors": {
					"OwnableInvalidOwner(address)": [
						{
							"details": "The owner is not a valid owner account. (eg. `address(0)`)"
						}
					],
					"OwnableUnauthorizedAccount(address)": [
						{
							"details": "The caller account is not authorized to perform an operation."
						}
					]
				},
				"kind": "dev",
				"methods": {
					"owner()": {
						"details": "Returns the address of the current owner."
					},
					"renounceOwnership()": {
						"details": "Leaves the contract without owner. It will not be possible to call `onlyOwner` functions. Can only be called by the current owner. NOTE: Renouncing ownership will leave the contract without an owner, thereby disabling any functionality that is only available to the owner."
					},
					"transferOwnership(address)": {
						"details": "Transfers ownership of the contract to a new account (`newOwner`). Can only be called by the current owner."
					}
				},
				"version": 1
			},
			"evm": {
				"assembly": "    /* \"contracts/Twitter.sol\":299:2692  contract Twitter is Ownable(msg.sender) {... */\n  mstore(0x40, 0x80)\n    /* \"contracts/Twitter.sol\":383:386  300 */\n  0x012c\n    /* \"contracts/Twitter.sol\":350:386  uint16 public MAX_TWEET_LENGTH = 300 */\n  0x00\n  exp(0x0100, 0x14)\n  dup2\n  sload\n  dup2\n  0xffff\n  mul\n  not\n  and\n  swap1\n  dup4\n  0xffff\n  and\n  mul\n  or\n  swap1\n  sstore\n  pop\n    /* \"contracts/Twitter.sol\":623:721  constructor(address _profileContract){... */\n  callvalue\n  dup1\n  iszero\n  tag_1\n  jumpi\n  revert(0x00, 0x00)\ntag_1:\n  pop\n  mload(0x40)\n  sub(codesize, bytecodeSize)\n  dup1\n  bytecodeSize\n  dup4\n  codecopy\n  dup2\n  dup2\n  add\n  0x40\n  mstore\n  dup2\n  add\n  swap1\n  tag_2\n  swap2\n  swap1\n  tag_3\n  jump\t// in\ntag_2:\n    /* \"contracts/Twitter.sol\":327:337  msg.sender */\n  caller\n    /* \"@openzeppelin/contracts/access/Ownable.sol\":1297:1298  0 */\n  0x00\n    /* \"@openzeppelin/contracts/access/Ownable.sol\":1273:1299  initialOwner == address(0) */\n  0xffffffffffffffffffffffffffffffffffffffff\n  and\n    /* \"@openzeppelin/contracts/access/Ownable.sol\":1273:1285  initialOwner */\n  dup2\n    /* \"@openzeppelin/contracts/access/Ownable.sol\":1273:1299  initialOwner == address(0) */\n  0xffffffffffffffffffffffffffffffffffffffff\n  and\n  sub\n    /* \"@openzeppelin/contracts/access/Ownable.sol\":1269:1364  if (initialOwner == address(0)) {... */\n  tag_7\n  jumpi\n    /* \"@openzeppelin/contracts/access/Ownable.sol\":1350:1351  0 */\n  0x00\n    /* \"@openzeppelin/contracts/access/Ownable.sol\":1322:1353  OwnableInvalidOwner(address(0)) */\n  mload(0x40)\n  0x1e4fbdf700000000000000000000000000000000000000000000000000000000\n  dup2\n  mstore\n  0x04\n  add\n  tag_8\n  swap2\n  swap1\n  tag_9\n  jump\t// in\ntag_8:\n  mload(0x40)\n  dup1\n  swap2\n  sub\n  swap1\n  revert\n    /* \"@openzeppelin/contracts/access/Ownable.sol\":1269:1364  if (initialOwner == address(0)) {... */\ntag_7:\n    /* \"@openzeppelin/contracts/access/Ownable.sol\":1373:1405  _transferOwnership(initialOwner) */\n  tag_10\n    /* \"@openzeppelin/contracts/access/Ownable.sol\":1392:1404  initialOwner */\n  dup2\n    /* \"@openzeppelin/contracts/access/Ownable.sol\":1373:1391  _transferOwnership */\n  shl(0x20, tag_11)\n    /* \"@openzeppelin/contracts/access/Ownable.sol\":1373:1405  _transferOwnership(initialOwner) */\n  0x20\n  shr\n  jump\t// in\ntag_10:\n    /* \"@openzeppelin/contracts/access/Ownable.sol\":1225:1412  constructor(address initialOwner) {... */\n  pop\n    /* \"contracts/Twitter.sol\":697:713  _profileContract */\n  dup1\n    /* \"contracts/Twitter.sol\":670:685  profileContract */\n  0x02\n  0x00\n    /* \"contracts/Twitter.sol\":670:714  profileContract = IProfile(_profileContract) */\n  0x0100\n  exp\n  dup2\n  sload\n  dup2\n  0xffffffffffffffffffffffffffffffffffffffff\n  mul\n  not\n  and\n  swap1\n  dup4\n  0xffffffffffffffffffffffffffffffffffffffff\n  and\n  mul\n  or\n  swap1\n  sstore\n  pop\n    /* \"contracts/Twitter.sol\":623:721  constructor(address _profileContract){... */\n  pop\n    /* \"contracts/Twitter.sol\":299:2692  contract Twitter is Ownable(msg.sender) {... */\n  jump(tag_13)\n    /* \"@openzeppelin/contracts/access/Ownable.sol\":2912:3099  function _transferOwnership(address newOwner) internal virtual {... */\ntag_11:\n    /* \"@openzeppelin/contracts/access/Ownable.sol\":2985:3001  address oldOwner */\n  0x00\n    /* \"@openzeppelin/contracts/access/Ownable.sol\":3004:3010  _owner */\n  0x00\n  0x00\n  swap1\n  sload\n  swap1\n  0x0100\n  exp\n  swap1\n  div\n  0xffffffffffffffffffffffffffffffffffffffff\n  and\n    /* \"@openzeppelin/contracts/access/Ownable.sol\":2985:3010  address oldOwner = _owner */\n  swap1\n  pop\n    /* \"@openzeppelin/contracts/access/Ownable.sol\":3029:3037  newOwner */\n  dup2\n    /* \"@openzeppelin/contracts/access/Ownable.sol\":3020:3026  _owner */\n  0x00\n  0x00\n    /* \"@openzeppelin/contracts/access/Ownable.sol\":3020:3037  _owner = newOwner */\n  0x0100\n  exp\n  dup2\n  sload\n  dup2\n  0xffffffffffffffffffffffffffffffffffffffff\n  mul\n  not\n  and\n  swap1\n  dup4\n  0xffffffffffffffffffffffffffffffffffffffff\n  and\n  mul\n  or\n  swap1\n  sstore\n  pop\n    /* \"@openzeppelin/contracts/access/Ownable.sol\":3083:3091  newOwner */\n  dup2\n    /* \"@openzeppelin/contracts/access/Ownable.sol\":3052:3092  OwnershipTransferred(oldOwner, newOwner) */\n  0xffffffffffffffffffffffffffffffffffffffff\n  and\n    /* \"@openzeppelin/contracts/access/Ownable.sol\":3073:3081  oldOwner */\n  dup2\n    /* \"@openzeppelin/contracts/access/Ownable.sol\":3052:3092  OwnershipTransferred(oldOwner, newOwner) */\n  0xffffffffffffffffffffffffffffffffffffffff\n  and\n  0x8be0079c531659141344cd1fd0a4f28419497f9722a3daafe3b4186f6b6457e0\n  mload(0x40)\n  mload(0x40)\n  dup1\n  swap2\n  sub\n  swap1\n  log3\n    /* \"@openzeppelin/contracts/access/Ownable.sol\":2975:3099  {... */\n  pop\n    /* \"@openzeppelin/contracts/access/Ownable.sol\":2912:3099  function _transferOwnership(address newOwner) internal virtual {... */\n  pop\n  jump\t// out\n    /* \"#utility.yul\":88:205   */\ntag_16:\n    /* \"#utility.yul\":197:198   */\n  0x00\n    /* \"#utility.yul\":194:195   */\n  0x00\n    /* \"#utility.yul\":187:199   */\n  revert\n    /* \"#utility.yul\":334:460   */\ntag_18:\n    /* \"#utility.yul\":371:378   */\n  0x00\n    /* \"#utility.yul\":411:453   */\n  0xffffffffffffffffffffffffffffffffffffffff\n    /* \"#utility.yul\":404:409   */\n  dup3\n    /* \"#utility.yul\":400:454   */\n  and\n    /* \"#utility.yul\":389:454   */\n  swap1\n  pop\n    /* \"#utility.yul\":334:460   */\n  swap2\n  swap1\n  pop\n  jump\t// out\n    /* \"#utility.yul\":466:562   */\ntag_19:\n    /* \"#utility.yul\":503:510   */\n  0x00\n    /* \"#utility.yul\":532:556   */\n  tag_29\n    /* \"#utility.yul\":550:555   */\n  dup3\n    /* \"#utility.yul\":532:556   */\n  tag_18\n  jump\t// in\ntag_29:\n    /* \"#utility.yul\":521:556   */\n  swap1\n  pop\n    /* \"#utility.yul\":466:562   */\n  swap2\n  swap1\n  pop\n  jump\t// out\n    /* \"#utility.yul\":568:690   */\ntag_20:\n    /* \"#utility.yul\":641:665   */\n  tag_31\n    /* \"#utility.yul\":659:664   */\n  dup2\n    /* \"#utility.yul\":641:665   */\n  tag_19\n  jump\t// in\ntag_31:\n    /* \"#utility.yul\":634:639   */\n  dup2\n    /* \"#utility.yul\":631:666   */\n  eq\n    /* \"#utility.yul\":621:684   */\n  tag_32\n  jumpi\n    /* \"#utility.yul\":680:681   */\n  0x00\n    /* \"#utility.yul\":677:678   */\n  0x00\n    /* \"#utility.yul\":670:682   */\n  revert\n    /* \"#utility.yul\":621:684   */\ntag_32:\n    /* \"#utility.yul\":568:690   */\n  pop\n  jump\t// out\n    /* \"#utility.yul\":696:839   */\ntag_21:\n    /* \"#utility.yul\":753:758   */\n  0x00\n    /* \"#utility.yul\":784:790   */\n  dup2\n    /* \"#utility.yul\":778:791   */\n  mload\n    /* \"#utility.yul\":769:791   */\n  swap1\n  pop\n    /* \"#utility.yul\":800:833   */\n  tag_34\n    /* \"#utility.yul\":827:832   */\n  dup2\n    /* \"#utility.yul\":800:833   */\n  tag_20\n  jump\t// in\ntag_34:\n    /* \"#utility.yul\":696:839   */\n  swap3\n  swap2\n  pop\n  pop\n  jump\t// out\n    /* \"#utility.yul\":845:1196   */\ntag_3:\n    /* \"#utility.yul\":915:921   */\n  0x00\n    /* \"#utility.yul\":964:966   */\n  0x20\n    /* \"#utility.yul\":952:961   */\n  dup3\n    /* \"#utility.yul\":943:950   */\n  dup5\n    /* \"#utility.yul\":939:962   */\n  sub\n    /* \"#utility.yul\":935:967   */\n  slt\n    /* \"#utility.yul\":932:1051   */\n  iszero\n  tag_36\n  jumpi\n    /* \"#utility.yul\":970:1049   */\n  tag_37\n  tag_16\n  jump\t// in\ntag_37:\n    /* \"#utility.yul\":932:1051   */\ntag_36:\n    /* \"#utility.yul\":1090:1091   */\n  0x00\n    /* \"#utility.yul\":1115:1179   */\n  tag_38\n    /* \"#utility.yul\":1171:1178   */\n  dup5\n    /* \"#utility.yul\":1162:1168   */\n  dup3\n    /* \"#utility.yul\":1151:1160   */\n  dup6\n    /* \"#utility.yul\":1147:1169   */\n  add\n    /* \"#utility.yul\":1115:1179   */\n  tag_21\n  jump\t// in\ntag_38:\n    /* \"#utility.yul\":1105:1179   */\n  swap2\n  pop\n    /* \"#utility.yul\":1061:1189   */\n  pop\n    /* \"#utility.yul\":845:1196   */\n  swap3\n  swap2\n  pop\n  pop\n  jump\t// out\n    /* \"#utility.yul\":1202:1320   */\ntag_22:\n    /* \"#utility.yul\":1289:1313   */\n  tag_40\n    /* \"#utility.yul\":1307:1312   */\n  dup2\n    /* \"#utility.yul\":1289:1313   */\n  tag_19\n  jump\t// in\ntag_40:\n    /* \"#utility.yul\":1284:1287   */\n  dup3\n    /* \"#utility.yul\":1277:1314   */\n  mstore\n    /* \"#utility.yul\":1202:1320   */\n  pop\n  pop\n  jump\t// out\n    /* \"#utility.yul\":1326:1548   */\ntag_9:\n    /* \"#utility.yul\":1419:1423   */\n  0x00\n    /* \"#utility.yul\":1457:1459   */\n  0x20\n    /* \"#utility.yul\":1446:1455   */\n  dup3\n    /* \"#utility.yul\":1442:1460   */\n  add\n    /* \"#utility.yul\":1434:1460   */\n  swap1\n  pop\n    /* \"#utility.yul\":1470:1541   */\n  tag_42\n    /* \"#utility.yul\":1538:1539   */\n  0x00\n    /* \"#utility.yul\":1527:1536   */\n  dup4\n    /* \"#utility.yul\":1523:1540   */\n  add\n    /* \"#utility.yul\":1514:1520   */\n  dup5\n    /* \"#utility.yul\":1470:1541   */\n  tag_22\n  jump\t// in\ntag_42:\n    /* \"#utility.yul\":1326:1548   */\n  swap3\n  swap2\n  pop\n  pop\n  jump\t// out\n    /* \"contracts/Twitter.sol\":299:2692  contract Twitter is Ownable(msg.sender) {... */\ntag_13:\n  dataSize(sub_0)\n  dup1\n  dataOffset(sub_0)\n  0x00\n  codecopy\n  0x00\n  return\nstop\n\nsub_0: assembly {\n        /* \"contracts/Twitter.sol\":299:2692  contract Twitter is Ownable(msg.sender) {... */\n      mstore(0x40, 0x80)\n      callvalue\n      dup1\n      iszero\n      tag_1\n      jumpi\n      revert(0x00, 0x00)\n    tag_1:\n      pop\n      jumpi(tag_2, lt(calldatasize, 0x04))\n      shr(0xe0, calldataload(0x00))\n      dup1\n      0x715018a6\n      gt\n      tag_16\n      jumpi\n      dup1\n      0x8da5cb5b\n      gt\n      tag_17\n      jumpi\n      dup1\n      0x8da5cb5b\n      eq\n      tag_12\n      jumpi\n      dup1\n      0xa3974b21\n      eq\n      tag_13\n      jumpi\n      dup1\n      0xc3ad5ecb\n      eq\n      tag_14\n      jumpi\n      dup1\n      0xf2fde38b\n      eq\n      tag_15\n      jumpi\n      jump(tag_2)\n    tag_17:\n      dup1\n      0x715018a6\n      eq\n      tag_9\n      jumpi\n      dup1\n      0x7c9cd2bc\n      eq\n      tag_10\n      jumpi\n      dup1\n      0x820785cc\n      eq\n      tag_11\n      jumpi\n      jump(tag_2)\n    tag_16:\n      dup1\n      0x05a1b4a9\n      eq\n      tag_3\n      jumpi\n      dup1\n      0x12e7ee1c\n      eq\n      tag_4\n      jumpi\n      dup1\n      0x3d9b569f\n      eq\n      tag_5\n      jumpi\n      dup1\n      0x58bfa4ab\n      eq\n      tag_6\n      jumpi\n      dup1\n      0x63378216\n      eq\n      tag_7\n      jumpi\n      dup1\n      0x6eb10797\n      eq\n      tag_8\n      jumpi\n    tag_2:\n      revert(0x00, 0x00)\n        /* \"contracts/Twitter.sol\":536:578  mapping (address => Tweet[]) public tweets */\n    tag_3:\n      tag_18\n      0x04\n      dup1\n      calldatasize\n      sub\n      dup2\n      add\n      swap1\n      tag_19\n      swap2\n      swap1\n      tag_20\n      jump\t// in\n    tag_19:\n      tag_21\n      jump\t// in\n    tag_18:\n      mload(0x40)\n      tag_22\n      swap6\n      swap5\n      swap4\n      swap3\n      swap2\n      swap1\n      tag_23\n      jump\t// in\n    tag_22:\n      mload(0x40)\n      dup1\n      swap2\n      sub\n      swap1\n      return\n        /* \"contracts/Twitter.sol\":2578:2690  function getAllTweets(address _owner) public view returns (Tweet[] memory){... */\n    tag_4:\n      tag_24\n      0x04\n      dup1\n      calldatasize\n      sub\n      dup2\n      add\n      swap1\n      tag_25\n      swap2\n      swap1\n      tag_26\n      jump\t// in\n    tag_25:\n      tag_27\n      jump\t// in\n    tag_24:\n      mload(0x40)\n      tag_28\n      swap2\n      swap1\n      tag_29\n      jump\t// in\n    tag_28:\n      mload(0x40)\n      dup1\n      swap2\n      sub\n      swap1\n      return\n        /* \"contracts/Twitter.sol\":1751:2079  function unlikeTweet(address author, uint256 id) external {... */\n    tag_5:\n      tag_30\n      0x04\n      dup1\n      calldatasize\n      sub\n      dup2\n      add\n      swap1\n      tag_31\n      swap2\n      swap1\n      tag_20\n      jump\t// in\n    tag_31:\n      tag_32\n      jump\t// in\n    tag_30:\n      stop\n        /* \"contracts/Twitter.sol\":2086:2203  function changeTweetLength(uint16 newTweetLength) public onlyOwner {... */\n    tag_6:\n      tag_33\n      0x04\n      dup1\n      calldatasize\n      sub\n      dup2\n      add\n      swap1\n      tag_34\n      swap2\n      swap1\n      tag_35\n      jump\t// in\n    tag_34:\n      tag_36\n      jump\t// in\n    tag_33:\n      stop\n        /* \"contracts/Twitter.sol\":1498:1745  function likeTweet(address author, uint256 id) external {... */\n    tag_7:\n      tag_37\n      0x04\n      dup1\n      calldatasize\n      sub\n      dup2\n      add\n      swap1\n      tag_38\n      swap2\n      swap1\n      tag_20\n      jump\t// in\n    tag_38:\n      tag_39\n      jump\t// in\n    tag_37:\n      stop\n        /* \"contracts/Twitter.sol\":350:386  uint16 public MAX_TWEET_LENGTH = 300 */\n    tag_8:\n      tag_40\n      tag_41\n      jump\t// in\n    tag_40:\n      mload(0x40)\n      tag_42\n      swap2\n      swap1\n      tag_43\n      jump\t// in\n    tag_42:\n      mload(0x40)\n      dup1\n      swap2\n      sub\n      swap1\n      return\n        /* \"@openzeppelin/contracts/access/Ownable.sol\":2293:2394  function renounceOwnership() public virtual onlyOwner {... */\n    tag_9:\n      tag_44\n      tag_45\n      jump\t// in\n    tag_44:\n      stop\n        /* \"contracts/Twitter.sol\":1018:1492  function createTweet(string memory _tweet) public  {... */\n    tag_10:\n      tag_46\n      0x04\n      dup1\n      calldatasize\n      sub\n      dup2\n      add\n      swap1\n      tag_47\n      swap2\n      swap1\n      tag_48\n      jump\t// in\n    tag_47:\n      tag_49\n      jump\t// in\n    tag_46:\n      stop\n        /* \"contracts/Twitter.sol\":2209:2458  function getTotalLikes(address _author) external view returns(uint){... */\n    tag_11:\n      tag_50\n      0x04\n      dup1\n      calldatasize\n      sub\n      dup2\n      add\n      swap1\n      tag_51\n      swap2\n      swap1\n      tag_26\n      jump\t// in\n    tag_51:\n      tag_52\n      jump\t// in\n    tag_50:\n      mload(0x40)\n      tag_53\n      swap2\n      swap1\n      tag_54\n      jump\t// in\n    tag_53:\n      mload(0x40)\n      dup1\n      swap2\n      sub\n      swap1\n      return\n        /* \"@openzeppelin/contracts/access/Ownable.sol\":1638:1723  function owner() public view virtual returns (address) {... */\n    tag_12:\n      tag_55\n      tag_56\n      jump\t// in\n    tag_55:\n      mload(0x40)\n      tag_57\n      swap2\n      swap1\n      tag_58\n      jump\t// in\n    tag_57:\n      mload(0x40)\n      dup1\n      swap2\n      sub\n      swap1\n      return\n        /* \"contracts/Twitter.sol\":585:616  IProfile public profileContract */\n    tag_13:\n      tag_59\n      tag_60\n      jump\t// in\n    tag_59:\n      mload(0x40)\n      tag_61\n      swap2\n      swap1\n      tag_62\n      jump\t// in\n    tag_61:\n      mload(0x40)\n      dup1\n      swap2\n      sub\n      swap1\n      return\n        /* \"contracts/Twitter.sol\":2464:2572  function getTweet(uint _i) public view returns (Tweet memory){... */\n    tag_14:\n      tag_63\n      0x04\n      dup1\n      calldatasize\n      sub\n      dup2\n      add\n      swap1\n      tag_64\n      swap2\n      swap1\n      tag_65\n      jump\t// in\n    tag_64:\n      tag_66\n      jump\t// in\n    tag_63:\n      mload(0x40)\n      tag_67\n      swap2\n      swap1\n      tag_68\n      jump\t// in\n    tag_67:\n      mload(0x40)\n      dup1\n      swap2\n      sub\n      swap1\n      return\n        /* \"@openzeppelin/contracts/access/Ownable.sol\":2543:2758  function transferOwnership(address newOwner) public virtual onlyOwner {... */\n    tag_15:\n      tag_69\n      0x04\n      dup1\n      calldatasize\n      sub\n      dup2\n      add\n      swap1\n      tag_70\n      swap2\n      swap1\n      tag_26\n      jump\t// in\n    tag_70:\n      tag_71\n      jump\t// in\n    tag_69:\n      stop\n        /* \"contracts/Twitter.sol\":536:578  mapping (address => Tweet[]) public tweets */\n    tag_21:\n      mstore(0x20, 0x01)\n      dup2\n      0x00\n      mstore\n      keccak256(0x00, 0x40)\n      dup2\n      dup2\n      sload\n      dup2\n      lt\n      tag_72\n      jumpi\n      0x00\n      dup1\n      revert\n    tag_72:\n      swap1\n      0x00\n      mstore\n      keccak256(0x00, 0x20)\n      swap1\n      0x05\n      mul\n      add\n      0x00\n      swap2\n      pop\n      swap2\n      pop\n      pop\n      dup1\n      0x00\n      add\n      sload\n      swap1\n      dup1\n      0x01\n      add\n      0x00\n      swap1\n      sload\n      swap1\n      0x0100\n      exp\n      swap1\n      div\n      0xffffffffffffffffffffffffffffffffffffffff\n      and\n      swap1\n      dup1\n      0x02\n      add\n      dup1\n      sload\n      tag_74\n      swap1\n      tag_75\n      jump\t// in\n    tag_74:\n      dup1\n      0x1f\n      add\n      0x20\n      dup1\n      swap2\n      div\n      mul\n      0x20\n      add\n      mload(0x40)\n      swap1\n      dup2\n      add\n      0x40\n      mstore\n      dup1\n      swap3\n      swap2\n      swap1\n      dup2\n      dup2\n      mstore\n      0x20\n      add\n      dup3\n      dup1\n      sload\n      tag_76\n      swap1\n      tag_75\n      jump\t// in\n    tag_76:\n      dup1\n      iszero\n      tag_77\n      jumpi\n      dup1\n      0x1f\n      lt\n      tag_78\n      jumpi\n      0x0100\n      dup1\n      dup4\n      sload\n      div\n      mul\n      dup4\n      mstore\n      swap2\n      0x20\n      add\n      swap2\n      jump(tag_77)\n    tag_78:\n      dup3\n      add\n      swap2\n      swap1\n      0x00\n      mstore\n      keccak256(0x00, 0x20)\n      swap1\n    tag_79:\n      dup2\n      sload\n      dup2\n      mstore\n      swap1\n      0x01\n      add\n      swap1\n      0x20\n      add\n      dup1\n      dup4\n      gt\n      tag_79\n      jumpi\n      dup3\n      swap1\n      sub\n      0x1f\n      and\n      dup3\n      add\n      swap2\n    tag_77:\n      pop\n      pop\n      pop\n      pop\n      pop\n      swap1\n      dup1\n      0x03\n      add\n      sload\n      swap1\n      dup1\n      0x04\n      add\n      sload\n      swap1\n      pop\n      dup6\n      jump\t// out\n        /* \"contracts/Twitter.sol\":2578:2690  function getAllTweets(address _owner) public view returns (Tweet[] memory){... */\n    tag_27:\n        /* \"contracts/Twitter.sol\":2637:2651  Tweet[] memory */\n      0x60\n        /* \"contracts/Twitter.sol\":2669:2675  tweets */\n      0x01\n        /* \"contracts/Twitter.sol\":2669:2683  tweets[_owner] */\n      0x00\n        /* \"contracts/Twitter.sol\":2676:2682  _owner */\n      dup4\n        /* \"contracts/Twitter.sol\":2669:2683  tweets[_owner] */\n      0xffffffffffffffffffffffffffffffffffffffff\n      and\n      0xffffffffffffffffffffffffffffffffffffffff\n      and\n      dup2\n      mstore\n      0x20\n      add\n      swap1\n      dup2\n      mstore\n      0x20\n      add\n      0x00\n      keccak256\n        /* \"contracts/Twitter.sol\":2662:2683  return tweets[_owner] */\n      dup1\n      sload\n      dup1\n      0x20\n      mul\n      0x20\n      add\n      mload(0x40)\n      swap1\n      dup2\n      add\n      0x40\n      mstore\n      dup1\n      swap3\n      swap2\n      swap1\n      dup2\n      dup2\n      mstore\n      0x20\n      add\n      0x00\n      swap1\n    tag_81:\n      dup3\n      dup3\n      lt\n      iszero\n      tag_82\n      jumpi\n      dup4\n      dup3\n      swap1\n      0x00\n      mstore\n      keccak256(0x00, 0x20)\n      swap1\n      0x05\n      mul\n      add\n      mload(0x40)\n      dup1\n      0xa0\n      add\n      0x40\n      mstore\n      swap1\n      dup2\n      0x00\n      dup3\n      add\n      sload\n      dup2\n      mstore\n      0x20\n      add\n      0x01\n      dup3\n      add\n      0x00\n      swap1\n      sload\n      swap1\n      0x0100\n      exp\n      swap1\n      div\n      0xffffffffffffffffffffffffffffffffffffffff\n      and\n      0xffffffffffffffffffffffffffffffffffffffff\n      and\n      0xffffffffffffffffffffffffffffffffffffffff\n      and\n      dup2\n      mstore\n      0x20\n      add\n      0x02\n      dup3\n      add\n      dup1\n      sload\n      tag_84\n      swap1\n      tag_75\n      jump\t// in\n    tag_84:\n      dup1\n      0x1f\n      add\n      0x20\n      dup1\n      swap2\n      div\n      mul\n      0x20\n      add\n      mload(0x40)\n      swap1\n      dup2\n      add\n      0x40\n      mstore\n      dup1\n      swap3\n      swap2\n      swap1\n      dup2\n      dup2\n      mstore\n      0x20\n      add\n      dup3\n      dup1\n      sload\n      tag_85\n      swap1\n      tag_75\n      jump\t// in\n    tag_85:\n      dup1\n      iszero\n      tag_86\n      jumpi\n      dup1\n      0x1f\n      lt\n      tag_87\n      jumpi\n      0x0100\n      dup1\n      dup4\n      sload\n      div\n      mul\n      dup4\n      mstore\n      swap2\n      0x20\n      add\n      swap2\n      jump(tag_86)\n    tag_87:\n      dup3\n      add\n      swap2\n      swap1\n      0x00\n      mstore\n      keccak256(0x00, 0x20)\n      swap1\n    tag_88:\n      dup2\n      sload\n      dup2\n      mstore\n      swap1\n      0x01\n      add\n      swap1\n      0x20\n      add\n      dup1\n      dup4\n      gt\n      tag_88\n      jumpi\n      dup3\n      swap1\n      sub\n      0x1f\n      and\n      dup3\n      add\n      swap2\n    tag_86:\n      pop\n      pop\n      pop\n      pop\n      pop\n      dup2\n      mstore\n      0x20\n      add\n      0x03\n      dup3\n      add\n      sload\n      dup2\n      mstore\n      0x20\n      add\n      0x04\n      dup3\n      add\n      sload\n      dup2\n      mstore\n      pop\n      pop\n      dup2\n      mstore\n      0x20\n      add\n      swap1\n      0x01\n      add\n      swap1\n      jump(tag_81)\n    tag_82:\n      pop\n      pop\n      pop\n      pop\n      swap1\n      pop\n        /* \"contracts/Twitter.sol\":2578:2690  function getAllTweets(address _owner) public view returns (Tweet[] memory){... */\n      swap2\n      swap1\n      pop\n      jump\t// out\n        /* \"contracts/Twitter.sol\":1751:2079  function unlikeTweet(address author, uint256 id) external {... */\n    tag_32:\n        /* \"contracts/Twitter.sol\":1852:1854  id */\n      dup1\n        /* \"contracts/Twitter.sol\":1827:1833  tweets */\n      0x01\n        /* \"contracts/Twitter.sol\":1827:1841  tweets[author] */\n      0x00\n        /* \"contracts/Twitter.sol\":1834:1840  author */\n      dup5\n        /* \"contracts/Twitter.sol\":1827:1841  tweets[author] */\n      0xffffffffffffffffffffffffffffffffffffffff\n      and\n      0xffffffffffffffffffffffffffffffffffffffff\n      and\n      dup2\n      mstore\n      0x20\n      add\n      swap1\n      dup2\n      mstore\n      0x20\n      add\n      0x00\n      keccak256\n        /* \"contracts/Twitter.sol\":1842:1844  id */\n      dup3\n        /* \"contracts/Twitter.sol\":1827:1845  tweets[author][id] */\n      dup2\n      sload\n      dup2\n      lt\n      tag_90\n      jumpi\n      tag_91\n      tag_92\n      jump\t// in\n    tag_91:\n    tag_90:\n      swap1\n      0x00\n      mstore\n      keccak256(0x00, 0x20)\n      swap1\n      0x05\n      mul\n      add\n        /* \"contracts/Twitter.sol\":1827:1848  tweets[author][id].id */\n      0x00\n      add\n      sload\n        /* \"contracts/Twitter.sol\":1827:1854  tweets[author][id].id == id */\n      eq\n        /* \"contracts/Twitter.sol\":1819:1879  require(tweets[author][id].id == id, \"Tweet Does not exist\") */\n      tag_94\n      jumpi\n      mload(0x40)\n      0x08c379a000000000000000000000000000000000000000000000000000000000\n      dup2\n      mstore\n      0x04\n      add\n      tag_95\n      swap1\n      tag_96\n      jump\t// in\n    tag_95:\n      mload(0x40)\n      dup1\n      swap2\n      sub\n      swap1\n      revert\n    tag_94:\n        /* \"contracts/Twitter.sol\":1921:1922  0 */\n      0x00\n        /* \"contracts/Twitter.sol\":1897:1903  tweets */\n      0x01\n        /* \"contracts/Twitter.sol\":1897:1911  tweets[author] */\n      0x00\n        /* \"contracts/Twitter.sol\":1904:1910  author */\n      dup5\n        /* \"contracts/Twitter.sol\":1897:1911  tweets[author] */\n      0xffffffffffffffffffffffffffffffffffffffff\n      and\n      0xffffffffffffffffffffffffffffffffffffffff\n      and\n      dup2\n      mstore\n      0x20\n      add\n      swap1\n      dup2\n      mstore\n      0x20\n      add\n      0x00\n      keccak256\n        /* \"contracts/Twitter.sol\":1912:1914  id */\n      dup3\n        /* \"contracts/Twitter.sol\":1897:1915  tweets[author][id] */\n      dup2\n      sload\n      dup2\n      lt\n      tag_97\n      jumpi\n      tag_98\n      tag_92\n      jump\t// in\n    tag_98:\n    tag_97:\n      swap1\n      0x00\n      mstore\n      keccak256(0x00, 0x20)\n      swap1\n      0x05\n      mul\n      add\n        /* \"contracts/Twitter.sol\":1897:1918  tweets[author][id].id */\n      0x00\n      add\n      sload\n        /* \"contracts/Twitter.sol\":1897:1922  tweets[author][id].id > 0 */\n      gt\n        /* \"contracts/Twitter.sol\":1889:1952  require(tweets[author][id].id > 0, \"Twwet does not have Likes\") */\n      tag_100\n      jumpi\n      mload(0x40)\n      0x08c379a000000000000000000000000000000000000000000000000000000000\n      dup2\n      mstore\n      0x04\n      add\n      tag_101\n      swap1\n      tag_102\n      jump\t// in\n    tag_101:\n      mload(0x40)\n      dup1\n      swap2\n      sub\n      swap1\n      revert\n    tag_100:\n        /* \"contracts/Twitter.sol\":1962:1968  tweets */\n      0x01\n        /* \"contracts/Twitter.sol\":1962:1976  tweets[author] */\n      0x00\n        /* \"contracts/Twitter.sol\":1969:1975  author */\n      dup4\n        /* \"contracts/Twitter.sol\":1962:1976  tweets[author] */\n      0xffffffffffffffffffffffffffffffffffffffff\n      and\n      0xffffffffffffffffffffffffffffffffffffffff\n      and\n      dup2\n      mstore\n      0x20\n      add\n      swap1\n      dup2\n      mstore\n      0x20\n      add\n      0x00\n      keccak256\n        /* \"contracts/Twitter.sol\":1977:1979  id */\n      dup2\n        /* \"contracts/Twitter.sol\":1962:1980  tweets[author][id] */\n      dup2\n      sload\n      dup2\n      lt\n      tag_103\n      jumpi\n      tag_104\n      tag_92\n      jump\t// in\n    tag_104:\n    tag_103:\n      swap1\n      0x00\n      mstore\n      keccak256(0x00, 0x20)\n      swap1\n      0x05\n      mul\n      add\n        /* \"contracts/Twitter.sol\":1962:1983  tweets[author][id].id */\n      0x00\n      add\n      0x00\n        /* \"contracts/Twitter.sol\":1962:1985  tweets[author][id].id-- */\n      dup2\n      sload\n      dup1\n      swap3\n      swap2\n      swap1\n      tag_106\n      swap1\n      tag_107\n      jump\t// in\n    tag_106:\n      swap2\n      swap1\n      pop\n      sstore\n      pop\n        /* \"contracts/Twitter.sol\":2001:2063  TweetUnliked(msg.sender, author, id, tweets[author][id].likes) */\n      0x762c2616349603ac16eba0de8e6141b79129a07ab63bd99e0a80b3a471716943\n        /* \"contracts/Twitter.sol\":2014:2024  msg.sender */\n      caller\n        /* \"contracts/Twitter.sol\":2026:2032  author */\n      dup4\n        /* \"contracts/Twitter.sol\":2034:2036  id */\n      dup4\n        /* \"contracts/Twitter.sol\":2038:2044  tweets */\n      0x01\n        /* \"contracts/Twitter.sol\":2038:2052  tweets[author] */\n      0x00\n        /* \"contracts/Twitter.sol\":2045:2051  author */\n      dup8\n        /* \"contracts/Twitter.sol\":2038:2052  tweets[author] */\n      0xffffffffffffffffffffffffffffffffffffffff\n      and\n      0xffffffffffffffffffffffffffffffffffffffff\n      and\n      dup2\n      mstore\n      0x20\n      add\n      swap1\n      dup2\n      mstore\n      0x20\n      add\n      0x00\n      keccak256\n        /* \"contracts/Twitter.sol\":2053:2055  id */\n      dup6\n        /* \"contracts/Twitter.sol\":2038:2056  tweets[author][id] */\n      dup2\n      sload\n      dup2\n      lt\n      tag_108\n      jumpi\n      tag_109\n      tag_92\n      jump\t// in\n    tag_109:\n    tag_108:\n      swap1\n      0x00\n      mstore\n      keccak256(0x00, 0x20)\n      swap1\n      0x05\n      mul\n      add\n        /* \"contracts/Twitter.sol\":2038:2062  tweets[author][id].likes */\n      0x04\n      add\n      sload\n        /* \"contracts/Twitter.sol\":2001:2063  TweetUnliked(msg.sender, author, id, tweets[author][id].likes) */\n      mload(0x40)\n      tag_111\n      swap5\n      swap4\n      swap3\n      swap2\n      swap1\n      tag_112\n      jump\t// in\n    tag_111:\n      mload(0x40)\n      dup1\n      swap2\n      sub\n      swap1\n      log1\n        /* \"contracts/Twitter.sol\":1751:2079  function unlikeTweet(address author, uint256 id) external {... */\n      pop\n      pop\n      jump\t// out\n        /* \"contracts/Twitter.sol\":2086:2203  function changeTweetLength(uint16 newTweetLength) public onlyOwner {... */\n    tag_36:\n        /* \"@openzeppelin/contracts/access/Ownable.sol\":1531:1544  _checkOwner() */\n      tag_114\n        /* \"@openzeppelin/contracts/access/Ownable.sol\":1531:1542  _checkOwner */\n      tag_115\n        /* \"@openzeppelin/contracts/access/Ownable.sol\":1531:1544  _checkOwner() */\n      jump\t// in\n    tag_114:\n        /* \"contracts/Twitter.sol\":2182:2196  newTweetLength */\n      dup1\n        /* \"contracts/Twitter.sol\":2163:2179  MAX_TWEET_LENGTH */\n      0x00\n      0x14\n        /* \"contracts/Twitter.sol\":2163:2196  MAX_TWEET_LENGTH = newTweetLength */\n      0x0100\n      exp\n      dup2\n      sload\n      dup2\n      0xffff\n      mul\n      not\n      and\n      swap1\n      dup4\n      0xffff\n      and\n      mul\n      or\n      swap1\n      sstore\n      pop\n        /* \"contracts/Twitter.sol\":2086:2203  function changeTweetLength(uint16 newTweetLength) public onlyOwner {... */\n      pop\n      jump\t// out\n        /* \"contracts/Twitter.sol\":1498:1745  function likeTweet(address author, uint256 id) external {... */\n    tag_39:\n        /* \"contracts/Twitter.sol\":1597:1599  id */\n      dup1\n        /* \"contracts/Twitter.sol\":1572:1578  tweets */\n      0x01\n        /* \"contracts/Twitter.sol\":1572:1586  tweets[author] */\n      0x00\n        /* \"contracts/Twitter.sol\":1579:1585  author */\n      dup5\n        /* \"contracts/Twitter.sol\":1572:1586  tweets[author] */\n      0xffffffffffffffffffffffffffffffffffffffff\n      and\n      0xffffffffffffffffffffffffffffffffffffffff\n      and\n      dup2\n      mstore\n      0x20\n      add\n      swap1\n      dup2\n      mstore\n      0x20\n      add\n      0x00\n      keccak256\n        /* \"contracts/Twitter.sol\":1587:1589  id */\n      dup3\n        /* \"contracts/Twitter.sol\":1572:1590  tweets[author][id] */\n      dup2\n      sload\n      dup2\n      lt\n      tag_118\n      jumpi\n      tag_119\n      tag_92\n      jump\t// in\n    tag_119:\n    tag_118:\n      swap1\n      0x00\n      mstore\n      keccak256(0x00, 0x20)\n      swap1\n      0x05\n      mul\n      add\n        /* \"contracts/Twitter.sol\":1572:1593  tweets[author][id].id */\n      0x00\n      add\n      sload\n        /* \"contracts/Twitter.sol\":1572:1599  tweets[author][id].id == id */\n      eq\n        /* \"contracts/Twitter.sol\":1564:1624  require(tweets[author][id].id == id, \"Tweet Does Not Exist\") */\n      tag_121\n      jumpi\n      mload(0x40)\n      0x08c379a000000000000000000000000000000000000000000000000000000000\n      dup2\n      mstore\n      0x04\n      add\n      tag_122\n      swap1\n      tag_123\n      jump\t// in\n    tag_122:\n      mload(0x40)\n      dup1\n      swap2\n      sub\n      swap1\n      revert\n    tag_121:\n        /* \"contracts/Twitter.sol\":1635:1641  tweets */\n      0x01\n        /* \"contracts/Twitter.sol\":1635:1649  tweets[author] */\n      0x00\n        /* \"contracts/Twitter.sol\":1642:1648  author */\n      dup4\n        /* \"contracts/Twitter.sol\":1635:1649  tweets[author] */\n      0xffffffffffffffffffffffffffffffffffffffff\n      and\n      0xffffffffffffffffffffffffffffffffffffffff\n      and\n      dup2\n      mstore\n      0x20\n      add\n      swap1\n      dup2\n      mstore\n      0x20\n      add\n      0x00\n      keccak256\n        /* \"contracts/Twitter.sol\":1650:1652  id */\n      dup2\n        /* \"contracts/Twitter.sol\":1635:1653  tweets[author][id] */\n      dup2\n      sload\n      dup2\n      lt\n      tag_124\n      jumpi\n      tag_125\n      tag_92\n      jump\t// in\n    tag_125:\n    tag_124:\n      swap1\n      0x00\n      mstore\n      keccak256(0x00, 0x20)\n      swap1\n      0x05\n      mul\n      add\n        /* \"contracts/Twitter.sol\":1635:1659  tweets[author][id].likes */\n      0x04\n      add\n      0x00\n        /* \"contracts/Twitter.sol\":1635:1661  tweets[author][id].likes++ */\n      dup2\n      sload\n      dup1\n      swap3\n      swap2\n      swap1\n      tag_127\n      swap1\n      tag_128\n      jump\t// in\n    tag_127:\n      swap2\n      swap1\n      pop\n      sstore\n      pop\n        /* \"contracts/Twitter.sol\":1677:1737  TweetLiked(msg.sender, author, id, tweets[author][id].likes) */\n      0xe8a76fc0f16d11a00d1e93b689b63d76cf60af914dd3d915375dc41d01a0c3c8\n        /* \"contracts/Twitter.sol\":1688:1698  msg.sender */\n      caller\n        /* \"contracts/Twitter.sol\":1700:1706  author */\n      dup4\n        /* \"contracts/Twitter.sol\":1708:1710  id */\n      dup4\n        /* \"contracts/Twitter.sol\":1712:1718  tweets */\n      0x01\n        /* \"contracts/Twitter.sol\":1712:1726  tweets[author] */\n      0x00\n        /* \"contracts/Twitter.sol\":1719:1725  author */\n      dup8\n        /* \"contracts/Twitter.sol\":1712:1726  tweets[author] */\n      0xffffffffffffffffffffffffffffffffffffffff\n      and\n      0xffffffffffffffffffffffffffffffffffffffff\n      and\n      dup2\n      mstore\n      0x20\n      add\n      swap1\n      dup2\n      mstore\n      0x20\n      add\n      0x00\n      keccak256\n        /* \"contracts/Twitter.sol\":1727:1729  id */\n      dup6\n        /* \"contracts/Twitter.sol\":1712:1730  tweets[author][id] */\n      dup2\n      sload\n      dup2\n      lt\n      tag_129\n      jumpi\n      tag_130\n      tag_92\n      jump\t// in\n    tag_130:\n    tag_129:\n      swap1\n      0x00\n      mstore\n      keccak256(0x00, 0x20)\n      swap1\n      0x05\n      mul\n      add\n        /* \"contracts/Twitter.sol\":1712:1736  tweets[author][id].likes */\n      0x04\n      add\n      sload\n        /* \"contracts/Twitter.sol\":1677:1737  TweetLiked(msg.sender, author, id, tweets[author][id].likes) */\n      mload(0x40)\n      tag_132\n      swap5\n      swap4\n      swap3\n      swap2\n      swap1\n      tag_112\n      jump\t// in\n    tag_132:\n      mload(0x40)\n      dup1\n      swap2\n      sub\n      swap1\n      log1\n        /* \"contracts/Twitter.sol\":1498:1745  function likeTweet(address author, uint256 id) external {... */\n      pop\n      pop\n      jump\t// out\n        /* \"contracts/Twitter.sol\":350:386  uint16 public MAX_TWEET_LENGTH = 300 */\n    tag_41:\n      0x00\n      0x14\n      swap1\n      sload\n      swap1\n      0x0100\n      exp\n      swap1\n      div\n      0xffff\n      and\n      dup2\n      jump\t// out\n        /* \"@openzeppelin/contracts/access/Ownable.sol\":2293:2394  function renounceOwnership() public virtual onlyOwner {... */\n    tag_45:\n        /* \"@openzeppelin/contracts/access/Ownable.sol\":1531:1544  _checkOwner() */\n      tag_134\n        /* \"@openzeppelin/contracts/access/Ownable.sol\":1531:1542  _checkOwner */\n      tag_115\n        /* \"@openzeppelin/contracts/access/Ownable.sol\":1531:1544  _checkOwner() */\n      jump\t// in\n    tag_134:\n        /* \"@openzeppelin/contracts/access/Ownable.sol\":2357:2387  _transferOwnership(address(0)) */\n      tag_136\n        /* \"@openzeppelin/contracts/access/Ownable.sol\":2384:2385  0 */\n      0x00\n        /* \"@openzeppelin/contracts/access/Ownable.sol\":2357:2375  _transferOwnership */\n      tag_137\n        /* \"@openzeppelin/contracts/access/Ownable.sol\":2357:2387  _transferOwnership(address(0)) */\n      jump\t// in\n    tag_136:\n        /* \"@openzeppelin/contracts/access/Ownable.sol\":2293:2394  function renounceOwnership() public virtual onlyOwner {... */\n      jump\t// out\n        /* \"contracts/Twitter.sol\":1018:1492  function createTweet(string memory _tweet) public  {... */\n    tag_49:\n        /* \"contracts/Twitter.sol\":1108:1124  MAX_TWEET_LENGTH */\n      0x00\n      0x14\n      swap1\n      sload\n      swap1\n      0x0100\n      exp\n      swap1\n      div\n      0xffff\n      and\n        /* \"contracts/Twitter.sol\":1084:1124  bytes(_tweet).length <= MAX_TWEET_LENGTH */\n      0xffff\n      and\n        /* \"contracts/Twitter.sol\":1090:1096  _tweet */\n      dup2\n        /* \"contracts/Twitter.sol\":1084:1104  bytes(_tweet).length */\n      mload\n        /* \"contracts/Twitter.sol\":1084:1124  bytes(_tweet).length <= MAX_TWEET_LENGTH */\n      gt\n      iszero\n        /* \"contracts/Twitter.sol\":1076:1157  require(bytes(_tweet).length <= MAX_TWEET_LENGTH, \"Tweet Execced the max length\") */\n      tag_139\n      jumpi\n      mload(0x40)\n      0x08c379a000000000000000000000000000000000000000000000000000000000\n      dup2\n      mstore\n      0x04\n      add\n      tag_140\n      swap1\n      tag_141\n      jump\t// in\n    tag_140:\n      mload(0x40)\n      dup1\n      swap2\n      sub\n      swap1\n      revert\n    tag_139:\n        /* \"contracts/Twitter.sol\":1164:1185  Tweet memory newTweet */\n      0x00\n        /* \"contracts/Twitter.sol\":1188:1348  Tweet({... */\n      mload(0x40)\n      dup1\n      0xa0\n      add\n      0x40\n      mstore\n      dup1\n        /* \"contracts/Twitter.sol\":1208:1214  tweets */\n      0x01\n        /* \"contracts/Twitter.sol\":1208:1226  tweets[msg.sender] */\n      0x00\n        /* \"contracts/Twitter.sol\":1215:1225  msg.sender */\n      caller\n        /* \"contracts/Twitter.sol\":1208:1226  tweets[msg.sender] */\n      0xffffffffffffffffffffffffffffffffffffffff\n      and\n      0xffffffffffffffffffffffffffffffffffffffff\n      and\n      dup2\n      mstore\n      0x20\n      add\n      swap1\n      dup2\n      mstore\n      0x20\n      add\n      0x00\n      keccak256\n        /* \"contracts/Twitter.sol\":1208:1233  tweets[msg.sender].length */\n      dup1\n      sload\n      swap1\n      pop\n        /* \"contracts/Twitter.sol\":1188:1348  Tweet({... */\n      dup2\n      mstore\n      0x20\n      add\n        /* \"contracts/Twitter.sol\":1251:1261  msg.sender */\n      caller\n        /* \"contracts/Twitter.sol\":1188:1348  Tweet({... */\n      0xffffffffffffffffffffffffffffffffffffffff\n      and\n      dup2\n      mstore\n      0x20\n      add\n        /* \"contracts/Twitter.sol\":1280:1286  _tweet */\n      dup4\n        /* \"contracts/Twitter.sol\":1188:1348  Tweet({... */\n      dup2\n      mstore\n      0x20\n      add\n        /* \"contracts/Twitter.sol\":1307:1322  block.timestamp */\n      timestamp\n        /* \"contracts/Twitter.sol\":1188:1348  Tweet({... */\n      dup2\n      mstore\n      0x20\n      add\n        /* \"contracts/Twitter.sol\":1339:1340  0 */\n      0x00\n        /* \"contracts/Twitter.sol\":1188:1348  Tweet({... */\n      dup2\n      mstore\n      pop\n        /* \"contracts/Twitter.sol\":1164:1348  Tweet memory newTweet = Tweet({... */\n      swap1\n      pop\n        /* \"contracts/Twitter.sol\":1359:1365  tweets */\n      0x01\n        /* \"contracts/Twitter.sol\":1359:1377  tweets[msg.sender] */\n      0x00\n        /* \"contracts/Twitter.sol\":1366:1376  msg.sender */\n      caller\n        /* \"contracts/Twitter.sol\":1359:1377  tweets[msg.sender] */\n      0xffffffffffffffffffffffffffffffffffffffff\n      and\n      0xffffffffffffffffffffffffffffffffffffffff\n      and\n      dup2\n      mstore\n      0x20\n      add\n      swap1\n      dup2\n      mstore\n      0x20\n      add\n      0x00\n      keccak256\n        /* \"contracts/Twitter.sol\":1383:1391  newTweet */\n      dup2\n        /* \"contracts/Twitter.sol\":1359:1392  tweets[msg.sender].push(newTweet) */\n      swap1\n      dup1\n      0x01\n      dup2\n      sload\n      add\n      dup1\n      dup3\n      sstore\n      dup1\n      swap2\n      pop\n      pop\n      0x01\n      swap1\n      sub\n      swap1\n      0x00\n      mstore\n      keccak256(0x00, 0x20)\n      swap1\n      0x05\n      mul\n      add\n      0x00\n      swap1\n      swap2\n      swap1\n      swap2\n      swap1\n      swap2\n      pop\n      0x00\n      dup3\n      add\n      mload\n      dup2\n      0x00\n      add\n      sstore\n      0x20\n      dup3\n      add\n      mload\n      dup2\n      0x01\n      add\n      exp(0x0100, 0x00)\n      dup2\n      sload\n      dup2\n      0xffffffffffffffffffffffffffffffffffffffff\n      mul\n      not\n      and\n      swap1\n      dup4\n      0xffffffffffffffffffffffffffffffffffffffff\n      and\n      mul\n      or\n      swap1\n      sstore\n      pop\n      0x40\n      dup3\n      add\n      mload\n      dup2\n      0x02\n      add\n      swap1\n      dup2\n      tag_143\n      swap2\n      swap1\n      tag_144\n      jump\t// in\n    tag_143:\n      pop\n      0x60\n      dup3\n      add\n      mload\n      dup2\n      0x03\n      add\n      sstore\n      0x80\n      dup3\n      add\n      mload\n      dup2\n      0x04\n      add\n      sstore\n      pop\n      pop\n        /* \"contracts/Twitter.sol\":1404:1484  TweetCreated(newTweet.id, newTweet.author, newTweet.content, newTweet.timestamp) */\n      0x16fd3c13e9d46923e0a8bce11c7b473ec508a72e6c96cd2404b29ce972afc29e\n        /* \"contracts/Twitter.sol\":1417:1425  newTweet */\n      dup2\n        /* \"contracts/Twitter.sol\":1417:1428  newTweet.id */\n      0x00\n      add\n      mload\n        /* \"contracts/Twitter.sol\":1430:1438  newTweet */\n      dup3\n        /* \"contracts/Twitter.sol\":1430:1445  newTweet.author */\n      0x20\n      add\n      mload\n        /* \"contracts/Twitter.sol\":1447:1455  newTweet */\n      dup4\n        /* \"contracts/Twitter.sol\":1447:1463  newTweet.content */\n      0x40\n      add\n      mload\n        /* \"contracts/Twitter.sol\":1465:1473  newTweet */\n      dup5\n        /* \"contracts/Twitter.sol\":1465:1483  newTweet.timestamp */\n      0x60\n      add\n      mload\n        /* \"contracts/Twitter.sol\":1404:1484  TweetCreated(newTweet.id, newTweet.author, newTweet.content, newTweet.timestamp) */\n      mload(0x40)\n      tag_145\n      swap5\n      swap4\n      swap3\n      swap2\n      swap1\n      tag_146\n      jump\t// in\n    tag_145:\n      mload(0x40)\n      dup1\n      swap2\n      sub\n      swap1\n      log1\n        /* \"contracts/Twitter.sol\":1069:1492  {... */\n      pop\n        /* \"contracts/Twitter.sol\":1018:1492  function createTweet(string memory _tweet) public  {... */\n      pop\n      jump\t// out\n        /* \"contracts/Twitter.sol\":2209:2458  function getTotalLikes(address _author) external view returns(uint){... */\n    tag_52:\n        /* \"contracts/Twitter.sol\":2271:2275  uint */\n      0x00\n        /* \"contracts/Twitter.sol\":2286:2301  uint totalLikes */\n      0x00\n        /* \"contracts/Twitter.sol\":2304:2305  0 */\n      0x00\n        /* \"contracts/Twitter.sol\":2286:2305  uint totalLikes = 0 */\n      swap1\n      pop\n        /* \"contracts/Twitter.sol\":2320:2326  uint i */\n      0x00\n        /* \"contracts/Twitter.sol\":2327:2328  0 */\n      0x00\n        /* \"contracts/Twitter.sol\":2320:2328  uint i=0 */\n      swap1\n      pop\n        /* \"contracts/Twitter.sol\":2316:2425  for(uint i=0; i < tweets[_author].length; i++){... */\n    tag_148:\n        /* \"contracts/Twitter.sol\":2334:2340  tweets */\n      0x01\n        /* \"contracts/Twitter.sol\":2334:2349  tweets[_author] */\n      0x00\n        /* \"contracts/Twitter.sol\":2341:2348  _author */\n      dup6\n        /* \"contracts/Twitter.sol\":2334:2349  tweets[_author] */\n      0xffffffffffffffffffffffffffffffffffffffff\n      and\n      0xffffffffffffffffffffffffffffffffffffffff\n      and\n      dup2\n      mstore\n      0x20\n      add\n      swap1\n      dup2\n      mstore\n      0x20\n      add\n      0x00\n      keccak256\n        /* \"contracts/Twitter.sol\":2334:2356  tweets[_author].length */\n      dup1\n      sload\n      swap1\n      pop\n        /* \"contracts/Twitter.sol\":2330:2331  i */\n      dup2\n        /* \"contracts/Twitter.sol\":2330:2356  i < tweets[_author].length */\n      lt\n        /* \"contracts/Twitter.sol\":2316:2425  for(uint i=0; i < tweets[_author].length; i++){... */\n      iszero\n      tag_149\n      jumpi\n        /* \"contracts/Twitter.sol\":2390:2396  tweets */\n      0x01\n        /* \"contracts/Twitter.sol\":2390:2405  tweets[_author] */\n      0x00\n        /* \"contracts/Twitter.sol\":2397:2404  _author */\n      dup6\n        /* \"contracts/Twitter.sol\":2390:2405  tweets[_author] */\n      0xffffffffffffffffffffffffffffffffffffffff\n      and\n      0xffffffffffffffffffffffffffffffffffffffff\n      and\n      dup2\n      mstore\n      0x20\n      add\n      swap1\n      dup2\n      mstore\n      0x20\n      add\n      0x00\n      keccak256\n        /* \"contracts/Twitter.sol\":2406:2407  i */\n      dup2\n        /* \"contracts/Twitter.sol\":2390:2408  tweets[_author][i] */\n      dup2\n      sload\n      dup2\n      lt\n      tag_151\n      jumpi\n      tag_152\n      tag_92\n      jump\t// in\n    tag_152:\n    tag_151:\n      swap1\n      0x00\n      mstore\n      keccak256(0x00, 0x20)\n      swap1\n      0x05\n      mul\n      add\n        /* \"contracts/Twitter.sol\":2390:2414  tweets[_author][i].likes */\n      0x04\n      add\n      sload\n        /* \"contracts/Twitter.sol\":2376:2414  totalLikes += tweets[_author][i].likes */\n      dup3\n      tag_154\n      swap2\n      swap1\n      tag_155\n      jump\t// in\n    tag_154:\n      swap2\n      pop\n        /* \"contracts/Twitter.sol\":2358:2361  i++ */\n      dup1\n      dup1\n      0x01\n      add\n      swap2\n      pop\n      pop\n        /* \"contracts/Twitter.sol\":2316:2425  for(uint i=0; i < tweets[_author].length; i++){... */\n      jump(tag_148)\n    tag_149:\n      pop\n        /* \"contracts/Twitter.sol\":2441:2451  totalLikes */\n      dup1\n        /* \"contracts/Twitter.sol\":2434:2451  return totalLikes */\n      swap2\n      pop\n      pop\n        /* \"contracts/Twitter.sol\":2209:2458  function getTotalLikes(address _author) external view returns(uint){... */\n      swap2\n      swap1\n      pop\n      jump\t// out\n        /* \"@openzeppelin/contracts/access/Ownable.sol\":1638:1723  function owner() public view virtual returns (address) {... */\n    tag_56:\n        /* \"@openzeppelin/contracts/access/Ownable.sol\":1684:1691  address */\n      0x00\n        /* \"@openzeppelin/contracts/access/Ownable.sol\":1710:1716  _owner */\n      0x00\n      0x00\n      swap1\n      sload\n      swap1\n      0x0100\n      exp\n      swap1\n      div\n      0xffffffffffffffffffffffffffffffffffffffff\n      and\n        /* \"@openzeppelin/contracts/access/Ownable.sol\":1703:1716  return _owner */\n      swap1\n      pop\n        /* \"@openzeppelin/contracts/access/Ownable.sol\":1638:1723  function owner() public view virtual returns (address) {... */\n      swap1\n      jump\t// out\n        /* \"contracts/Twitter.sol\":585:616  IProfile public profileContract */\n    tag_60:\n      0x02\n      0x00\n      swap1\n      sload\n      swap1\n      0x0100\n      exp\n      swap1\n      div\n      0xffffffffffffffffffffffffffffffffffffffff\n      and\n      dup2\n      jump\t// out\n        /* \"contracts/Twitter.sol\":2464:2572  function getTweet(uint _i) public view returns (Tweet memory){... */\n    tag_66:\n        /* \"contracts/Twitter.sol\":2512:2524  Tweet memory */\n      tag_157\n      tag_158\n      jump\t// in\n    tag_157:\n        /* \"contracts/Twitter.sol\":2542:2548  tweets */\n      0x01\n        /* \"contracts/Twitter.sol\":2542:2560  tweets[msg.sender] */\n      0x00\n        /* \"contracts/Twitter.sol\":2549:2559  msg.sender */\n      caller\n        /* \"contracts/Twitter.sol\":2542:2560  tweets[msg.sender] */\n      0xffffffffffffffffffffffffffffffffffffffff\n      and\n      0xffffffffffffffffffffffffffffffffffffffff\n      and\n      dup2\n      mstore\n      0x20\n      add\n      swap1\n      dup2\n      mstore\n      0x20\n      add\n      0x00\n      keccak256\n        /* \"contracts/Twitter.sol\":2561:2563  _i */\n      dup3\n        /* \"contracts/Twitter.sol\":2542:2564  tweets[msg.sender][_i] */\n      dup2\n      sload\n      dup2\n      lt\n      tag_160\n      jumpi\n      tag_161\n      tag_92\n      jump\t// in\n    tag_161:\n    tag_160:\n      swap1\n      0x00\n      mstore\n      keccak256(0x00, 0x20)\n      swap1\n      0x05\n      mul\n      add\n        /* \"contracts/Twitter.sol\":2535:2564  return tweets[msg.sender][_i] */\n      mload(0x40)\n      dup1\n      0xa0\n      add\n      0x40\n      mstore\n      swap1\n      dup2\n      0x00\n      dup3\n      add\n      sload\n      dup2\n      mstore\n      0x20\n      add\n      0x01\n      dup3\n      add\n      0x00\n      swap1\n      sload\n      swap1\n      0x0100\n      exp\n      swap1\n      div\n      0xffffffffffffffffffffffffffffffffffffffff\n      and\n      0xffffffffffffffffffffffffffffffffffffffff\n      and\n      0xffffffffffffffffffffffffffffffffffffffff\n      and\n      dup2\n      mstore\n      0x20\n      add\n      0x02\n      dup3\n      add\n      dup1\n      sload\n      tag_163\n      swap1\n      tag_75\n      jump\t// in\n    tag_163:\n      dup1\n      0x1f\n      add\n      0x20\n      dup1\n      swap2\n      div\n      mul\n      0x20\n      add\n      mload(0x40)\n      swap1\n      dup2\n      add\n      0x40\n      mstore\n      dup1\n      swap3\n      swap2\n      swap1\n      dup2\n      dup2\n      mstore\n      0x20\n      add\n      dup3\n      dup1\n      sload\n      tag_164\n      swap1\n      tag_75\n      jump\t// in\n    tag_164:\n      dup1\n      iszero\n      tag_165\n      jumpi\n      dup1\n      0x1f\n      lt\n      tag_166\n      jumpi\n      0x0100\n      dup1\n      dup4\n      sload\n      div\n      mul\n      dup4\n      mstore\n      swap2\n      0x20\n      add\n      swap2\n      jump(tag_165)\n    tag_166:\n      dup3\n      add\n      swap2\n      swap1\n      0x00\n      mstore\n      keccak256(0x00, 0x20)\n      swap1\n    tag_167:\n      dup2\n      sload\n      dup2\n      mstore\n      swap1\n      0x01\n      add\n      swap1\n      0x20\n      add\n      dup1\n      dup4\n      gt\n      tag_167\n      jumpi\n      dup3\n      swap1\n      sub\n      0x1f\n      and\n      dup3\n      add\n      swap2\n    tag_165:\n      pop\n      pop\n      pop\n      pop\n      pop\n      dup2\n      mstore\n      0x20\n      add\n      0x03\n      dup3\n      add\n      sload\n      dup2\n      mstore\n      0x20\n      add\n      0x04\n      dup3\n      add\n      sload\n      dup2\n      mstore\n      pop\n      pop\n      swap1\n      pop\n        /* \"contracts/Twitter.sol\":2464:2572  function getTweet(uint _i) public view returns (Tweet memory){... */\n      swap2\n      swap1\n      pop\n      jump\t// out\n        /* \"@openzeppelin/contracts/access/Ownable.sol\":2543:2758  function transferOwnership(address newOwner) public virtual onlyOwner {... */\n    tag_71:\n        /* \"@openzeppelin/contracts/access/Ownable.sol\":1531:1544  _checkOwner() */\n      tag_169\n        /* \"@openzeppelin/contracts/access/Ownable.sol\":1531:1542  _checkOwner */\n      tag_115\n        /* \"@openzeppelin/contracts/access/Ownable.sol\":1531:1544  _checkOwner() */\n      jump\t// in\n    tag_169:\n        /* \"@openzeppelin/contracts/access/Ownable.sol\":2647:2648  0 */\n      0x00\n        /* \"@openzeppelin/contracts/access/Ownable.sol\":2627:2649  newOwner == address(0) */\n      0xffffffffffffffffffffffffffffffffffffffff\n      and\n        /* \"@openzeppelin/contracts/access/Ownable.sol\":2627:2635  newOwner */\n      dup2\n        /* \"@openzeppelin/contracts/access/Ownable.sol\":2627:2649  newOwner == address(0) */\n      0xffffffffffffffffffffffffffffffffffffffff\n      and\n      sub\n        /* \"@openzeppelin/contracts/access/Ownable.sol\":2623:2714  if (newOwner == address(0)) {... */\n      tag_171\n      jumpi\n        /* \"@openzeppelin/contracts/access/Ownable.sol\":2700:2701  0 */\n      0x00\n        /* \"@openzeppelin/contracts/access/Ownable.sol\":2672:2703  OwnableInvalidOwner(address(0)) */\n      mload(0x40)\n      0x1e4fbdf700000000000000000000000000000000000000000000000000000000\n      dup2\n      mstore\n      0x04\n      add\n      tag_172\n      swap2\n      swap1\n      tag_58\n      jump\t// in\n    tag_172:\n      mload(0x40)\n      dup1\n      swap2\n      sub\n      swap1\n      revert\n        /* \"@openzeppelin/contracts/access/Ownable.sol\":2623:2714  if (newOwner == address(0)) {... */\n    tag_171:\n        /* \"@openzeppelin/contracts/access/Ownable.sol\":2723:2751  _transferOwnership(newOwner) */\n      tag_173\n        /* \"@openzeppelin/contracts/access/Ownable.sol\":2742:2750  newOwner */\n      dup2\n        /* \"@openzeppelin/contracts/access/Ownable.sol\":2723:2741  _transferOwnership */\n      tag_137\n        /* \"@openzeppelin/contracts/access/Ownable.sol\":2723:2751  _transferOwnership(newOwner) */\n      jump\t// in\n    tag_173:\n        /* \"@openzeppelin/contracts/access/Ownable.sol\":2543:2758  function transferOwnership(address newOwner) public virtual onlyOwner {... */\n      pop\n      jump\t// out\n        /* \"@openzeppelin/contracts/access/Ownable.sol\":1796:1958  function _checkOwner() internal view virtual {... */\n    tag_115:\n        /* \"@openzeppelin/contracts/access/Ownable.sol\":1866:1878  _msgSender() */\n      tag_175\n        /* \"@openzeppelin/contracts/access/Ownable.sol\":1866:1876  _msgSender */\n      tag_176\n        /* \"@openzeppelin/contracts/access/Ownable.sol\":1866:1878  _msgSender() */\n      jump\t// in\n    tag_175:\n        /* \"@openzeppelin/contracts/access/Ownable.sol\":1855:1878  owner() != _msgSender() */\n      0xffffffffffffffffffffffffffffffffffffffff\n      and\n        /* \"@openzeppelin/contracts/access/Ownable.sol\":1855:1862  owner() */\n      tag_177\n        /* \"@openzeppelin/contracts/access/Ownable.sol\":1855:1860  owner */\n      tag_56\n        /* \"@openzeppelin/contracts/access/Ownable.sol\":1855:1862  owner() */\n      jump\t// in\n    tag_177:\n        /* \"@openzeppelin/contracts/access/Ownable.sol\":1855:1878  owner() != _msgSender() */\n      0xffffffffffffffffffffffffffffffffffffffff\n      and\n      eq\n        /* \"@openzeppelin/contracts/access/Ownable.sol\":1851:1952  if (owner() != _msgSender()) {... */\n      tag_178\n      jumpi\n        /* \"@openzeppelin/contracts/access/Ownable.sol\":1928:1940  _msgSender() */\n      tag_179\n        /* \"@openzeppelin/contracts/access/Ownable.sol\":1928:1938  _msgSender */\n      tag_176\n        /* \"@openzeppelin/contracts/access/Ownable.sol\":1928:1940  _msgSender() */\n      jump\t// in\n    tag_179:\n        /* \"@openzeppelin/contracts/access/Ownable.sol\":1901:1941  OwnableUnauthorizedAccount(_msgSender()) */\n      mload(0x40)\n      0x118cdaa700000000000000000000000000000000000000000000000000000000\n      dup2\n      mstore\n      0x04\n      add\n      tag_180\n      swap2\n      swap1\n      tag_58\n      jump\t// in\n    tag_180:\n      mload(0x40)\n      dup1\n      swap2\n      sub\n      swap1\n      revert\n        /* \"@openzeppelin/contracts/access/Ownable.sol\":1851:1952  if (owner() != _msgSender()) {... */\n    tag_178:\n        /* \"@openzeppelin/contracts/access/Ownable.sol\":1796:1958  function _checkOwner() internal view virtual {... */\n      jump\t// out\n        /* \"@openzeppelin/contracts/access/Ownable.sol\":2912:3099  function _transferOwnership(address newOwner) internal virtual {... */\n    tag_137:\n        /* \"@openzeppelin/contracts/access/Ownable.sol\":2985:3001  address oldOwner */\n      0x00\n        /* \"@openzeppelin/contracts/access/Ownable.sol\":3004:3010  _owner */\n      0x00\n      0x00\n      swap1\n      sload\n      swap1\n      0x0100\n      exp\n      swap1\n      div\n      0xffffffffffffffffffffffffffffffffffffffff\n      and\n        /* \"@openzeppelin/contracts/access/Ownable.sol\":2985:3010  address oldOwner = _owner */\n      swap1\n      pop\n        /* \"@openzeppelin/contracts/access/Ownable.sol\":3029:3037  newOwner */\n      dup2\n        /* \"@openzeppelin/contracts/access/Ownable.sol\":3020:3026  _owner */\n      0x00\n      0x00\n        /* \"@openzeppelin/contracts/access/Ownable.sol\":3020:3037  _owner = newOwner */\n      0x0100\n      exp\n      dup2\n      sload\n      dup2\n      0xffffffffffffffffffffffffffffffffffffffff\n      mul\n      not\n      and\n      swap1\n      dup4\n      0xffffffffffffffffffffffffffffffffffffffff\n      and\n      mul\n      or\n      swap1\n      sstore\n      pop\n        /* \"@openzeppelin/contracts/access/Ownable.sol\":3083:3091  newOwner */\n      dup2\n        /* \"@openzeppelin/contracts/access/Ownable.sol\":3052:3092  OwnershipTransferred(oldOwner, newOwner) */\n      0xffffffffffffffffffffffffffffffffffffffff\n      and\n        /* \"@openzeppelin/contracts/access/Ownable.sol\":3073:3081  oldOwner */\n      dup2\n        /* \"@openzeppelin/contracts/access/Ownable.sol\":3052:3092  OwnershipTransferred(oldOwner, newOwner) */\n      0xffffffffffffffffffffffffffffffffffffffff\n      and\n      0x8be0079c531659141344cd1fd0a4f28419497f9722a3daafe3b4186f6b6457e0\n      mload(0x40)\n      mload(0x40)\n      dup1\n      swap2\n      sub\n      swap1\n      log3\n        /* \"@openzeppelin/contracts/access/Ownable.sol\":2975:3099  {... */\n      pop\n        /* \"@openzeppelin/contracts/access/Ownable.sol\":2912:3099  function _transferOwnership(address newOwner) internal virtual {... */\n      pop\n      jump\t// out\n        /* \"@openzeppelin/contracts/utils/Context.sol\":656:752  function _msgSender() internal view virtual returns (address) {... */\n    tag_176:\n        /* \"@openzeppelin/contracts/utils/Context.sol\":709:716  address */\n      0x00\n        /* \"@openzeppelin/contracts/utils/Context.sol\":735:745  msg.sender */\n      caller\n        /* \"@openzeppelin/contracts/utils/Context.sol\":728:745  return msg.sender */\n      swap1\n      pop\n        /* \"@openzeppelin/contracts/utils/Context.sol\":656:752  function _msgSender() internal view virtual returns (address) {... */\n      swap1\n      jump\t// out\n    tag_158:\n      mload(0x40)\n      dup1\n      0xa0\n      add\n      0x40\n      mstore\n      dup1\n      0x00\n      dup2\n      mstore\n      0x20\n      add\n      and(0xffffffffffffffffffffffffffffffffffffffff, 0x00)\n      dup2\n      mstore\n      0x20\n      add\n      0x60\n      dup2\n      mstore\n      0x20\n      add\n      0x00\n      dup2\n      mstore\n      0x20\n      add\n      0x00\n      dup2\n      mstore\n      pop\n      swap1\n      jump\t// out\n        /* \"#utility.yul\":7:82   */\n    tag_183:\n        /* \"#utility.yul\":40:46   */\n      0x00\n        /* \"#utility.yul\":73:75   */\n      0x40\n        /* \"#utility.yul\":67:76   */\n      mload\n        /* \"#utility.yul\":57:76   */\n      swap1\n      pop\n        /* \"#utility.yul\":7:82   */\n      swap1\n      jump\t// out\n        /* \"#utility.yul\":88:205   */\n    tag_184:\n        /* \"#utility.yul\":197:198   */\n      0x00\n        /* \"#utility.yul\":194:195   */\n      0x00\n        /* \"#utility.yul\":187:199   */\n      revert\n        /* \"#utility.yul\":211:328   */\n    tag_185:\n        /* \"#utility.yul\":320:321   */\n      0x00\n        /* \"#utility.yul\":317:318   */\n      0x00\n        /* \"#utility.yul\":310:322   */\n      revert\n        /* \"#utility.yul\":334:460   */\n    tag_186:\n        /* \"#utility.yul\":371:378   */\n      0x00\n        /* \"#utility.yul\":411:453   */\n      0xffffffffffffffffffffffffffffffffffffffff\n        /* \"#utility.yul\":404:409   */\n      dup3\n        /* \"#utility.yul\":400:454   */\n      and\n        /* \"#utility.yul\":389:454   */\n      swap1\n      pop\n        /* \"#utility.yul\":334:460   */\n      swap2\n      swap1\n      pop\n      jump\t// out\n        /* \"#utility.yul\":466:562   */\n    tag_187:\n        /* \"#utility.yul\":503:510   */\n      0x00\n        /* \"#utility.yul\":532:556   */\n      tag_260\n        /* \"#utility.yul\":550:555   */\n      dup3\n        /* \"#utility.yul\":532:556   */\n      tag_186\n      jump\t// in\n    tag_260:\n        /* \"#utility.yul\":521:556   */\n      swap1\n      pop\n        /* \"#utility.yul\":466:562   */\n      swap2\n      swap1\n      pop\n      jump\t// out\n        /* \"#utility.yul\":568:690   */\n    tag_188:\n        /* \"#utility.yul\":641:665   */\n      tag_262\n        /* \"#utility.yul\":659:664   */\n      dup2\n        /* \"#utility.yul\":641:665   */\n      tag_187\n      jump\t// in\n    tag_262:\n        /* \"#utility.yul\":634:639   */\n      dup2\n        /* \"#utility.yul\":631:666   */\n      eq\n        /* \"#utility.yul\":621:684   */\n      tag_263\n      jumpi\n        /* \"#utility.yul\":680:681   */\n      0x00\n        /* \"#utility.yul\":677:678   */\n      0x00\n        /* \"#utility.yul\":670:682   */\n      revert\n        /* \"#utility.yul\":621:684   */\n    tag_263:\n        /* \"#utility.yul\":568:690   */\n      pop\n      jump\t// out\n        /* \"#utility.yul\":696:835   */\n    tag_189:\n        /* \"#utility.yul\":742:747   */\n      0x00\n        /* \"#utility.yul\":780:786   */\n      dup2\n        /* \"#utility.yul\":767:787   */\n      calldataload\n        /* \"#utility.yul\":758:787   */\n      swap1\n      pop\n        /* \"#utility.yul\":796:829   */\n      tag_265\n        /* \"#utility.yul\":823:828   */\n      dup2\n        /* \"#utility.yul\":796:829   */\n      tag_188\n      jump\t// in\n    tag_265:\n        /* \"#utility.yul\":696:835   */\n      swap3\n      swap2\n      pop\n      pop\n      jump\t// out\n        /* \"#utility.yul\":841:918   */\n    tag_190:\n        /* \"#utility.yul\":878:885   */\n      0x00\n        /* \"#utility.yul\":907:912   */\n      dup2\n        /* \"#utility.yul\":896:912   */\n      swap1\n      pop\n        /* \"#utility.yul\":841:918   */\n      swap2\n      swap1\n      pop\n      jump\t// out\n        /* \"#utility.yul\":924:1046   */\n    tag_191:\n        /* \"#utility.yul\":997:1021   */\n      tag_268\n        /* \"#utility.yul\":1015:1020   */\n      dup2\n        /* \"#utility.yul\":997:1021   */\n      tag_190\n      jump\t// in\n    tag_268:\n        /* \"#utility.yul\":990:995   */\n      dup2\n        /* \"#utility.yul\":987:1022   */\n      eq\n        /* \"#utility.yul\":977:1040   */\n      tag_269\n      jumpi\n        /* \"#utility.yul\":1036:1037   */\n      0x00\n        /* \"#utility.yul\":1033:1034   */\n      0x00\n        /* \"#utility.yul\":1026:1038   */\n      revert\n        /* \"#utility.yul\":977:1040   */\n    tag_269:\n        /* \"#utility.yul\":924:1046   */\n      pop\n      jump\t// out\n        /* \"#utility.yul\":1052:1191   */\n    tag_192:\n        /* \"#utility.yul\":1098:1103   */\n      0x00\n        /* \"#utility.yul\":1136:1142   */\n      dup2\n        /* \"#utility.yul\":1123:1143   */\n      calldataload\n        /* \"#utility.yul\":1114:1143   */\n      swap1\n      pop\n        /* \"#utility.yul\":1152:1185   */\n      tag_271\n        /* \"#utility.yul\":1179:1184   */\n      dup2\n        /* \"#utility.yul\":1152:1185   */\n      tag_191\n      jump\t// in\n    tag_271:\n        /* \"#utility.yul\":1052:1191   */\n      swap3\n      swap2\n      pop\n      pop\n      jump\t// out\n        /* \"#utility.yul\":1197:1671   */\n    tag_20:\n        /* \"#utility.yul\":1265:1271   */\n      0x00\n        /* \"#utility.yul\":1273:1279   */\n      0x00\n        /* \"#utility.yul\":1322:1324   */\n      0x40\n        /* \"#utility.yul\":1310:1319   */\n      dup4\n        /* \"#utility.yul\":1301:1308   */\n      dup6\n        /* \"#utility.yul\":1297:1320   */\n      sub\n        /* \"#utility.yul\":1293:1325   */\n      slt\n        /* \"#utility.yul\":1290:1409   */\n      iszero\n      tag_273\n      jumpi\n        /* \"#utility.yul\":1328:1407   */\n      tag_274\n      tag_184\n      jump\t// in\n    tag_274:\n        /* \"#utility.yul\":1290:1409   */\n    tag_273:\n        /* \"#utility.yul\":1448:1449   */\n      0x00\n        /* \"#utility.yul\":1473:1526   */\n      tag_275\n        /* \"#utility.yul\":1518:1525   */\n      dup6\n        /* \"#utility.yul\":1509:1515   */\n      dup3\n        /* \"#utility.yul\":1498:1507   */\n      dup7\n        /* \"#utility.yul\":1494:1516   */\n      add\n        /* \"#utility.yul\":1473:1526   */\n      tag_189\n      jump\t// in\n    tag_275:\n        /* \"#utility.yul\":1463:1526   */\n      swap3\n      pop\n        /* \"#utility.yul\":1419:1536   */\n      pop\n        /* \"#utility.yul\":1575:1577   */\n      0x20\n        /* \"#utility.yul\":1601:1654   */\n      tag_276\n        /* \"#utility.yul\":1646:1653   */\n      dup6\n        /* \"#utility.yul\":1637:1643   */\n      dup3\n        /* \"#utility.yul\":1626:1635   */\n      dup7\n        /* \"#utility.yul\":1622:1644   */\n      add\n        /* \"#utility.yul\":1601:1654   */\n      tag_192\n      jump\t// in\n    tag_276:\n        /* \"#utility.yul\":1591:1654   */\n      swap2\n      pop\n        /* \"#utility.yul\":1546:1664   */\n      pop\n        /* \"#utility.yul\":1197:1671   */\n      swap3\n      pop\n      swap3\n      swap1\n      pop\n      jump\t// out\n        /* \"#utility.yul\":1677:1795   */\n    tag_193:\n        /* \"#utility.yul\":1764:1788   */\n      tag_278\n        /* \"#utility.yul\":1782:1787   */\n      dup2\n        /* \"#utility.yul\":1764:1788   */\n      tag_190\n      jump\t// in\n    tag_278:\n        /* \"#utility.yul\":1759:1762   */\n      dup3\n        /* \"#utility.yul\":1752:1789   */\n      mstore\n        /* \"#utility.yul\":1677:1795   */\n      pop\n      pop\n      jump\t// out\n        /* \"#utility.yul\":1801:1919   */\n    tag_194:\n        /* \"#utility.yul\":1888:1912   */\n      tag_280\n        /* \"#utility.yul\":1906:1911   */\n      dup2\n        /* \"#utility.yul\":1888:1912   */\n      tag_187\n      jump\t// in\n    tag_280:\n        /* \"#utility.yul\":1883:1886   */\n      dup3\n        /* \"#utility.yul\":1876:1913   */\n      mstore\n        /* \"#utility.yul\":1801:1919   */\n      pop\n      pop\n      jump\t// out\n        /* \"#utility.yul\":1925:2024   */\n    tag_195:\n        /* \"#utility.yul\":1977:1983   */\n      0x00\n        /* \"#utility.yul\":2011:2016   */\n      dup2\n        /* \"#utility.yul\":2005:2017   */\n      mload\n        /* \"#utility.yul\":1995:2017   */\n      swap1\n      pop\n        /* \"#utility.yul\":1925:2024   */\n      swap2\n      swap1\n      pop\n      jump\t// out\n        /* \"#utility.yul\":2030:2199   */\n    tag_196:\n        /* \"#utility.yul\":2114:2125   */\n      0x00\n        /* \"#utility.yul\":2148:2154   */\n      dup3\n        /* \"#utility.yul\":2143:2146   */\n      dup3\n        /* \"#utility.yul\":2136:2155   */\n      mstore\n        /* \"#utility.yul\":2188:2192   */\n      0x20\n        /* \"#utility.yul\":2183:2186   */\n      dup3\n        /* \"#utility.yul\":2179:2193   */\n      add\n        /* \"#utility.yul\":2164:2193   */\n      swap1\n      pop\n        /* \"#utility.yul\":2030:2199   */\n      swap3\n      swap2\n      pop\n      pop\n      jump\t// out\n        /* \"#utility.yul\":2205:2344   */\n    tag_197:\n        /* \"#utility.yul\":2294:2300   */\n      dup3\n        /* \"#utility.yul\":2289:2292   */\n      dup2\n        /* \"#utility.yul\":2284:2287   */\n      dup4\n        /* \"#utility.yul\":2278:2301   */\n      mcopy\n        /* \"#utility.yul\":2335:2336   */\n      0x00\n        /* \"#utility.yul\":2326:2332   */\n      dup4\n        /* \"#utility.yul\":2321:2324   */\n      dup4\n        /* \"#utility.yul\":2317:2333   */\n      add\n        /* \"#utility.yul\":2310:2337   */\n      mstore\n        /* \"#utility.yul\":2205:2344   */\n      pop\n      pop\n      pop\n      jump\t// out\n        /* \"#utility.yul\":2350:2452   */\n    tag_198:\n        /* \"#utility.yul\":2391:2397   */\n      0x00\n        /* \"#utility.yul\":2442:2444   */\n      0x1f\n        /* \"#utility.yul\":2438:2445   */\n      not\n        /* \"#utility.yul\":2433:2435   */\n      0x1f\n        /* \"#utility.yul\":2426:2431   */\n      dup4\n        /* \"#utility.yul\":2422:2436   */\n      add\n        /* \"#utility.yul\":2418:2446   */\n      and\n        /* \"#utility.yul\":2408:2446   */\n      swap1\n      pop\n        /* \"#utility.yul\":2350:2452   */\n      swap2\n      swap1\n      pop\n      jump\t// out\n        /* \"#utility.yul\":2458:2835   */\n    tag_199:\n        /* \"#utility.yul\":2546:2549   */\n      0x00\n        /* \"#utility.yul\":2574:2613   */\n      tag_286\n        /* \"#utility.yul\":2607:2612   */\n      dup3\n        /* \"#utility.yul\":2574:2613   */\n      tag_195\n      jump\t// in\n    tag_286:\n        /* \"#utility.yul\":2629:2700   */\n      tag_287\n        /* \"#utility.yul\":2693:2699   */\n      dup2\n        /* \"#utility.yul\":2688:2691   */\n      dup6\n        /* \"#utility.yul\":2629:2700   */\n      tag_196\n      jump\t// in\n    tag_287:\n        /* \"#utility.yul\":2622:2700   */\n      swap4\n      pop\n        /* \"#utility.yul\":2709:2774   */\n      tag_288\n        /* \"#utility.yul\":2767:2773   */\n      dup2\n        /* \"#utility.yul\":2762:2765   */\n      dup6\n        /* \"#utility.yul\":2755:2759   */\n      0x20\n        /* \"#utility.yul\":2748:2753   */\n      dup7\n        /* \"#utility.yul\":2744:2760   */\n      add\n        /* \"#utility.yul\":2709:2774   */\n      tag_197\n      jump\t// in\n    tag_288:\n        /* \"#utility.yul\":2799:2828   */\n      tag_289\n        /* \"#utility.yul\":2821:2827   */\n      dup2\n        /* \"#utility.yul\":2799:2828   */\n      tag_198\n      jump\t// in\n    tag_289:\n        /* \"#utility.yul\":2794:2797   */\n      dup5\n        /* \"#utility.yul\":2790:2829   */\n      add\n        /* \"#utility.yul\":2783:2829   */\n      swap2\n      pop\n        /* \"#utility.yul\":2550:2835   */\n      pop\n        /* \"#utility.yul\":2458:2835   */\n      swap3\n      swap2\n      pop\n      pop\n      jump\t// out\n        /* \"#utility.yul\":2841:3596   */\n    tag_23:\n        /* \"#utility.yul\":3066:3070   */\n      0x00\n        /* \"#utility.yul\":3104:3107   */\n      0xa0\n        /* \"#utility.yul\":3093:3102   */\n      dup3\n        /* \"#utility.yul\":3089:3108   */\n      add\n        /* \"#utility.yul\":3081:3108   */\n      swap1\n      pop\n        /* \"#utility.yul\":3118:3189   */\n      tag_291\n        /* \"#utility.yul\":3186:3187   */\n      0x00\n        /* \"#utility.yul\":3175:3184   */\n      dup4\n        /* \"#utility.yul\":3171:3188   */\n      add\n        /* \"#utility.yul\":3162:3168   */\n      dup9\n        /* \"#utility.yul\":3118:3189   */\n      tag_193\n      jump\t// in\n    tag_291:\n        /* \"#utility.yul\":3199:3271   */\n      tag_292\n        /* \"#utility.yul\":3267:3269   */\n      0x20\n        /* \"#utility.yul\":3256:3265   */\n      dup4\n        /* \"#utility.yul\":3252:3270   */\n      add\n        /* \"#utility.yul\":3243:3249   */\n      dup8\n        /* \"#utility.yul\":3199:3271   */\n      tag_194\n      jump\t// in\n    tag_292:\n        /* \"#utility.yul\":3318:3327   */\n      dup2\n        /* \"#utility.yul\":3312:3316   */\n      dup2\n        /* \"#utility.yul\":3308:3328   */\n      sub\n        /* \"#utility.yul\":3303:3305   */\n      0x40\n        /* \"#utility.yul\":3292:3301   */\n      dup4\n        /* \"#utility.yul\":3288:3306   */\n      add\n        /* \"#utility.yul\":3281:3329   */\n      mstore\n        /* \"#utility.yul\":3346:3424   */\n      tag_293\n        /* \"#utility.yul\":3419:3423   */\n      dup2\n        /* \"#utility.yul\":3410:3416   */\n      dup7\n        /* \"#utility.yul\":3346:3424   */\n      tag_199\n      jump\t// in\n    tag_293:\n        /* \"#utility.yul\":3338:3424   */\n      swap1\n      pop\n        /* \"#utility.yul\":3434:3506   */\n      tag_294\n        /* \"#utility.yul\":3502:3504   */\n      0x60\n        /* \"#utility.yul\":3491:3500   */\n      dup4\n        /* \"#utility.yul\":3487:3505   */\n      add\n        /* \"#utility.yul\":3478:3484   */\n      dup6\n        /* \"#utility.yul\":3434:3506   */\n      tag_193\n      jump\t// in\n    tag_294:\n        /* \"#utility.yul\":3516:3589   */\n      tag_295\n        /* \"#utility.yul\":3584:3587   */\n      0x80\n        /* \"#utility.yul\":3573:3582   */\n      dup4\n        /* \"#utility.yul\":3569:3588   */\n      add\n        /* \"#utility.yul\":3560:3566   */\n      dup5\n        /* \"#utility.yul\":3516:3589   */\n      tag_193\n      jump\t// in\n    tag_295:\n        /* \"#utility.yul\":2841:3596   */\n      swap7\n      swap6\n      pop\n      pop\n      pop\n      pop\n      pop\n      pop\n      jump\t// out\n        /* \"#utility.yul\":3602:3931   */\n    tag_26:\n        /* \"#utility.yul\":3661:3667   */\n      0x00\n        /* \"#utility.yul\":3710:3712   */\n      0x20\n        /* \"#utility.yul\":3698:3707   */\n      dup3\n        /* \"#utility.yul\":3689:3696   */\n      dup5\n        /* \"#utility.yul\":3685:3708   */\n      sub\n        /* \"#utility.yul\":3681:3713   */\n      slt\n        /* \"#utility.yul\":3678:3797   */\n      iszero\n      tag_297\n      jumpi\n        /* \"#utility.yul\":3716:3795   */\n      tag_298\n      tag_184\n      jump\t// in\n    tag_298:\n        /* \"#utility.yul\":3678:3797   */\n    tag_297:\n        /* \"#utility.yul\":3836:3837   */\n      0x00\n        /* \"#utility.yul\":3861:3914   */\n      tag_299\n        /* \"#utility.yul\":3906:3913   */\n      dup5\n        /* \"#utility.yul\":3897:3903   */\n      dup3\n        /* \"#utility.yul\":3886:3895   */\n      dup6\n        /* \"#utility.yul\":3882:3904   */\n      add\n        /* \"#utility.yul\":3861:3914   */\n      tag_189\n      jump\t// in\n    tag_299:\n        /* \"#utility.yul\":3851:3914   */\n      swap2\n      pop\n        /* \"#utility.yul\":3807:3924   */\n      pop\n        /* \"#utility.yul\":3602:3931   */\n      swap3\n      swap2\n      pop\n      pop\n      jump\t// out\n        /* \"#utility.yul\":3937:4073   */\n    tag_200:\n        /* \"#utility.yul\":4026:4032   */\n      0x00\n        /* \"#utility.yul\":4060:4065   */\n      dup2\n        /* \"#utility.yul\":4054:4066   */\n      mload\n        /* \"#utility.yul\":4044:4066   */\n      swap1\n      pop\n        /* \"#utility.yul\":3937:4073   */\n      swap2\n      swap1\n      pop\n      jump\t// out\n        /* \"#utility.yul\":4079:4285   */\n    tag_201:\n        /* \"#utility.yul\":4200:4211   */\n      0x00\n        /* \"#utility.yul\":4234:4240   */\n      dup3\n        /* \"#utility.yul\":4229:4232   */\n      dup3\n        /* \"#utility.yul\":4222:4241   */\n      mstore\n        /* \"#utility.yul\":4274:4278   */\n      0x20\n        /* \"#utility.yul\":4269:4272   */\n      dup3\n        /* \"#utility.yul\":4265:4279   */\n      add\n        /* \"#utility.yul\":4250:4279   */\n      swap1\n      pop\n        /* \"#utility.yul\":4079:4285   */\n      swap3\n      swap2\n      pop\n      pop\n      jump\t// out\n        /* \"#utility.yul\":4291:4445   */\n    tag_202:\n        /* \"#utility.yul\":4380:4384   */\n      0x00\n        /* \"#utility.yul\":4403:4406   */\n      dup2\n        /* \"#utility.yul\":4395:4406   */\n      swap1\n      pop\n        /* \"#utility.yul\":4433:4437   */\n      0x20\n        /* \"#utility.yul\":4428:4431   */\n      dup3\n        /* \"#utility.yul\":4424:4438   */\n      add\n        /* \"#utility.yul\":4416:4438   */\n      swap1\n      pop\n        /* \"#utility.yul\":4291:4445   */\n      swap2\n      swap1\n      pop\n      jump\t// out\n        /* \"#utility.yul\":4451:4559   */\n    tag_203:\n        /* \"#utility.yul\":4528:4552   */\n      tag_304\n        /* \"#utility.yul\":4546:4551   */\n      dup2\n        /* \"#utility.yul\":4528:4552   */\n      tag_190\n      jump\t// in\n    tag_304:\n        /* \"#utility.yul\":4523:4526   */\n      dup3\n        /* \"#utility.yul\":4516:4553   */\n      mstore\n        /* \"#utility.yul\":4451:4559   */\n      pop\n      pop\n      jump\t// out\n        /* \"#utility.yul\":4565:4673   */\n    tag_204:\n        /* \"#utility.yul\":4642:4666   */\n      tag_306\n        /* \"#utility.yul\":4660:4665   */\n      dup2\n        /* \"#utility.yul\":4642:4666   */\n      tag_187\n      jump\t// in\n    tag_306:\n        /* \"#utility.yul\":4637:4640   */\n      dup3\n        /* \"#utility.yul\":4630:4667   */\n      mstore\n        /* \"#utility.yul\":4565:4673   */\n      pop\n      pop\n      jump\t// out\n        /* \"#utility.yul\":4679:4838   */\n    tag_205:\n        /* \"#utility.yul\":4753:4764   */\n      0x00\n        /* \"#utility.yul\":4787:4793   */\n      dup3\n        /* \"#utility.yul\":4782:4785   */\n      dup3\n        /* \"#utility.yul\":4775:4794   */\n      mstore\n        /* \"#utility.yul\":4827:4831   */\n      0x20\n        /* \"#utility.yul\":4822:4825   */\n      dup3\n        /* \"#utility.yul\":4818:4832   */\n      add\n        /* \"#utility.yul\":4803:4832   */\n      swap1\n      pop\n        /* \"#utility.yul\":4679:4838   */\n      swap3\n      swap2\n      pop\n      pop\n      jump\t// out\n        /* \"#utility.yul\":4844:5201   */\n    tag_206:\n        /* \"#utility.yul\":4922:4925   */\n      0x00\n        /* \"#utility.yul\":4950:4989   */\n      tag_309\n        /* \"#utility.yul\":4983:4988   */\n      dup3\n        /* \"#utility.yul\":4950:4989   */\n      tag_195\n      jump\t// in\n    tag_309:\n        /* \"#utility.yul\":5005:5066   */\n      tag_310\n        /* \"#utility.yul\":5059:5065   */\n      dup2\n        /* \"#utility.yul\":5054:5057   */\n      dup6\n        /* \"#utility.yul\":5005:5066   */\n      tag_205\n      jump\t// in\n    tag_310:\n        /* \"#utility.yul\":4998:5066   */\n      swap4\n      pop\n        /* \"#utility.yul\":5075:5140   */\n      tag_311\n        /* \"#utility.yul\":5133:5139   */\n      dup2\n        /* \"#utility.yul\":5128:5131   */\n      dup6\n        /* \"#utility.yul\":5121:5125   */\n      0x20\n        /* \"#utility.yul\":5114:5119   */\n      dup7\n        /* \"#utility.yul\":5110:5126   */\n      add\n        /* \"#utility.yul\":5075:5140   */\n      tag_197\n      jump\t// in\n    tag_311:\n        /* \"#utility.yul\":5165:5194   */\n      tag_312\n        /* \"#utility.yul\":5187:5193   */\n      dup2\n        /* \"#utility.yul\":5165:5194   */\n      tag_198\n      jump\t// in\n    tag_312:\n        /* \"#utility.yul\":5160:5163   */\n      dup5\n        /* \"#utility.yul\":5156:5195   */\n      add\n        /* \"#utility.yul\":5149:5195   */\n      swap2\n      pop\n        /* \"#utility.yul\":4926:5201   */\n      pop\n        /* \"#utility.yul\":4844:5201   */\n      swap3\n      swap2\n      pop\n      pop\n      jump\t// out\n        /* \"#utility.yul\":5259:6380   */\n    tag_207:\n        /* \"#utility.yul\":5362:5365   */\n      0x00\n        /* \"#utility.yul\":5398:5402   */\n      0xa0\n        /* \"#utility.yul\":5393:5396   */\n      dup4\n        /* \"#utility.yul\":5389:5403   */\n      add\n        /* \"#utility.yul\":5483:5487   */\n      0x00\n        /* \"#utility.yul\":5476:5481   */\n      dup4\n        /* \"#utility.yul\":5472:5488   */\n      add\n        /* \"#utility.yul\":5466:5489   */\n      mload\n        /* \"#utility.yul\":5502:5565   */\n      tag_314\n        /* \"#utility.yul\":5559:5563   */\n      0x00\n        /* \"#utility.yul\":5554:5557   */\n      dup7\n        /* \"#utility.yul\":5550:5564   */\n      add\n        /* \"#utility.yul\":5536:5548   */\n      dup3\n        /* \"#utility.yul\":5502:5565   */\n      tag_203\n      jump\t// in\n    tag_314:\n        /* \"#utility.yul\":5413:5575   */\n      pop\n        /* \"#utility.yul\":5659:5663   */\n      0x20\n        /* \"#utility.yul\":5652:5657   */\n      dup4\n        /* \"#utility.yul\":5648:5664   */\n      add\n        /* \"#utility.yul\":5642:5665   */\n      mload\n        /* \"#utility.yul\":5678:5741   */\n      tag_315\n        /* \"#utility.yul\":5735:5739   */\n      0x20\n        /* \"#utility.yul\":5730:5733   */\n      dup7\n        /* \"#utility.yul\":5726:5740   */\n      add\n        /* \"#utility.yul\":5712:5724   */\n      dup3\n        /* \"#utility.yul\":5678:5741   */\n      tag_204\n      jump\t// in\n    tag_315:\n        /* \"#utility.yul\":5585:5751   */\n      pop\n        /* \"#utility.yul\":5836:5840   */\n      0x40\n        /* \"#utility.yul\":5829:5834   */\n      dup4\n        /* \"#utility.yul\":5825:5841   */\n      add\n        /* \"#utility.yul\":5819:5842   */\n      mload\n        /* \"#utility.yul\":5889:5892   */\n      dup5\n        /* \"#utility.yul\":5883:5887   */\n      dup3\n        /* \"#utility.yul\":5879:5893   */\n      sub\n        /* \"#utility.yul\":5872:5876   */\n      0x40\n        /* \"#utility.yul\":5867:5870   */\n      dup7\n        /* \"#utility.yul\":5863:5877   */\n      add\n        /* \"#utility.yul\":5856:5894   */\n      mstore\n        /* \"#utility.yul\":5915:5988   */\n      tag_316\n        /* \"#utility.yul\":5983:5987   */\n      dup3\n        /* \"#utility.yul\":5969:5981   */\n      dup3\n        /* \"#utility.yul\":5915:5988   */\n      tag_206\n      jump\t// in\n    tag_316:\n        /* \"#utility.yul\":5907:5988   */\n      swap2\n      pop\n        /* \"#utility.yul\":5761:5999   */\n      pop\n        /* \"#utility.yul\":6086:6090   */\n      0x60\n        /* \"#utility.yul\":6079:6084   */\n      dup4\n        /* \"#utility.yul\":6075:6091   */\n      add\n        /* \"#utility.yul\":6069:6092   */\n      mload\n        /* \"#utility.yul\":6105:6168   */\n      tag_317\n        /* \"#utility.yul\":6162:6166   */\n      0x60\n        /* \"#utility.yul\":6157:6160   */\n      dup7\n        /* \"#utility.yul\":6153:6167   */\n      add\n        /* \"#utility.yul\":6139:6151   */\n      dup3\n        /* \"#utility.yul\":6105:6168   */\n      tag_203\n      jump\t// in\n    tag_317:\n        /* \"#utility.yul\":6009:6178   */\n      pop\n        /* \"#utility.yul\":6261:6265   */\n      0x80\n        /* \"#utility.yul\":6254:6259   */\n      dup4\n        /* \"#utility.yul\":6250:6266   */\n      add\n        /* \"#utility.yul\":6244:6267   */\n      mload\n        /* \"#utility.yul\":6280:6343   */\n      tag_318\n        /* \"#utility.yul\":6337:6341   */\n      0x80\n        /* \"#utility.yul\":6332:6335   */\n      dup7\n        /* \"#utility.yul\":6328:6342   */\n      add\n        /* \"#utility.yul\":6314:6326   */\n      dup3\n        /* \"#utility.yul\":6280:6343   */\n      tag_203\n      jump\t// in\n    tag_318:\n        /* \"#utility.yul\":6188:6353   */\n      pop\n        /* \"#utility.yul\":6370:6374   */\n      dup1\n        /* \"#utility.yul\":6363:6374   */\n      swap2\n      pop\n        /* \"#utility.yul\":5367:6380   */\n      pop\n        /* \"#utility.yul\":5259:6380   */\n      swap3\n      swap2\n      pop\n      pop\n      jump\t// out\n        /* \"#utility.yul\":6386:6630   */\n    tag_208:\n        /* \"#utility.yul\":6499:6509   */\n      0x00\n        /* \"#utility.yul\":6534:6624   */\n      tag_320\n        /* \"#utility.yul\":6620:6623   */\n      dup4\n        /* \"#utility.yul\":6612:6618   */\n      dup4\n        /* \"#utility.yul\":6534:6624   */\n      tag_207\n      jump\t// in\n    tag_320:\n        /* \"#utility.yul\":6520:6624   */\n      swap1\n      pop\n        /* \"#utility.yul\":6386:6630   */\n      swap3\n      swap2\n      pop\n      pop\n      jump\t// out\n        /* \"#utility.yul\":6636:6771   */\n    tag_209:\n        /* \"#utility.yul\":6728:6732   */\n      0x00\n        /* \"#utility.yul\":6760:6764   */\n      0x20\n        /* \"#utility.yul\":6755:6758   */\n      dup3\n        /* \"#utility.yul\":6751:6765   */\n      add\n        /* \"#utility.yul\":6743:6765   */\n      swap1\n      pop\n        /* \"#utility.yul\":6636:6771   */\n      swap2\n      swap1\n      pop\n      jump\t// out\n        /* \"#utility.yul\":6833:7920   */\n    tag_210:\n        /* \"#utility.yul\":6996:6999   */\n      0x00\n        /* \"#utility.yul\":7025:7101   */\n      tag_323\n        /* \"#utility.yul\":7095:7100   */\n      dup3\n        /* \"#utility.yul\":7025:7101   */\n      tag_200\n      jump\t// in\n    tag_323:\n        /* \"#utility.yul\":7117:7225   */\n      tag_324\n        /* \"#utility.yul\":7218:7224   */\n      dup2\n        /* \"#utility.yul\":7213:7216   */\n      dup6\n        /* \"#utility.yul\":7117:7225   */\n      tag_201\n      jump\t// in\n    tag_324:\n        /* \"#utility.yul\":7110:7225   */\n      swap4\n      pop\n        /* \"#utility.yul\":7251:7254   */\n      dup4\n        /* \"#utility.yul\":7296:7300   */\n      0x20\n        /* \"#utility.yul\":7288:7294   */\n      dup3\n        /* \"#utility.yul\":7284:7301   */\n      mul\n        /* \"#utility.yul\":7279:7282   */\n      dup6\n        /* \"#utility.yul\":7275:7302   */\n      add\n        /* \"#utility.yul\":7326:7404   */\n      tag_325\n        /* \"#utility.yul\":7398:7403   */\n      dup6\n        /* \"#utility.yul\":7326:7404   */\n      tag_202\n      jump\t// in\n    tag_325:\n        /* \"#utility.yul\":7427:7434   */\n      dup1\n        /* \"#utility.yul\":7458:7459   */\n      0x00\n        /* \"#utility.yul\":7443:7875   */\n    tag_326:\n        /* \"#utility.yul\":7468:7474   */\n      dup6\n        /* \"#utility.yul\":7465:7466   */\n      dup2\n        /* \"#utility.yul\":7462:7475   */\n      lt\n        /* \"#utility.yul\":7443:7875   */\n      iszero\n      tag_328\n      jumpi\n        /* \"#utility.yul\":7539:7548   */\n      dup5\n        /* \"#utility.yul\":7533:7537   */\n      dup5\n        /* \"#utility.yul\":7529:7549   */\n      sub\n        /* \"#utility.yul\":7524:7527   */\n      dup10\n        /* \"#utility.yul\":7517:7550   */\n      mstore\n        /* \"#utility.yul\":7590:7596   */\n      dup2\n        /* \"#utility.yul\":7584:7597   */\n      mload\n        /* \"#utility.yul\":7618:7726   */\n      tag_329\n        /* \"#utility.yul\":7721:7725   */\n      dup6\n        /* \"#utility.yul\":7706:7719   */\n      dup3\n        /* \"#utility.yul\":7618:7726   */\n      tag_208\n      jump\t// in\n    tag_329:\n        /* \"#utility.yul\":7610:7726   */\n      swap5\n      pop\n        /* \"#utility.yul\":7749:7831   */\n      tag_330\n        /* \"#utility.yul\":7824:7830   */\n      dup4\n        /* \"#utility.yul\":7749:7831   */\n      tag_209\n      jump\t// in\n    tag_330:\n        /* \"#utility.yul\":7739:7831   */\n      swap3\n      pop\n        /* \"#utility.yul\":7860:7864   */\n      0x20\n        /* \"#utility.yul\":7855:7858   */\n      dup11\n        /* \"#utility.yul\":7851:7865   */\n      add\n        /* \"#utility.yul\":7844:7865   */\n      swap10\n      pop\n        /* \"#utility.yul\":7503:7875   */\n      pop\n        /* \"#utility.yul\":7490:7491   */\n      0x01\n        /* \"#utility.yul\":7487:7488   */\n      dup2\n        /* \"#utility.yul\":7483:7492   */\n      add\n        /* \"#utility.yul\":7478:7492   */\n      swap1\n      pop\n        /* \"#utility.yul\":7443:7875   */\n      jump(tag_326)\n    tag_328:\n        /* \"#utility.yul\":7447:7461   */\n      pop\n        /* \"#utility.yul\":7891:7895   */\n      dup3\n        /* \"#utility.yul\":7884:7895   */\n      swap8\n      pop\n        /* \"#utility.yul\":7911:7914   */\n      dup8\n        /* \"#utility.yul\":7904:7914   */\n      swap6\n      pop\n        /* \"#utility.yul\":7001:7920   */\n      pop\n      pop\n      pop\n      pop\n      pop\n        /* \"#utility.yul\":6833:7920   */\n      swap3\n      swap2\n      pop\n      pop\n      jump\t// out\n        /* \"#utility.yul\":7926:8387   */\n    tag_29:\n        /* \"#utility.yul\":8113:8117   */\n      0x00\n        /* \"#utility.yul\":8151:8153   */\n      0x20\n        /* \"#utility.yul\":8140:8149   */\n      dup3\n        /* \"#utility.yul\":8136:8154   */\n      add\n        /* \"#utility.yul\":8128:8154   */\n      swap1\n      pop\n        /* \"#utility.yul\":8200:8209   */\n      dup2\n        /* \"#utility.yul\":8194:8198   */\n      dup2\n        /* \"#utility.yul\":8190:8210   */\n      sub\n        /* \"#utility.yul\":8186:8187   */\n      0x00\n        /* \"#utility.yul\":8175:8184   */\n      dup4\n        /* \"#utility.yul\":8171:8188   */\n      add\n        /* \"#utility.yul\":8164:8211   */\n      mstore\n        /* \"#utility.yul\":8228:8380   */\n      tag_332\n        /* \"#utility.yul\":8375:8379   */\n      dup2\n        /* \"#utility.yul\":8366:8372   */\n      dup5\n        /* \"#utility.yul\":8228:8380   */\n      tag_210\n      jump\t// in\n    tag_332:\n        /* \"#utility.yul\":8220:8380   */\n      swap1\n      pop\n        /* \"#utility.yul\":7926:8387   */\n      swap3\n      swap2\n      pop\n      pop\n      jump\t// out\n        /* \"#utility.yul\":8393:8482   */\n    tag_211:\n        /* \"#utility.yul\":8429:8436   */\n      0x00\n        /* \"#utility.yul\":8469:8475   */\n      0xffff\n        /* \"#utility.yul\":8462:8467   */\n      dup3\n        /* \"#utility.yul\":8458:8476   */\n      and\n        /* \"#utility.yul\":8447:8476   */\n      swap1\n      pop\n        /* \"#utility.yul\":8393:8482   */\n      swap2\n      swap1\n      pop\n      jump\t// out\n        /* \"#utility.yul\":8488:8608   */\n    tag_212:\n        /* \"#utility.yul\":8560:8583   */\n      tag_335\n        /* \"#utility.yul\":8577:8582   */\n      dup2\n        /* \"#utility.yul\":8560:8583   */\n      tag_211\n      jump\t// in\n    tag_335:\n        /* \"#utility.yul\":8553:8558   */\n      dup2\n        /* \"#utility.yul\":8550:8584   */\n      eq\n        /* \"#utility.yul\":8540:8602   */\n      tag_336\n      jumpi\n        /* \"#utility.yul\":8598:8599   */\n      0x00\n        /* \"#utility.yul\":8595:8596   */\n      0x00\n        /* \"#utility.yul\":8588:8600   */\n      revert\n        /* \"#utility.yul\":8540:8602   */\n    tag_336:\n        /* \"#utility.yul\":8488:8608   */\n      pop\n      jump\t// out\n        /* \"#utility.yul\":8614:8751   */\n    tag_213:\n        /* \"#utility.yul\":8659:8664   */\n      0x00\n        /* \"#utility.yul\":8697:8703   */\n      dup2\n        /* \"#utility.yul\":8684:8704   */\n      calldataload\n        /* \"#utility.yul\":8675:8704   */\n      swap1\n      pop\n        /* \"#utility.yul\":8713:8745   */\n      tag_338\n        /* \"#utility.yul\":8739:8744   */\n      dup2\n        /* \"#utility.yul\":8713:8745   */\n      tag_212\n      jump\t// in\n    tag_338:\n        /* \"#utility.yul\":8614:8751   */\n      swap3\n      swap2\n      pop\n      pop\n      jump\t// out\n        /* \"#utility.yul\":8757:9084   */\n    tag_35:\n        /* \"#utility.yul\":8815:8821   */\n      0x00\n        /* \"#utility.yul\":8864:8866   */\n      0x20\n        /* \"#utility.yul\":8852:8861   */\n      dup3\n        /* \"#utility.yul\":8843:8850   */\n      dup5\n        /* \"#utility.yul\":8839:8862   */\n      sub\n        /* \"#utility.yul\":8835:8867   */\n      slt\n        /* \"#utility.yul\":8832:8951   */\n      iszero\n      tag_340\n      jumpi\n        /* \"#utility.yul\":8870:8949   */\n      tag_341\n      tag_184\n      jump\t// in\n    tag_341:\n        /* \"#utility.yul\":8832:8951   */\n    tag_340:\n        /* \"#utility.yul\":8990:8991   */\n      0x00\n        /* \"#utility.yul\":9015:9067   */\n      tag_342\n        /* \"#utility.yul\":9059:9066   */\n      dup5\n        /* \"#utility.yul\":9050:9056   */\n      dup3\n        /* \"#utility.yul\":9039:9048   */\n      dup6\n        /* \"#utility.yul\":9035:9057   */\n      add\n        /* \"#utility.yul\":9015:9067   */\n      tag_213\n      jump\t// in\n    tag_342:\n        /* \"#utility.yul\":9005:9067   */\n      swap2\n      pop\n        /* \"#utility.yul\":8961:9077   */\n      pop\n        /* \"#utility.yul\":8757:9084   */\n      swap3\n      swap2\n      pop\n      pop\n      jump\t// out\n        /* \"#utility.yul\":9090:9205   */\n    tag_214:\n        /* \"#utility.yul\":9175:9198   */\n      tag_344\n        /* \"#utility.yul\":9192:9197   */\n      dup2\n        /* \"#utility.yul\":9175:9198   */\n      tag_211\n      jump\t// in\n    tag_344:\n        /* \"#utility.yul\":9170:9173   */\n      dup3\n        /* \"#utility.yul\":9163:9199   */\n      mstore\n        /* \"#utility.yul\":9090:9205   */\n      pop\n      pop\n      jump\t// out\n        /* \"#utility.yul\":9211:9429   */\n    tag_43:\n        /* \"#utility.yul\":9302:9306   */\n      0x00\n        /* \"#utility.yul\":9340:9342   */\n      0x20\n        /* \"#utility.yul\":9329:9338   */\n      dup3\n        /* \"#utility.yul\":9325:9343   */\n      add\n        /* \"#utility.yul\":9317:9343   */\n      swap1\n      pop\n        /* \"#utility.yul\":9353:9422   */\n      tag_346\n        /* \"#utility.yul\":9419:9420   */\n      0x00\n        /* \"#utility.yul\":9408:9417   */\n      dup4\n        /* \"#utility.yul\":9404:9421   */\n      add\n        /* \"#utility.yul\":9395:9401   */\n      dup5\n        /* \"#utility.yul\":9353:9422   */\n      tag_214\n      jump\t// in\n    tag_346:\n        /* \"#utility.yul\":9211:9429   */\n      swap3\n      swap2\n      pop\n      pop\n      jump\t// out\n        /* \"#utility.yul\":9435:9552   */\n    tag_215:\n        /* \"#utility.yul\":9544:9545   */\n      0x00\n        /* \"#utility.yul\":9541:9542   */\n      0x00\n        /* \"#utility.yul\":9534:9546   */\n      revert\n        /* \"#utility.yul\":9558:9675   */\n    tag_216:\n        /* \"#utility.yul\":9667:9668   */\n      0x00\n        /* \"#utility.yul\":9664:9665   */\n      0x00\n        /* \"#utility.yul\":9657:9669   */\n      revert\n        /* \"#utility.yul\":9681:9861   */\n    tag_217:\n        /* \"#utility.yul\":9729:9806   */\n      0x4e487b7100000000000000000000000000000000000000000000000000000000\n        /* \"#utility.yul\":9726:9727   */\n      0x00\n        /* \"#utility.yul\":9719:9807   */\n      mstore\n        /* \"#utility.yul\":9826:9830   */\n      0x41\n        /* \"#utility.yul\":9823:9824   */\n      0x04\n        /* \"#utility.yul\":9816:9831   */\n      mstore\n        /* \"#utility.yul\":9850:9854   */\n      0x24\n        /* \"#utility.yul\":9847:9848   */\n      0x00\n        /* \"#utility.yul\":9840:9855   */\n      revert\n        /* \"#utility.yul\":9867:10148   */\n    tag_218:\n        /* \"#utility.yul\":9950:9977   */\n      tag_351\n        /* \"#utility.yul\":9972:9976   */\n      dup3\n        /* \"#utility.yul\":9950:9977   */\n      tag_198\n      jump\t// in\n    tag_351:\n        /* \"#utility.yul\":9942:9948   */\n      dup2\n        /* \"#utility.yul\":9938:9978   */\n      add\n        /* \"#utility.yul\":10080:10086   */\n      dup2\n        /* \"#utility.yul\":10068:10078   */\n      dup2\n        /* \"#utility.yul\":10065:10087   */\n      lt\n        /* \"#utility.yul\":10044:10062   */\n      0xffffffffffffffff\n        /* \"#utility.yul\":10032:10042   */\n      dup3\n        /* \"#utility.yul\":10029:10063   */\n      gt\n        /* \"#utility.yul\":10026:10088   */\n      or\n        /* \"#utility.yul\":10023:10111   */\n      iszero\n      tag_352\n      jumpi\n        /* \"#utility.yul\":10091:10109   */\n      tag_353\n      tag_217\n      jump\t// in\n    tag_353:\n        /* \"#utility.yul\":10023:10111   */\n    tag_352:\n        /* \"#utility.yul\":10131:10141   */\n      dup1\n        /* \"#utility.yul\":10127:10129   */\n      0x40\n        /* \"#utility.yul\":10120:10142   */\n      mstore\n        /* \"#utility.yul\":9910:10148   */\n      pop\n        /* \"#utility.yul\":9867:10148   */\n      pop\n      pop\n      jump\t// out\n        /* \"#utility.yul\":10154:10283   */\n    tag_219:\n        /* \"#utility.yul\":10188:10194   */\n      0x00\n        /* \"#utility.yul\":10215:10235   */\n      tag_355\n      tag_183\n      jump\t// in\n    tag_355:\n        /* \"#utility.yul\":10205:10235   */\n      swap1\n      pop\n        /* \"#utility.yul\":10244:10277   */\n      tag_356\n        /* \"#utility.yul\":10272:10276   */\n      dup3\n        /* \"#utility.yul\":10264:10270   */\n      dup3\n        /* \"#utility.yul\":10244:10277   */\n      tag_218\n      jump\t// in\n    tag_356:\n        /* \"#utility.yul\":10154:10283   */\n      swap2\n      swap1\n      pop\n      jump\t// out\n        /* \"#utility.yul\":10289:10597   */\n    tag_220:\n        /* \"#utility.yul\":10351:10355   */\n      0x00\n        /* \"#utility.yul\":10441:10459   */\n      0xffffffffffffffff\n        /* \"#utility.yul\":10433:10439   */\n      dup3\n        /* \"#utility.yul\":10430:10460   */\n      gt\n        /* \"#utility.yul\":10427:10483   */\n      iszero\n      tag_358\n      jumpi\n        /* \"#utility.yul\":10463:10481   */\n      tag_359\n      tag_217\n      jump\t// in\n    tag_359:\n        /* \"#utility.yul\":10427:10483   */\n    tag_358:\n        /* \"#utility.yul\":10501:10530   */\n      tag_360\n        /* \"#utility.yul\":10523:10529   */\n      dup3\n        /* \"#utility.yul\":10501:10530   */\n      tag_198\n      jump\t// in\n    tag_360:\n        /* \"#utility.yul\":10493:10530   */\n      swap1\n      pop\n        /* \"#utility.yul\":10585:10589   */\n      0x20\n        /* \"#utility.yul\":10579:10583   */\n      dup2\n        /* \"#utility.yul\":10575:10590   */\n      add\n        /* \"#utility.yul\":10567:10590   */\n      swap1\n      pop\n        /* \"#utility.yul\":10289:10597   */\n      swap2\n      swap1\n      pop\n      jump\t// out\n        /* \"#utility.yul\":10603:10751   */\n    tag_221:\n        /* \"#utility.yul\":10701:10707   */\n      dup3\n        /* \"#utility.yul\":10696:10699   */\n      dup2\n        /* \"#utility.yul\":10691:10694   */\n      dup4\n        /* \"#utility.yul\":10678:10708   */\n      calldatacopy\n        /* \"#utility.yul\":10742:10743   */\n      0x00\n        /* \"#utility.yul\":10733:10739   */\n      dup4\n        /* \"#utility.yul\":10728:10731   */\n      dup4\n        /* \"#utility.yul\":10724:10740   */\n      add\n        /* \"#utility.yul\":10717:10744   */\n      mstore\n        /* \"#utility.yul\":10603:10751   */\n      pop\n      pop\n      pop\n      jump\t// out\n        /* \"#utility.yul\":10757:11182   */\n    tag_222:\n        /* \"#utility.yul\":10835:10840   */\n      0x00\n        /* \"#utility.yul\":10860:10926   */\n      tag_363\n        /* \"#utility.yul\":10876:10925   */\n      tag_364\n        /* \"#utility.yul\":10918:10924   */\n      dup5\n        /* \"#utility.yul\":10876:10925   */\n      tag_220\n      jump\t// in\n    tag_364:\n        /* \"#utility.yul\":10860:10926   */\n      tag_219\n      jump\t// in\n    tag_363:\n        /* \"#utility.yul\":10851:10926   */\n      swap1\n      pop\n        /* \"#utility.yul\":10949:10955   */\n      dup3\n        /* \"#utility.yul\":10942:10947   */\n      dup2\n        /* \"#utility.yul\":10935:10956   */\n      mstore\n        /* \"#utility.yul\":10987:10991   */\n      0x20\n        /* \"#utility.yul\":10980:10985   */\n      dup2\n        /* \"#utility.yul\":10976:10992   */\n      add\n        /* \"#utility.yul\":11025:11028   */\n      dup5\n        /* \"#utility.yul\":11016:11022   */\n      dup5\n        /* \"#utility.yul\":11011:11014   */\n      dup5\n        /* \"#utility.yul\":11007:11023   */\n      add\n        /* \"#utility.yul\":11004:11029   */\n      gt\n        /* \"#utility.yul\":11001:11113   */\n      iszero\n      tag_365\n      jumpi\n        /* \"#utility.yul\":11032:11111   */\n      tag_366\n      tag_216\n      jump\t// in\n    tag_366:\n        /* \"#utility.yul\":11001:11113   */\n    tag_365:\n        /* \"#utility.yul\":11122:11176   */\n      tag_367\n        /* \"#utility.yul\":11169:11175   */\n      dup5\n        /* \"#utility.yul\":11164:11167   */\n      dup3\n        /* \"#utility.yul\":11159:11162   */\n      dup6\n        /* \"#utility.yul\":11122:11176   */\n      tag_221\n      jump\t// in\n    tag_367:\n        /* \"#utility.yul\":10841:11182   */\n      pop\n        /* \"#utility.yul\":10757:11182   */\n      swap4\n      swap3\n      pop\n      pop\n      pop\n      jump\t// out\n        /* \"#utility.yul\":11202:11542   */\n    tag_223:\n        /* \"#utility.yul\":11258:11263   */\n      0x00\n        /* \"#utility.yul\":11307:11310   */\n      dup3\n        /* \"#utility.yul\":11300:11304   */\n      0x1f\n        /* \"#utility.yul\":11292:11298   */\n      dup4\n        /* \"#utility.yul\":11288:11305   */\n      add\n        /* \"#utility.yul\":11284:11311   */\n      slt\n        /* \"#utility.yul\":11274:11396   */\n      tag_369\n      jumpi\n        /* \"#utility.yul\":11315:11394   */\n      tag_370\n      tag_215\n      jump\t// in\n    tag_370:\n        /* \"#utility.yul\":11274:11396   */\n    tag_369:\n        /* \"#utility.yul\":11432:11438   */\n      dup2\n        /* \"#utility.yul\":11419:11439   */\n      calldataload\n        /* \"#utility.yul\":11457:11536   */\n      tag_371\n        /* \"#utility.yul\":11532:11535   */\n      dup5\n        /* \"#utility.yul\":11524:11530   */\n      dup3\n        /* \"#utility.yul\":11517:11521   */\n      0x20\n        /* \"#utility.yul\":11509:11515   */\n      dup7\n        /* \"#utility.yul\":11505:11522   */\n      add\n        /* \"#utility.yul\":11457:11536   */\n      tag_222\n      jump\t// in\n    tag_371:\n        /* \"#utility.yul\":11448:11536   */\n      swap2\n      pop\n        /* \"#utility.yul\":11264:11542   */\n      pop\n        /* \"#utility.yul\":11202:11542   */\n      swap3\n      swap2\n      pop\n      pop\n      jump\t// out\n        /* \"#utility.yul\":11548:12057   */\n    tag_48:\n        /* \"#utility.yul\":11617:11623   */\n      0x00\n        /* \"#utility.yul\":11666:11668   */\n      0x20\n        /* \"#utility.yul\":11654:11663   */\n      dup3\n        /* \"#utility.yul\":11645:11652   */\n      dup5\n        /* \"#utility.yul\":11641:11664   */\n      sub\n        /* \"#utility.yul\":11637:11669   */\n      slt\n        /* \"#utility.yul\":11634:11753   */\n      iszero\n      tag_373\n      jumpi\n        /* \"#utility.yul\":11672:11751   */\n      tag_374\n      tag_184\n      jump\t// in\n    tag_374:\n        /* \"#utility.yul\":11634:11753   */\n    tag_373:\n        /* \"#utility.yul\":11820:11821   */\n      0x00\n        /* \"#utility.yul\":11809:11818   */\n      dup3\n        /* \"#utility.yul\":11805:11822   */\n      add\n        /* \"#utility.yul\":11792:11823   */\n      calldataload\n        /* \"#utility.yul\":11850:11868   */\n      0xffffffffffffffff\n        /* \"#utility.yul\":11842:11848   */\n      dup2\n        /* \"#utility.yul\":11839:11869   */\n      gt\n        /* \"#utility.yul\":11836:11953   */\n      iszero\n      tag_375\n      jumpi\n        /* \"#utility.yul\":11872:11951   */\n      tag_376\n      tag_185\n      jump\t// in\n    tag_376:\n        /* \"#utility.yul\":11836:11953   */\n    tag_375:\n        /* \"#utility.yul\":11977:12040   */\n      tag_377\n        /* \"#utility.yul\":12032:12039   */\n      dup5\n        /* \"#utility.yul\":12023:12029   */\n      dup3\n        /* \"#utility.yul\":12012:12021   */\n      dup6\n        /* \"#utility.yul\":12008:12030   */\n      add\n        /* \"#utility.yul\":11977:12040   */\n      tag_223\n      jump\t// in\n    tag_377:\n        /* \"#utility.yul\":11967:12040   */\n      swap2\n      pop\n        /* \"#utility.yul\":11763:12050   */\n      pop\n        /* \"#utility.yul\":11548:12057   */\n      swap3\n      swap2\n      pop\n      pop\n      jump\t// out\n        /* \"#utility.yul\":12063:12285   */\n    tag_54:\n        /* \"#utility.yul\":12156:12160   */\n      0x00\n        /* \"#utility.yul\":12194:12196   */\n      0x20\n        /* \"#utility.yul\":12183:12192   */\n      dup3\n        /* \"#utility.yul\":12179:12197   */\n      add\n        /* \"#utility.yul\":12171:12197   */\n      swap1\n      pop\n        /* \"#utility.yul\":12207:12278   */\n      tag_379\n        /* \"#utility.yul\":12275:12276   */\n      0x00\n        /* \"#utility.yul\":12264:12273   */\n      dup4\n        /* \"#utility.yul\":12260:12277   */\n      add\n        /* \"#utility.yul\":12251:12257   */\n      dup5\n        /* \"#utility.yul\":12207:12278   */\n      tag_193\n      jump\t// in\n    tag_379:\n        /* \"#utility.yul\":12063:12285   */\n      swap3\n      swap2\n      pop\n      pop\n      jump\t// out\n        /* \"#utility.yul\":12291:12513   */\n    tag_58:\n        /* \"#utility.yul\":12384:12388   */\n      0x00\n        /* \"#utility.yul\":12422:12424   */\n      0x20\n        /* \"#utility.yul\":12411:12420   */\n      dup3\n        /* \"#utility.yul\":12407:12425   */\n      add\n        /* \"#utility.yul\":12399:12425   */\n      swap1\n      pop\n        /* \"#utility.yul\":12435:12506   */\n      tag_381\n        /* \"#utility.yul\":12503:12504   */\n      0x00\n        /* \"#utility.yul\":12492:12501   */\n      dup4\n        /* \"#utility.yul\":12488:12505   */\n      add\n        /* \"#utility.yul\":12479:12485   */\n      dup5\n        /* \"#utility.yul\":12435:12506   */\n      tag_194\n      jump\t// in\n    tag_381:\n        /* \"#utility.yul\":12291:12513   */\n      swap3\n      swap2\n      pop\n      pop\n      jump\t// out\n        /* \"#utility.yul\":12519:12579   */\n    tag_224:\n        /* \"#utility.yul\":12547:12550   */\n      0x00\n        /* \"#utility.yul\":12568:12573   */\n      dup2\n        /* \"#utility.yul\":12561:12573   */\n      swap1\n      pop\n        /* \"#utility.yul\":12519:12579   */\n      swap2\n      swap1\n      pop\n      jump\t// out\n        /* \"#utility.yul\":12585:12727   */\n    tag_225:\n        /* \"#utility.yul\":12635:12644   */\n      0x00\n        /* \"#utility.yul\":12668:12721   */\n      tag_384\n        /* \"#utility.yul\":12686:12720   */\n      tag_385\n        /* \"#utility.yul\":12695:12719   */\n      tag_386\n        /* \"#utility.yul\":12713:12718   */\n      dup5\n        /* \"#utility.yul\":12695:12719   */\n      tag_186\n      jump\t// in\n    tag_386:\n        /* \"#utility.yul\":12686:12720   */\n      tag_224\n      jump\t// in\n    tag_385:\n        /* \"#utility.yul\":12668:12721   */\n      tag_186\n      jump\t// in\n    tag_384:\n        /* \"#utility.yul\":12655:12721   */\n      swap1\n      pop\n        /* \"#utility.yul\":12585:12727   */\n      swap2\n      swap1\n      pop\n      jump\t// out\n        /* \"#utility.yul\":12733:12859   */\n    tag_226:\n        /* \"#utility.yul\":12783:12792   */\n      0x00\n        /* \"#utility.yul\":12816:12853   */\n      tag_388\n        /* \"#utility.yul\":12847:12852   */\n      dup3\n        /* \"#utility.yul\":12816:12853   */\n      tag_225\n      jump\t// in\n    tag_388:\n        /* \"#utility.yul\":12803:12853   */\n      swap1\n      pop\n        /* \"#utility.yul\":12733:12859   */\n      swap2\n      swap1\n      pop\n      jump\t// out\n        /* \"#utility.yul\":12865:13007   */\n    tag_227:\n        /* \"#utility.yul\":12931:12940   */\n      0x00\n        /* \"#utility.yul\":12964:13001   */\n      tag_390\n        /* \"#utility.yul\":12995:13000   */\n      dup3\n        /* \"#utility.yul\":12964:13001   */\n      tag_226\n      jump\t// in\n    tag_390:\n        /* \"#utility.yul\":12951:13001   */\n      swap1\n      pop\n        /* \"#utility.yul\":12865:13007   */\n      swap2\n      swap1\n      pop\n      jump\t// out\n        /* \"#utility.yul\":13013:13176   */\n    tag_228:\n        /* \"#utility.yul\":13116:13169   */\n      tag_392\n        /* \"#utility.yul\":13163:13168   */\n      dup2\n        /* \"#utility.yul\":13116:13169   */\n      tag_227\n      jump\t// in\n    tag_392:\n        /* \"#utility.yul\":13111:13114   */\n      dup3\n        /* \"#utility.yul\":13104:13170   */\n      mstore\n        /* \"#utility.yul\":13013:13176   */\n      pop\n      pop\n      jump\t// out\n        /* \"#utility.yul\":13182:13436   */\n    tag_62:\n        /* \"#utility.yul\":13291:13295   */\n      0x00\n        /* \"#utility.yul\":13329:13331   */\n      0x20\n        /* \"#utility.yul\":13318:13327   */\n      dup3\n        /* \"#utility.yul\":13314:13332   */\n      add\n        /* \"#utility.yul\":13306:13332   */\n      swap1\n      pop\n        /* \"#utility.yul\":13342:13429   */\n      tag_394\n        /* \"#utility.yul\":13426:13427   */\n      0x00\n        /* \"#utility.yul\":13415:13424   */\n      dup4\n        /* \"#utility.yul\":13411:13428   */\n      add\n        /* \"#utility.yul\":13402:13408   */\n      dup5\n        /* \"#utility.yul\":13342:13429   */\n      tag_228\n      jump\t// in\n    tag_394:\n        /* \"#utility.yul\":13182:13436   */\n      swap3\n      swap2\n      pop\n      pop\n      jump\t// out\n        /* \"#utility.yul\":13442:13771   */\n    tag_65:\n        /* \"#utility.yul\":13501:13507   */\n      0x00\n        /* \"#utility.yul\":13550:13552   */\n      0x20\n        /* \"#utility.yul\":13538:13547   */\n      dup3\n        /* \"#utility.yul\":13529:13536   */\n      dup5\n        /* \"#utility.yul\":13525:13548   */\n      sub\n        /* \"#utility.yul\":13521:13553   */\n      slt\n        /* \"#utility.yul\":13518:13637   */\n      iszero\n      tag_396\n      jumpi\n        /* \"#utility.yul\":13556:13635   */\n      tag_397\n      tag_184\n      jump\t// in\n    tag_397:\n        /* \"#utility.yul\":13518:13637   */\n    tag_396:\n        /* \"#utility.yul\":13676:13677   */\n      0x00\n        /* \"#utility.yul\":13701:13754   */\n      tag_398\n        /* \"#utility.yul\":13746:13753   */\n      dup5\n        /* \"#utility.yul\":13737:13743   */\n      dup3\n        /* \"#utility.yul\":13726:13735   */\n      dup6\n        /* \"#utility.yul\":13722:13744   */\n      add\n        /* \"#utility.yul\":13701:13754   */\n      tag_192\n      jump\t// in\n    tag_398:\n        /* \"#utility.yul\":13691:13754   */\n      swap2\n      pop\n        /* \"#utility.yul\":13647:13764   */\n      pop\n        /* \"#utility.yul\":13442:13771   */\n      swap3\n      swap2\n      pop\n      pop\n      jump\t// out\n        /* \"#utility.yul\":13829:14960   */\n    tag_229:\n        /* \"#utility.yul\":13942:13945   */\n      0x00\n        /* \"#utility.yul\":13978:13982   */\n      0xa0\n        /* \"#utility.yul\":13973:13976   */\n      dup4\n        /* \"#utility.yul\":13969:13983   */\n      add\n        /* \"#utility.yul\":14063:14067   */\n      0x00\n        /* \"#utility.yul\":14056:14061   */\n      dup4\n        /* \"#utility.yul\":14052:14068   */\n      add\n        /* \"#utility.yul\":14046:14069   */\n      mload\n        /* \"#utility.yul\":14082:14145   */\n      tag_400\n        /* \"#utility.yul\":14139:14143   */\n      0x00\n        /* \"#utility.yul\":14134:14137   */\n      dup7\n        /* \"#utility.yul\":14130:14144   */\n      add\n        /* \"#utility.yul\":14116:14128   */\n      dup3\n        /* \"#utility.yul\":14082:14145   */\n      tag_203\n      jump\t// in\n    tag_400:\n        /* \"#utility.yul\":13993:14155   */\n      pop\n        /* \"#utility.yul\":14239:14243   */\n      0x20\n        /* \"#utility.yul\":14232:14237   */\n      dup4\n        /* \"#utility.yul\":14228:14244   */\n      add\n        /* \"#utility.yul\":14222:14245   */\n      mload\n        /* \"#utility.yul\":14258:14321   */\n      tag_401\n        /* \"#utility.yul\":14315:14319   */\n      0x20\n        /* \"#utility.yul\":14310:14313   */\n      dup7\n        /* \"#utility.yul\":14306:14320   */\n      add\n        /* \"#utility.yul\":14292:14304   */\n      dup3\n        /* \"#utility.yul\":14258:14321   */\n      tag_204\n      jump\t// in\n    tag_401:\n        /* \"#utility.yul\":14165:14331   */\n      pop\n        /* \"#utility.yul\":14416:14420   */\n      0x40\n        /* \"#utility.yul\":14409:14414   */\n      dup4\n        /* \"#utility.yul\":14405:14421   */\n      add\n        /* \"#utility.yul\":14399:14422   */\n      mload\n        /* \"#utility.yul\":14469:14472   */\n      dup5\n        /* \"#utility.yul\":14463:14467   */\n      dup3\n        /* \"#utility.yul\":14459:14473   */\n      sub\n        /* \"#utility.yul\":14452:14456   */\n      0x40\n        /* \"#utility.yul\":14447:14450   */\n      dup7\n        /* \"#utility.yul\":14443:14457   */\n      add\n        /* \"#utility.yul\":14436:14474   */\n      mstore\n        /* \"#utility.yul\":14495:14568   */\n      tag_402\n        /* \"#utility.yul\":14563:14567   */\n      dup3\n        /* \"#utility.yul\":14549:14561   */\n      dup3\n        /* \"#utility.yul\":14495:14568   */\n      tag_206\n      jump\t// in\n    tag_402:\n        /* \"#utility.yul\":14487:14568   */\n      swap2\n      pop\n        /* \"#utility.yul\":14341:14579   */\n      pop\n        /* \"#utility.yul\":14666:14670   */\n      0x60\n        /* \"#utility.yul\":14659:14664   */\n      dup4\n        /* \"#utility.yul\":14655:14671   */\n      add\n        /* \"#utility.yul\":14649:14672   */\n      mload\n        /* \"#utility.yul\":14685:14748   */\n      tag_403\n        /* \"#utility.yul\":14742:14746   */\n      0x60\n        /* \"#utility.yul\":14737:14740   */\n      dup7\n        /* \"#utility.yul\":14733:14747   */\n      add\n        /* \"#utility.yul\":14719:14731   */\n      dup3\n        /* \"#utility.yul\":14685:14748   */\n      tag_203\n      jump\t// in\n    tag_403:\n        /* \"#utility.yul\":14589:14758   */\n      pop\n        /* \"#utility.yul\":14841:14845   */\n      0x80\n        /* \"#utility.yul\":14834:14839   */\n      dup4\n        /* \"#utility.yul\":14830:14846   */\n      add\n        /* \"#utility.yul\":14824:14847   */\n      mload\n        /* \"#utility.yul\":14860:14923   */\n      tag_404\n        /* \"#utility.yul\":14917:14921   */\n      0x80\n        /* \"#utility.yul\":14912:14915   */\n      dup7\n        /* \"#utility.yul\":14908:14922   */\n      add\n        /* \"#utility.yul\":14894:14906   */\n      dup3\n        /* \"#utility.yul\":14860:14923   */\n      tag_203\n      jump\t// in\n    tag_404:\n        /* \"#utility.yul\":14768:14933   */\n      pop\n        /* \"#utility.yul\":14950:14954   */\n      dup1\n        /* \"#utility.yul\":14943:14954   */\n      swap2\n      pop\n        /* \"#utility.yul\":13947:14960   */\n      pop\n        /* \"#utility.yul\":13829:14960   */\n      swap3\n      swap2\n      pop\n      pop\n      jump\t// out\n        /* \"#utility.yul\":14966:15327   */\n    tag_68:\n        /* \"#utility.yul\":15103:15107   */\n      0x00\n        /* \"#utility.yul\":15141:15143   */\n      0x20\n        /* \"#utility.yul\":15130:15139   */\n      dup3\n        /* \"#utility.yul\":15126:15144   */\n      add\n        /* \"#utility.yul\":15118:15144   */\n      swap1\n      pop\n        /* \"#utility.yul\":15190:15199   */\n      dup2\n        /* \"#utility.yul\":15184:15188   */\n      dup2\n        /* \"#utility.yul\":15180:15200   */\n      sub\n        /* \"#utility.yul\":15176:15177   */\n      0x00\n        /* \"#utility.yul\":15165:15174   */\n      dup4\n        /* \"#utility.yul\":15161:15178   */\n      add\n        /* \"#utility.yul\":15154:15201   */\n      mstore\n        /* \"#utility.yul\":15218:15320   */\n      tag_406\n        /* \"#utility.yul\":15315:15319   */\n      dup2\n        /* \"#utility.yul\":15306:15312   */\n      dup5\n        /* \"#utility.yul\":15218:15320   */\n      tag_229\n      jump\t// in\n    tag_406:\n        /* \"#utility.yul\":15210:15320   */\n      swap1\n      pop\n        /* \"#utility.yul\":14966:15327   */\n      swap3\n      swap2\n      pop\n      pop\n      jump\t// out\n        /* \"#utility.yul\":15333:15513   */\n    tag_230:\n        /* \"#utility.yul\":15381:15458   */\n      0x4e487b7100000000000000000000000000000000000000000000000000000000\n        /* \"#utility.yul\":15378:15379   */\n      0x00\n        /* \"#utility.yul\":15371:15459   */\n      mstore\n        /* \"#utility.yul\":15478:15482   */\n      0x22\n        /* \"#utility.yul\":15475:15476   */\n      0x04\n        /* \"#utility.yul\":15468:15483   */\n      mstore\n        /* \"#utility.yul\":15502:15506   */\n      0x24\n        /* \"#utility.yul\":15499:15500   */\n      0x00\n        /* \"#utility.yul\":15492:15507   */\n      revert\n        /* \"#utility.yul\":15519:15839   */\n    tag_75:\n        /* \"#utility.yul\":15563:15569   */\n      0x00\n        /* \"#utility.yul\":15600:15601   */\n      0x02\n        /* \"#utility.yul\":15594:15598   */\n      dup3\n        /* \"#utility.yul\":15590:15602   */\n      div\n        /* \"#utility.yul\":15580:15602   */\n      swap1\n      pop\n        /* \"#utility.yul\":15647:15648   */\n      0x01\n        /* \"#utility.yul\":15641:15645   */\n      dup3\n        /* \"#utility.yul\":15637:15649   */\n      and\n        /* \"#utility.yul\":15668:15686   */\n      dup1\n        /* \"#utility.yul\":15658:15739   */\n      tag_409\n      jumpi\n        /* \"#utility.yul\":15724:15728   */\n      0x7f\n        /* \"#utility.yul\":15716:15722   */\n      dup3\n        /* \"#utility.yul\":15712:15729   */\n      and\n        /* \"#utility.yul\":15702:15729   */\n      swap2\n      pop\n        /* \"#utility.yul\":15658:15739   */\n    tag_409:\n        /* \"#utility.yul\":15786:15788   */\n      0x20\n        /* \"#utility.yul\":15778:15784   */\n      dup3\n        /* \"#utility.yul\":15775:15789   */\n      lt\n        /* \"#utility.yul\":15755:15773   */\n      dup2\n        /* \"#utility.yul\":15752:15790   */\n      sub\n        /* \"#utility.yul\":15749:15833   */\n      tag_410\n      jumpi\n        /* \"#utility.yul\":15805:15823   */\n      tag_411\n      tag_230\n      jump\t// in\n    tag_411:\n        /* \"#utility.yul\":15749:15833   */\n    tag_410:\n        /* \"#utility.yul\":15570:15839   */\n      pop\n        /* \"#utility.yul\":15519:15839   */\n      swap2\n      swap1\n      pop\n      jump\t// out\n        /* \"#utility.yul\":15845:16025   */\n    tag_92:\n        /* \"#utility.yul\":15893:15970   */\n      0x4e487b7100000000000000000000000000000000000000000000000000000000\n        /* \"#utility.yul\":15890:15891   */\n      0x00\n        /* \"#utility.yul\":15883:15971   */\n      mstore\n        /* \"#utility.yul\":15990:15994   */\n      0x32\n        /* \"#utility.yul\":15987:15988   */\n      0x04\n        /* \"#utility.yul\":15980:15995   */\n      mstore\n        /* \"#utility.yul\":16014:16018   */\n      0x24\n        /* \"#utility.yul\":16011:16012   */\n      0x00\n        /* \"#utility.yul\":16004:16019   */\n      revert\n        /* \"#utility.yul\":16031:16201   */\n    tag_231:\n        /* \"#utility.yul\":16171:16193   */\n      0x547765657420446f6573206e6f74206578697374000000000000000000000000\n        /* \"#utility.yul\":16167:16168   */\n      0x00\n        /* \"#utility.yul\":16159:16165   */\n      dup3\n        /* \"#utility.yul\":16155:16169   */\n      add\n        /* \"#utility.yul\":16148:16194   */\n      mstore\n        /* \"#utility.yul\":16031:16201   */\n      pop\n      jump\t// out\n        /* \"#utility.yul\":16207:16573   */\n    tag_232:\n        /* \"#utility.yul\":16349:16352   */\n      0x00\n        /* \"#utility.yul\":16370:16437   */\n      tag_415\n        /* \"#utility.yul\":16434:16436   */\n      0x14\n        /* \"#utility.yul\":16429:16432   */\n      dup4\n        /* \"#utility.yul\":16370:16437   */\n      tag_196\n      jump\t// in\n    tag_415:\n        /* \"#utility.yul\":16363:16437   */\n      swap2\n      pop\n        /* \"#utility.yul\":16446:16539   */\n      tag_416\n        /* \"#utility.yul\":16535:16538   */\n      dup3\n        /* \"#utility.yul\":16446:16539   */\n      tag_231\n      jump\t// in\n    tag_416:\n        /* \"#utility.yul\":16564:16566   */\n      0x20\n        /* \"#utility.yul\":16559:16562   */\n      dup3\n        /* \"#utility.yul\":16555:16567   */\n      add\n        /* \"#utility.yul\":16548:16567   */\n      swap1\n      pop\n        /* \"#utility.yul\":16207:16573   */\n      swap2\n      swap1\n      pop\n      jump\t// out\n        /* \"#utility.yul\":16579:16998   */\n    tag_96:\n        /* \"#utility.yul\":16745:16749   */\n      0x00\n        /* \"#utility.yul\":16783:16785   */\n      0x20\n        /* \"#utility.yul\":16772:16781   */\n      dup3\n        /* \"#utility.yul\":16768:16786   */\n      add\n        /* \"#utility.yul\":16760:16786   */\n      swap1\n      pop\n        /* \"#utility.yul\":16832:16841   */\n      dup2\n        /* \"#utility.yul\":16826:16830   */\n      dup2\n        /* \"#utility.yul\":16822:16842   */\n      sub\n        /* \"#utility.yul\":16818:16819   */\n      0x00\n        /* \"#utility.yul\":16807:16816   */\n      dup4\n        /* \"#utility.yul\":16803:16820   */\n      add\n        /* \"#utility.yul\":16796:16843   */\n      mstore\n        /* \"#utility.yul\":16860:16991   */\n      tag_418\n        /* \"#utility.yul\":16986:16990   */\n      dup2\n        /* \"#utility.yul\":16860:16991   */\n      tag_232\n      jump\t// in\n    tag_418:\n        /* \"#utility.yul\":16852:16991   */\n      swap1\n      pop\n        /* \"#utility.yul\":16579:16998   */\n      swap2\n      swap1\n      pop\n      jump\t// out\n        /* \"#utility.yul\":17004:17179   */\n    tag_233:\n        /* \"#utility.yul\":17144:17171   */\n      0x547777657420646f6573206e6f742068617665204c696b657300000000000000\n        /* \"#utility.yul\":17140:17141   */\n      0x00\n        /* \"#utility.yul\":17132:17138   */\n      dup3\n        /* \"#utility.yul\":17128:17142   */\n      add\n        /* \"#utility.yul\":17121:17172   */\n      mstore\n        /* \"#utility.yul\":17004:17179   */\n      pop\n      jump\t// out\n        /* \"#utility.yul\":17185:17551   */\n    tag_234:\n        /* \"#utility.yul\":17327:17330   */\n      0x00\n        /* \"#utility.yul\":17348:17415   */\n      tag_421\n        /* \"#utility.yul\":17412:17414   */\n      0x19\n        /* \"#utility.yul\":17407:17410   */\n      dup4\n        /* \"#utility.yul\":17348:17415   */\n      tag_196\n      jump\t// in\n    tag_421:\n        /* \"#utility.yul\":17341:17415   */\n      swap2\n      pop\n        /* \"#utility.yul\":17424:17517   */\n      tag_422\n        /* \"#utility.yul\":17513:17516   */\n      dup3\n        /* \"#utility.yul\":17424:17517   */\n      tag_233\n      jump\t// in\n    tag_422:\n        /* \"#utility.yul\":17542:17544   */\n      0x20\n        /* \"#utility.yul\":17537:17540   */\n      dup3\n        /* \"#utility.yul\":17533:17545   */\n      add\n        /* \"#utility.yul\":17526:17545   */\n      swap1\n      pop\n        /* \"#utility.yul\":17185:17551   */\n      swap2\n      swap1\n      pop\n      jump\t// out\n        /* \"#utility.yul\":17557:17976   */\n    tag_102:\n        /* \"#utility.yul\":17723:17727   */\n      0x00\n        /* \"#utility.yul\":17761:17763   */\n      0x20\n        /* \"#utility.yul\":17750:17759   */\n      dup3\n        /* \"#utility.yul\":17746:17764   */\n      add\n        /* \"#utility.yul\":17738:17764   */\n      swap1\n      pop\n        /* \"#utility.yul\":17810:17819   */\n      dup2\n        /* \"#utility.yul\":17804:17808   */\n      dup2\n        /* \"#utility.yul\":17800:17820   */\n      sub\n        /* \"#utility.yul\":17796:17797   */\n      0x00\n        /* \"#utility.yul\":17785:17794   */\n      dup4\n        /* \"#utility.yul\":17781:17798   */\n      add\n        /* \"#utility.yul\":17774:17821   */\n      mstore\n        /* \"#utility.yul\":17838:17969   */\n      tag_424\n        /* \"#utility.yul\":17964:17968   */\n      dup2\n        /* \"#utility.yul\":17838:17969   */\n      tag_234\n      jump\t// in\n    tag_424:\n        /* \"#utility.yul\":17830:17969   */\n      swap1\n      pop\n        /* \"#utility.yul\":17557:17976   */\n      swap2\n      swap1\n      pop\n      jump\t// out\n        /* \"#utility.yul\":17982:18162   */\n    tag_235:\n        /* \"#utility.yul\":18030:18107   */\n      0x4e487b7100000000000000000000000000000000000000000000000000000000\n        /* \"#utility.yul\":18027:18028   */\n      0x00\n        /* \"#utility.yul\":18020:18108   */\n      mstore\n        /* \"#utility.yul\":18127:18131   */\n      0x11\n        /* \"#utility.yul\":18124:18125   */\n      0x04\n        /* \"#utility.yul\":18117:18132   */\n      mstore\n        /* \"#utility.yul\":18151:18155   */\n      0x24\n        /* \"#utility.yul\":18148:18149   */\n      0x00\n        /* \"#utility.yul\":18141:18156   */\n      revert\n        /* \"#utility.yul\":18168:18339   */\n    tag_107:\n        /* \"#utility.yul\":18207:18210   */\n      0x00\n        /* \"#utility.yul\":18230:18254   */\n      tag_427\n        /* \"#utility.yul\":18248:18253   */\n      dup3\n        /* \"#utility.yul\":18230:18254   */\n      tag_190\n      jump\t// in\n    tag_427:\n        /* \"#utility.yul\":18221:18254   */\n      swap2\n      pop\n        /* \"#utility.yul\":18276:18280   */\n      0x00\n        /* \"#utility.yul\":18269:18274   */\n      dup3\n        /* \"#utility.yul\":18266:18281   */\n      sub\n        /* \"#utility.yul\":18263:18304   */\n      tag_428\n      jumpi\n        /* \"#utility.yul\":18284:18302   */\n      tag_429\n      tag_235\n      jump\t// in\n    tag_429:\n        /* \"#utility.yul\":18263:18304   */\n    tag_428:\n        /* \"#utility.yul\":18331:18332   */\n      0x01\n        /* \"#utility.yul\":18324:18329   */\n      dup3\n        /* \"#utility.yul\":18320:18333   */\n      sub\n        /* \"#utility.yul\":18313:18333   */\n      swap1\n      pop\n        /* \"#utility.yul\":18168:18339   */\n      swap2\n      swap1\n      pop\n      jump\t// out\n        /* \"#utility.yul\":18345:18898   */\n    tag_112:\n        /* \"#utility.yul\":18522:18526   */\n      0x00\n        /* \"#utility.yul\":18560:18563   */\n      0x80\n        /* \"#utility.yul\":18549:18558   */\n      dup3\n        /* \"#utility.yul\":18545:18564   */\n      add\n        /* \"#utility.yul\":18537:18564   */\n      swap1\n      pop\n        /* \"#utility.yul\":18574:18645   */\n      tag_431\n        /* \"#utility.yul\":18642:18643   */\n      0x00\n        /* \"#utility.yul\":18631:18640   */\n      dup4\n        /* \"#utility.yul\":18627:18644   */\n      add\n        /* \"#utility.yul\":18618:18624   */\n      dup8\n        /* \"#utility.yul\":18574:18645   */\n      tag_194\n      jump\t// in\n    tag_431:\n        /* \"#utility.yul\":18655:18727   */\n      tag_432\n        /* \"#utility.yul\":18723:18725   */\n      0x20\n        /* \"#utility.yul\":18712:18721   */\n      dup4\n        /* \"#utility.yul\":18708:18726   */\n      add\n        /* \"#utility.yul\":18699:18705   */\n      dup7\n        /* \"#utility.yul\":18655:18727   */\n      tag_194\n      jump\t// in\n    tag_432:\n        /* \"#utility.yul\":18737:18809   */\n      tag_433\n        /* \"#utility.yul\":18805:18807   */\n      0x40\n        /* \"#utility.yul\":18794:18803   */\n      dup4\n        /* \"#utility.yul\":18790:18808   */\n      add\n        /* \"#utility.yul\":18781:18787   */\n      dup6\n        /* \"#utility.yul\":18737:18809   */\n      tag_193\n      jump\t// in\n    tag_433:\n        /* \"#utility.yul\":18819:18891   */\n      tag_434\n        /* \"#utility.yul\":18887:18889   */\n      0x60\n        /* \"#utility.yul\":18876:18885   */\n      dup4\n        /* \"#utility.yul\":18872:18890   */\n      add\n        /* \"#utility.yul\":18863:18869   */\n      dup5\n        /* \"#utility.yul\":18819:18891   */\n      tag_193\n      jump\t// in\n    tag_434:\n        /* \"#utility.yul\":18345:18898   */\n      swap6\n      swap5\n      pop\n      pop\n      pop\n      pop\n      pop\n      jump\t// out\n        /* \"#utility.yul\":18904:19074   */\n    tag_236:\n        /* \"#utility.yul\":19044:19066   */\n      0x547765657420446f6573204e6f74204578697374000000000000000000000000\n        /* \"#utility.yul\":19040:19041   */\n      0x00\n        /* \"#utility.yul\":19032:19038   */\n      dup3\n        /* \"#utility.yul\":19028:19042   */\n      add\n        /* \"#utility.yul\":19021:19067   */\n      mstore\n        /* \"#utility.yul\":18904:19074   */\n      pop\n      jump\t// out\n        /* \"#utility.yul\":19080:19446   */\n    tag_237:\n        /* \"#utility.yul\":19222:19225   */\n      0x00\n        /* \"#utility.yul\":19243:19310   */\n      tag_437\n        /* \"#utility.yul\":19307:19309   */\n      0x14\n        /* \"#utility.yul\":19302:19305   */\n      dup4\n        /* \"#utility.yul\":19243:19310   */\n      tag_196\n      jump\t// in\n    tag_437:\n        /* \"#utility.yul\":19236:19310   */\n      swap2\n      pop\n        /* \"#utility.yul\":19319:19412   */\n      tag_438\n        /* \"#utility.yul\":19408:19411   */\n      dup3\n        /* \"#utility.yul\":19319:19412   */\n      tag_236\n      jump\t// in\n    tag_438:\n        /* \"#utility.yul\":19437:19439   */\n      0x20\n        /* \"#utility.yul\":19432:19435   */\n      dup3\n        /* \"#utility.yul\":19428:19440   */\n      add\n        /* \"#utility.yul\":19421:19440   */\n      swap1\n      pop\n        /* \"#utility.yul\":19080:19446   */\n      swap2\n      swap1\n      pop\n      jump\t// out\n        /* \"#utility.yul\":19452:19871   */\n    tag_123:\n        /* \"#utility.yul\":19618:19622   */\n      0x00\n        /* \"#utility.yul\":19656:19658   */\n      0x20\n        /* \"#utility.yul\":19645:19654   */\n      dup3\n        /* \"#utility.yul\":19641:19659   */\n      add\n        /* \"#utility.yul\":19633:19659   */\n      swap1\n      pop\n        /* \"#utility.yul\":19705:19714   */\n      dup2\n        /* \"#utility.yul\":19699:19703   */\n      dup2\n        /* \"#utility.yul\":19695:19715   */\n      sub\n        /* \"#utility.yul\":19691:19692   */\n      0x00\n        /* \"#utility.yul\":19680:19689   */\n      dup4\n        /* \"#utility.yul\":19676:19693   */\n      add\n        /* \"#utility.yul\":19669:19716   */\n      mstore\n        /* \"#utility.yul\":19733:19864   */\n      tag_440\n        /* \"#utility.yul\":19859:19863   */\n      dup2\n        /* \"#utility.yul\":19733:19864   */\n      tag_237\n      jump\t// in\n    tag_440:\n        /* \"#utility.yul\":19725:19864   */\n      swap1\n      pop\n        /* \"#utility.yul\":19452:19871   */\n      swap2\n      swap1\n      pop\n      jump\t// out\n        /* \"#utility.yul\":19877:20110   */\n    tag_128:\n        /* \"#utility.yul\":19916:19919   */\n      0x00\n        /* \"#utility.yul\":19939:19963   */\n      tag_442\n        /* \"#utility.yul\":19957:19962   */\n      dup3\n        /* \"#utility.yul\":19939:19963   */\n      tag_190\n      jump\t// in\n    tag_442:\n        /* \"#utility.yul\":19930:19963   */\n      swap2\n      pop\n        /* \"#utility.yul\":19985:20051   */\n      0xffffffffffffffffffffffffffffffffffffffffffffffffffffffffffffffff\n        /* \"#utility.yul\":19978:19983   */\n      dup3\n        /* \"#utility.yul\":19975:20052   */\n      sub\n        /* \"#utility.yul\":19972:20075   */\n      tag_443\n      jumpi\n        /* \"#utility.yul\":20055:20073   */\n      tag_444\n      tag_235\n      jump\t// in\n    tag_444:\n        /* \"#utility.yul\":19972:20075   */\n    tag_443:\n        /* \"#utility.yul\":20102:20103   */\n      0x01\n        /* \"#utility.yul\":20095:20100   */\n      dup3\n        /* \"#utility.yul\":20091:20104   */\n      add\n        /* \"#utility.yul\":20084:20104   */\n      swap1\n      pop\n        /* \"#utility.yul\":19877:20110   */\n      swap2\n      swap1\n      pop\n      jump\t// out\n        /* \"#utility.yul\":20116:20294   */\n    tag_238:\n        /* \"#utility.yul\":20256:20286   */\n      0x5477656574204578656363656420746865206d6178206c656e67746800000000\n        /* \"#utility.yul\":20252:20253   */\n      0x00\n        /* \"#utility.yul\":20244:20250   */\n      dup3\n        /* \"#utility.yul\":20240:20254   */\n      add\n        /* \"#utility.yul\":20233:20287   */\n      mstore\n        /* \"#utility.yul\":20116:20294   */\n      pop\n      jump\t// out\n        /* \"#utility.yul\":20300:20666   */\n    tag_239:\n        /* \"#utility.yul\":20442:20445   */\n      0x00\n        /* \"#utility.yul\":20463:20530   */\n      tag_447\n        /* \"#utility.yul\":20527:20529   */\n      0x1c\n        /* \"#utility.yul\":20522:20525   */\n      dup4\n        /* \"#utility.yul\":20463:20530   */\n      tag_196\n      jump\t// in\n    tag_447:\n        /* \"#utility.yul\":20456:20530   */\n      swap2\n      pop\n        /* \"#utility.yul\":20539:20632   */\n      tag_448\n        /* \"#utility.yul\":20628:20631   */\n      dup3\n        /* \"#utility.yul\":20539:20632   */\n      tag_238\n      jump\t// in\n    tag_448:\n        /* \"#utility.yul\":20657:20659   */\n      0x20\n        /* \"#utility.yul\":20652:20655   */\n      dup3\n        /* \"#utility.yul\":20648:20660   */\n      add\n        /* \"#utility.yul\":20641:20660   */\n      swap1\n      pop\n        /* \"#utility.yul\":20300:20666   */\n      swap2\n      swap1\n      pop\n      jump\t// out\n        /* \"#utility.yul\":20672:21091   */\n    tag_141:\n        /* \"#utility.yul\":20838:20842   */\n      0x00\n        /* \"#utility.yul\":20876:20878   */\n      0x20\n        /* \"#utility.yul\":20865:20874   */\n      dup3\n        /* \"#utility.yul\":20861:20879   */\n      add\n        /* \"#utility.yul\":20853:20879   */\n      swap1\n      pop\n        /* \"#utility.yul\":20925:20934   */\n      dup2\n        /* \"#utility.yul\":20919:20923   */\n      dup2\n        /* \"#utility.yul\":20915:20935   */\n      sub\n        /* \"#utility.yul\":20911:20912   */\n      0x00\n        /* \"#utility.yul\":20900:20909   */\n      dup4\n        /* \"#utility.yul\":20896:20913   */\n      add\n        /* \"#utility.yul\":20889:20936   */\n      mstore\n        /* \"#utility.yul\":20953:21084   */\n      tag_450\n        /* \"#utility.yul\":21079:21083   */\n      dup2\n        /* \"#utility.yul\":20953:21084   */\n      tag_239\n      jump\t// in\n    tag_450:\n        /* \"#utility.yul\":20945:21084   */\n      swap1\n      pop\n        /* \"#utility.yul\":20672:21091   */\n      swap2\n      swap1\n      pop\n      jump\t// out\n        /* \"#utility.yul\":21097:21238   */\n    tag_240:\n        /* \"#utility.yul\":21146:21150   */\n      0x00\n        /* \"#utility.yul\":21169:21172   */\n      dup2\n        /* \"#utility.yul\":21161:21172   */\n      swap1\n      pop\n        /* \"#utility.yul\":21192:21195   */\n      dup2\n        /* \"#utility.yul\":21189:21190   */\n      0x00\n        /* \"#utility.yul\":21182:21196   */\n      mstore\n        /* \"#utility.yul\":21226:21230   */\n      0x20\n        /* \"#utility.yul\":21223:21224   */\n      0x00\n        /* \"#utility.yul\":21213:21231   */\n      keccak256\n        /* \"#utility.yul\":21205:21231   */\n      swap1\n      pop\n        /* \"#utility.yul\":21097:21238   */\n      swap2\n      swap1\n      pop\n      jump\t// out\n        /* \"#utility.yul\":21244:21337   */\n    tag_241:\n        /* \"#utility.yul\":21281:21287   */\n      0x00\n        /* \"#utility.yul\":21328:21330   */\n      0x20\n        /* \"#utility.yul\":21323:21325   */\n      0x1f\n        /* \"#utility.yul\":21316:21321   */\n      dup4\n        /* \"#utility.yul\":21312:21326   */\n      add\n        /* \"#utility.yul\":21308:21331   */\n      div\n        /* \"#utility.yul\":21298:21331   */\n      swap1\n      pop\n        /* \"#utility.yul\":21244:21337   */\n      swap2\n      swap1\n      pop\n      jump\t// out\n        /* \"#utility.yul\":21343:21450   */\n    tag_242:\n        /* \"#utility.yul\":21387:21395   */\n      0x00\n        /* \"#utility.yul\":21437:21442   */\n      dup3\n        /* \"#utility.yul\":21431:21435   */\n      dup3\n        /* \"#utility.yul\":21427:21443   */\n      shl\n        /* \"#utility.yul\":21406:21443   */\n      swap1\n      pop\n        /* \"#utility.yul\":21343:21450   */\n      swap3\n      swap2\n      pop\n      pop\n      jump\t// out\n        /* \"#utility.yul\":21456:21849   */\n    tag_243:\n        /* \"#utility.yul\":21525:21531   */\n      0x00\n        /* \"#utility.yul\":21575:21576   */\n      0x08\n        /* \"#utility.yul\":21563:21573   */\n      dup4\n        /* \"#utility.yul\":21559:21577   */\n      mul\n        /* \"#utility.yul\":21598:21695   */\n      tag_455\n        /* \"#utility.yul\":21628:21694   */\n      0xffffffffffffffffffffffffffffffffffffffffffffffffffffffffffffffff\n        /* \"#utility.yul\":21617:21626   */\n      dup3\n        /* \"#utility.yul\":21598:21695   */\n      tag_242\n      jump\t// in\n    tag_455:\n        /* \"#utility.yul\":21716:21755   */\n      tag_456\n        /* \"#utility.yul\":21746:21754   */\n      dup7\n        /* \"#utility.yul\":21735:21744   */\n      dup4\n        /* \"#utility.yul\":21716:21755   */\n      tag_242\n      jump\t// in\n    tag_456:\n        /* \"#utility.yul\":21704:21755   */\n      swap6\n      pop\n        /* \"#utility.yul\":21788:21792   */\n      dup1\n        /* \"#utility.yul\":21784:21793   */\n      not\n        /* \"#utility.yul\":21777:21782   */\n      dup5\n        /* \"#utility.yul\":21773:21794   */\n      and\n        /* \"#utility.yul\":21764:21794   */\n      swap4\n      pop\n        /* \"#utility.yul\":21837:21841   */\n      dup1\n        /* \"#utility.yul\":21827:21835   */\n      dup7\n        /* \"#utility.yul\":21823:21842   */\n      and\n        /* \"#utility.yul\":21816:21821   */\n      dup5\n        /* \"#utility.yul\":21813:21843   */\n      or\n        /* \"#utility.yul\":21803:21843   */\n      swap3\n      pop\n        /* \"#utility.yul\":21532:21849   */\n      pop\n      pop\n        /* \"#utility.yul\":21456:21849   */\n      swap4\n      swap3\n      pop\n      pop\n      pop\n      jump\t// out\n        /* \"#utility.yul\":21855:21997   */\n    tag_244:\n        /* \"#utility.yul\":21905:21914   */\n      0x00\n        /* \"#utility.yul\":21938:21991   */\n      tag_458\n        /* \"#utility.yul\":21956:21990   */\n      tag_459\n        /* \"#utility.yul\":21965:21989   */\n      tag_460\n        /* \"#utility.yul\":21983:21988   */\n      dup5\n        /* \"#utility.yul\":21965:21989   */\n      tag_190\n      jump\t// in\n    tag_460:\n        /* \"#utility.yul\":21956:21990   */\n      tag_224\n      jump\t// in\n    tag_459:\n        /* \"#utility.yul\":21938:21991   */\n      tag_190\n      jump\t// in\n    tag_458:\n        /* \"#utility.yul\":21925:21991   */\n      swap1\n      pop\n        /* \"#utility.yul\":21855:21997   */\n      swap2\n      swap1\n      pop\n      jump\t// out\n        /* \"#utility.yul\":22003:22078   */\n    tag_245:\n        /* \"#utility.yul\":22046:22049   */\n      0x00\n        /* \"#utility.yul\":22067:22072   */\n      dup2\n        /* \"#utility.yul\":22060:22072   */\n      swap1\n      pop\n        /* \"#utility.yul\":22003:22078   */\n      swap2\n      swap1\n      pop\n      jump\t// out\n        /* \"#utility.yul\":22084:22353   */\n    tag_246:\n        /* \"#utility.yul\":22194:22233   */\n      tag_463\n        /* \"#utility.yul\":22225:22232   */\n      dup4\n        /* \"#utility.yul\":22194:22233   */\n      tag_244\n      jump\t// in\n    tag_463:\n        /* \"#utility.yul\":22255:22346   */\n      tag_464\n        /* \"#utility.yul\":22304:22345   */\n      tag_465\n        /* \"#utility.yul\":22328:22344   */\n      dup3\n        /* \"#utility.yul\":22304:22345   */\n      tag_245\n      jump\t// in\n    tag_465:\n        /* \"#utility.yul\":22296:22302   */\n      dup5\n        /* \"#utility.yul\":22289:22293   */\n      dup5\n        /* \"#utility.yul\":22283:22294   */\n      sload\n        /* \"#utility.yul\":22255:22346   */\n      tag_243\n      jump\t// in\n    tag_464:\n        /* \"#utility.yul\":22249:22253   */\n      dup3\n        /* \"#utility.yul\":22242:22347   */\n      sstore\n        /* \"#utility.yul\":22160:22353   */\n      pop\n        /* \"#utility.yul\":22084:22353   */\n      pop\n      pop\n      pop\n      jump\t// out\n        /* \"#utility.yul\":22359:22432   */\n    tag_247:\n        /* \"#utility.yul\":22404:22407   */\n      0x00\n        /* \"#utility.yul\":22425:22426   */\n      0x00\n        /* \"#utility.yul\":22418:22426   */\n      swap1\n      pop\n        /* \"#utility.yul\":22359:22432   */\n      swap1\n      jump\t// out\n        /* \"#utility.yul\":22438:22627   */\n    tag_248:\n        /* \"#utility.yul\":22515:22547   */\n      tag_468\n      tag_247\n      jump\t// in\n    tag_468:\n        /* \"#utility.yul\":22556:22621   */\n      tag_469\n        /* \"#utility.yul\":22614:22620   */\n      dup2\n        /* \"#utility.yul\":22606:22612   */\n      dup5\n        /* \"#utility.yul\":22600:22604   */\n      dup5\n        /* \"#utility.yul\":22556:22621   */\n      tag_246\n      jump\t// in\n    tag_469:\n        /* \"#utility.yul\":22491:22627   */\n      pop\n        /* \"#utility.yul\":22438:22627   */\n      pop\n      pop\n      jump\t// out\n        /* \"#utility.yul\":22633:22819   */\n    tag_249:\n        /* \"#utility.yul\":22693:22813   */\n    tag_471:\n        /* \"#utility.yul\":22710:22713   */\n      dup2\n        /* \"#utility.yul\":22703:22708   */\n      dup2\n        /* \"#utility.yul\":22700:22714   */\n      lt\n        /* \"#utility.yul\":22693:22813   */\n      iszero\n      tag_473\n      jumpi\n        /* \"#utility.yul\":22764:22803   */\n      tag_474\n        /* \"#utility.yul\":22801:22802   */\n      0x00\n        /* \"#utility.yul\":22794:22799   */\n      dup3\n        /* \"#utility.yul\":22764:22803   */\n      tag_248\n      jump\t// in\n    tag_474:\n        /* \"#utility.yul\":22737:22738   */\n      0x01\n        /* \"#utility.yul\":22730:22735   */\n      dup2\n        /* \"#utility.yul\":22726:22739   */\n      add\n        /* \"#utility.yul\":22717:22739   */\n      swap1\n      pop\n        /* \"#utility.yul\":22693:22813   */\n      jump(tag_471)\n    tag_473:\n        /* \"#utility.yul\":22633:22819   */\n      pop\n      pop\n      jump\t// out\n        /* \"#utility.yul\":22825:23368   */\n    tag_250:\n        /* \"#utility.yul\":22926:22928   */\n      0x1f\n        /* \"#utility.yul\":22921:22924   */\n      dup3\n        /* \"#utility.yul\":22918:22929   */\n      gt\n        /* \"#utility.yul\":22915:23361   */\n      iszero\n      tag_476\n      jumpi\n        /* \"#utility.yul\":22960:22998   */\n      tag_477\n        /* \"#utility.yul\":22992:22997   */\n      dup2\n        /* \"#utility.yul\":22960:22998   */\n      tag_240\n      jump\t// in\n    tag_477:\n        /* \"#utility.yul\":23044:23073   */\n      tag_478\n        /* \"#utility.yul\":23062:23072   */\n      dup5\n        /* \"#utility.yul\":23044:23073   */\n      tag_241\n      jump\t// in\n    tag_478:\n        /* \"#utility.yul\":23034:23042   */\n      dup2\n        /* \"#utility.yul\":23030:23074   */\n      add\n        /* \"#utility.yul\":23227:23229   */\n      0x20\n        /* \"#utility.yul\":23215:23225   */\n      dup6\n        /* \"#utility.yul\":23212:23230   */\n      lt\n        /* \"#utility.yul\":23209:23258   */\n      iszero\n      tag_479\n      jumpi\n        /* \"#utility.yul\":23248:23256   */\n      dup2\n        /* \"#utility.yul\":23233:23256   */\n      swap1\n      pop\n        /* \"#utility.yul\":23209:23258   */\n    tag_479:\n        /* \"#utility.yul\":23271:23351   */\n      tag_480\n        /* \"#utility.yul\":23327:23349   */\n      tag_481\n        /* \"#utility.yul\":23345:23348   */\n      dup6\n        /* \"#utility.yul\":23327:23349   */\n      tag_241\n      jump\t// in\n    tag_481:\n        /* \"#utility.yul\":23317:23325   */\n      dup4\n        /* \"#utility.yul\":23313:23350   */\n      add\n        /* \"#utility.yul\":23300:23311   */\n      dup3\n        /* \"#utility.yul\":23271:23351   */\n      tag_249\n      jump\t// in\n    tag_480:\n        /* \"#utility.yul\":22930:23361   */\n      pop\n      pop\n        /* \"#utility.yul\":22915:23361   */\n    tag_476:\n        /* \"#utility.yul\":22825:23368   */\n      pop\n      pop\n      pop\n      jump\t// out\n        /* \"#utility.yul\":23374:23491   */\n    tag_251:\n        /* \"#utility.yul\":23428:23436   */\n      0x00\n        /* \"#utility.yul\":23478:23483   */\n      dup3\n        /* \"#utility.yul\":23472:23476   */\n      dup3\n        /* \"#utility.yul\":23468:23484   */\n      shr\n        /* \"#utility.yul\":23447:23484   */\n      swap1\n      pop\n        /* \"#utility.yul\":23374:23491   */\n      swap3\n      swap2\n      pop\n      pop\n      jump\t// out\n        /* \"#utility.yul\":23497:23666   */\n    tag_252:\n        /* \"#utility.yul\":23541:23547   */\n      0x00\n        /* \"#utility.yul\":23574:23625   */\n      tag_484\n        /* \"#utility.yul\":23622:23623   */\n      0x00\n        /* \"#utility.yul\":23618:23624   */\n      not\n        /* \"#utility.yul\":23610:23615   */\n      dup5\n        /* \"#utility.yul\":23607:23608   */\n      0x08\n        /* \"#utility.yul\":23603:23616   */\n      mul\n        /* \"#utility.yul\":23574:23625   */\n      tag_251\n      jump\t// in\n    tag_484:\n        /* \"#utility.yul\":23570:23626   */\n      not\n        /* \"#utility.yul\":23655:23659   */\n      dup1\n        /* \"#utility.yul\":23649:23653   */\n      dup4\n        /* \"#utility.yul\":23645:23660   */\n      and\n        /* \"#utility.yul\":23635:23660   */\n      swap2\n      pop\n        /* \"#utility.yul\":23548:23666   */\n      pop\n        /* \"#utility.yul\":23497:23666   */\n      swap3\n      swap2\n      pop\n      pop\n      jump\t// out\n        /* \"#utility.yul\":23671:23966   */\n    tag_253:\n        /* \"#utility.yul\":23747:23751   */\n      0x00\n        /* \"#utility.yul\":23893:23922   */\n      tag_486\n        /* \"#utility.yul\":23918:23921   */\n      dup4\n        /* \"#utility.yul\":23912:23916   */\n      dup4\n        /* \"#utility.yul\":23893:23922   */\n      tag_252\n      jump\t// in\n    tag_486:\n        /* \"#utility.yul\":23885:23922   */\n      swap2\n      pop\n        /* \"#utility.yul\":23955:23958   */\n      dup3\n        /* \"#utility.yul\":23952:23953   */\n      0x02\n        /* \"#utility.yul\":23948:23959   */\n      mul\n        /* \"#utility.yul\":23942:23946   */\n      dup3\n        /* \"#utility.yul\":23939:23960   */\n      or\n        /* \"#utility.yul\":23931:23960   */\n      swap1\n      pop\n        /* \"#utility.yul\":23671:23966   */\n      swap3\n      swap2\n      pop\n      pop\n      jump\t// out\n        /* \"#utility.yul\":23971:25366   */\n    tag_144:\n        /* \"#utility.yul\":24088:24125   */\n      tag_488\n        /* \"#utility.yul\":24121:24124   */\n      dup3\n        /* \"#utility.yul\":24088:24125   */\n      tag_195\n      jump\t// in\n    tag_488:\n        /* \"#utility.yul\":24190:24208   */\n      0xffffffffffffffff\n        /* \"#utility.yul\":24182:24188   */\n      dup2\n        /* \"#utility.yul\":24179:24209   */\n      gt\n        /* \"#utility.yul\":24176:24232   */\n      iszero\n      tag_489\n      jumpi\n        /* \"#utility.yul\":24212:24230   */\n      tag_490\n      tag_217\n      jump\t// in\n    tag_490:\n        /* \"#utility.yul\":24176:24232   */\n    tag_489:\n        /* \"#utility.yul\":24256:24294   */\n      tag_491\n        /* \"#utility.yul\":24288:24292   */\n      dup3\n        /* \"#utility.yul\":24282:24293   */\n      sload\n        /* \"#utility.yul\":24256:24294   */\n      tag_75\n      jump\t// in\n    tag_491:\n        /* \"#utility.yul\":24341:24408   */\n      tag_492\n        /* \"#utility.yul\":24401:24407   */\n      dup3\n        /* \"#utility.yul\":24393:24399   */\n      dup3\n        /* \"#utility.yul\":24387:24391   */\n      dup6\n        /* \"#utility.yul\":24341:24408   */\n      tag_250\n      jump\t// in\n    tag_492:\n        /* \"#utility.yul\":24435:24436   */\n      0x00\n        /* \"#utility.yul\":24459:24463   */\n      0x20\n        /* \"#utility.yul\":24446:24463   */\n      swap1\n      pop\n        /* \"#utility.yul\":24491:24493   */\n      0x1f\n        /* \"#utility.yul\":24483:24489   */\n      dup4\n        /* \"#utility.yul\":24480:24494   */\n      gt\n        /* \"#utility.yul\":24508:24509   */\n      0x01\n        /* \"#utility.yul\":24503:25121   */\n      dup2\n      eq\n      tag_494\n      jumpi\n        /* \"#utility.yul\":25165:25166   */\n      0x00\n        /* \"#utility.yul\":25182:25188   */\n      dup5\n        /* \"#utility.yul\":25179:25256   */\n      iszero\n      tag_495\n      jumpi\n        /* \"#utility.yul\":25231:25240   */\n      dup3\n        /* \"#utility.yul\":25226:25229   */\n      dup8\n        /* \"#utility.yul\":25222:25241   */\n      add\n        /* \"#utility.yul\":25216:25242   */\n      mload\n        /* \"#utility.yul\":25207:25242   */\n      swap1\n      pop\n        /* \"#utility.yul\":25179:25256   */\n    tag_495:\n        /* \"#utility.yul\":25282:25349   */\n      tag_496\n        /* \"#utility.yul\":25342:25348   */\n      dup6\n        /* \"#utility.yul\":25335:25340   */\n      dup3\n        /* \"#utility.yul\":25282:25349   */\n      tag_253\n      jump\t// in\n    tag_496:\n        /* \"#utility.yul\":25276:25280   */\n      dup7\n        /* \"#utility.yul\":25269:25350   */\n      sstore\n        /* \"#utility.yul\":25138:25360   */\n      pop\n        /* \"#utility.yul\":24473:25360   */\n      jump(tag_493)\n        /* \"#utility.yul\":24503:25121   */\n    tag_494:\n        /* \"#utility.yul\":24555:24559   */\n      0x1f\n        /* \"#utility.yul\":24551:24560   */\n      not\n        /* \"#utility.yul\":24543:24549   */\n      dup5\n        /* \"#utility.yul\":24539:24561   */\n      and\n        /* \"#utility.yul\":24589:24626   */\n      tag_497\n        /* \"#utility.yul\":24621:24625   */\n      dup7\n        /* \"#utility.yul\":24589:24626   */\n      tag_240\n      jump\t// in\n    tag_497:\n        /* \"#utility.yul\":24648:24649   */\n      0x00\n        /* \"#utility.yul\":24662:24870   */\n    tag_498:\n        /* \"#utility.yul\":24676:24683   */\n      dup3\n        /* \"#utility.yul\":24673:24674   */\n      dup2\n        /* \"#utility.yul\":24670:24684   */\n      lt\n        /* \"#utility.yul\":24662:24870   */\n      iszero\n      tag_500\n      jumpi\n        /* \"#utility.yul\":24755:24764   */\n      dup5\n        /* \"#utility.yul\":24750:24753   */\n      dup10\n        /* \"#utility.yul\":24746:24765   */\n      add\n        /* \"#utility.yul\":24740:24766   */\n      mload\n        /* \"#utility.yul\":24732:24738   */\n      dup3\n        /* \"#utility.yul\":24725:24767   */\n      sstore\n        /* \"#utility.yul\":24806:24807   */\n      0x01\n        /* \"#utility.yul\":24798:24804   */\n      dup3\n        /* \"#utility.yul\":24794:24808   */\n      add\n        /* \"#utility.yul\":24784:24808   */\n      swap2\n      pop\n        /* \"#utility.yul\":24853:24855   */\n      0x20\n        /* \"#utility.yul\":24842:24851   */\n      dup6\n        /* \"#utility.yul\":24838:24856   */\n      add\n        /* \"#utility.yul\":24825:24856   */\n      swap5\n      pop\n        /* \"#utility.yul\":24699:24703   */\n      0x20\n        /* \"#utility.yul\":24696:24697   */\n      dup2\n        /* \"#utility.yul\":24692:24704   */\n      add\n        /* \"#utility.yul\":24687:24704   */\n      swap1\n      pop\n        /* \"#utility.yul\":24662:24870   */\n      jump(tag_498)\n    tag_500:\n        /* \"#utility.yul\":24898:24904   */\n      dup7\n        /* \"#utility.yul\":24889:24896   */\n      dup4\n        /* \"#utility.yul\":24886:24905   */\n      lt\n        /* \"#utility.yul\":24883:25062   */\n      iszero\n      tag_501\n      jumpi\n        /* \"#utility.yul\":24956:24965   */\n      dup5\n        /* \"#utility.yul\":24951:24954   */\n      dup10\n        /* \"#utility.yul\":24947:24966   */\n      add\n        /* \"#utility.yul\":24941:24967   */\n      mload\n        /* \"#utility.yul\":24999:25047   */\n      tag_502\n        /* \"#utility.yul\":25041:25045   */\n      0x1f\n        /* \"#utility.yul\":25033:25039   */\n      dup10\n        /* \"#utility.yul\":25029:25046   */\n      and\n        /* \"#utility.yul\":25018:25027   */\n      dup3\n        /* \"#utility.yul\":24999:25047   */\n      tag_252\n      jump\t// in\n    tag_502:\n        /* \"#utility.yul\":24991:24997   */\n      dup4\n        /* \"#utility.yul\":24984:25048   */\n      sstore\n        /* \"#utility.yul\":24906:25062   */\n      pop\n        /* \"#utility.yul\":24883:25062   */\n    tag_501:\n        /* \"#utility.yul\":25108:25109   */\n      0x01\n        /* \"#utility.yul\":25104:25105   */\n      0x02\n        /* \"#utility.yul\":25096:25102   */\n      dup9\n        /* \"#utility.yul\":25092:25106   */\n      mul\n        /* \"#utility.yul\":25088:25110   */\n      add\n        /* \"#utility.yul\":25082:25086   */\n      dup9\n        /* \"#utility.yul\":25075:25111   */\n      sstore\n        /* \"#utility.yul\":24510:25121   */\n      pop\n      pop\n      pop\n        /* \"#utility.yul\":24473:25360   */\n    tag_493:\n      pop\n        /* \"#utility.yul\":24063:25366   */\n      pop\n      pop\n      pop\n        /* \"#utility.yul\":23971:25366   */\n      pop\n      pop\n      jump\t// out\n        /* \"#utility.yul\":25372:26016   */\n    tag_146:\n        /* \"#utility.yul\":25569:25573   */\n      0x00\n        /* \"#utility.yul\":25607:25610   */\n      0x80\n        /* \"#utility.yul\":25596:25605   */\n      dup3\n        /* \"#utility.yul\":25592:25611   */\n      add\n        /* \"#utility.yul\":25584:25611   */\n      swap1\n      pop\n        /* \"#utility.yul\":25621:25692   */\n      tag_504\n        /* \"#utility.yul\":25689:25690   */\n      0x00\n        /* \"#utility.yul\":25678:25687   */\n      dup4\n        /* \"#utility.yul\":25674:25691   */\n      add\n        /* \"#utility.yul\":25665:25671   */\n      dup8\n        /* \"#utility.yul\":25621:25692   */\n      tag_193\n      jump\t// in\n    tag_504:\n        /* \"#utility.yul\":25702:25774   */\n      tag_505\n        /* \"#utility.yul\":25770:25772   */\n      0x20\n        /* \"#utility.yul\":25759:25768   */\n      dup4\n        /* \"#utility.yul\":25755:25773   */\n      add\n        /* \"#utility.yul\":25746:25752   */\n      dup7\n        /* \"#utility.yul\":25702:25774   */\n      tag_194\n      jump\t// in\n    tag_505:\n        /* \"#utility.yul\":25821:25830   */\n      dup2\n        /* \"#utility.yul\":25815:25819   */\n      dup2\n        /* \"#utility.yul\":25811:25831   */\n      sub\n        /* \"#utility.yul\":25806:25808   */\n      0x40\n        /* \"#utility.yul\":25795:25804   */\n      dup4\n        /* \"#utility.yul\":25791:25809   */\n      add\n        /* \"#utility.yul\":25784:25832   */\n      mstore\n        /* \"#utility.yul\":25849:25927   */\n      tag_506\n        /* \"#utility.yul\":25922:25926   */\n      dup2\n        /* \"#utility.yul\":25913:25919   */\n      dup6\n        /* \"#utility.yul\":25849:25927   */\n      tag_199\n      jump\t// in\n    tag_506:\n        /* \"#utility.yul\":25841:25927   */\n      swap1\n      pop\n        /* \"#utility.yul\":25937:26009   */\n      tag_507\n        /* \"#utility.yul\":26005:26007   */\n      0x60\n        /* \"#utility.yul\":25994:26003   */\n      dup4\n        /* \"#utility.yul\":25990:26008   */\n      add\n        /* \"#utility.yul\":25981:25987   */\n      dup5\n        /* \"#utility.yul\":25937:26009   */\n      tag_193\n      jump\t// in\n    tag_507:\n        /* \"#utility.yul\":25372:26016   */\n      swap6\n      swap5\n      pop\n      pop\n      pop\n      pop\n      pop\n      jump\t// out\n        /* \"#utility.yul\":26022:26213   */\n    tag_155:\n        /* \"#utility.yul\":26062:26065   */\n      0x00\n        /* \"#utility.yul\":26081:26101   */\n      tag_509\n        /* \"#utility.yul\":26099:26100   */\n      dup3\n        /* \"#utility.yul\":26081:26101   */\n      tag_190\n      jump\t// in\n    tag_509:\n        /* \"#utility.yul\":26076:26101   */\n      swap2\n      pop\n        /* \"#utility.yul\":26115:26135   */\n      tag_510\n        /* \"#utility.yul\":26133:26134   */\n      dup4\n        /* \"#utility.yul\":26115:26135   */\n      tag_190\n      jump\t// in\n    tag_510:\n        /* \"#utility.yul\":26110:26135   */\n      swap3\n      pop\n        /* \"#utility.yul\":26158:26159   */\n      dup3\n        /* \"#utility.yul\":26155:26156   */\n      dup3\n        /* \"#utility.yul\":26151:26160   */\n      add\n        /* \"#utility.yul\":26144:26160   */\n      swap1\n      pop\n        /* \"#utility.yul\":26179:26182   */\n      dup1\n        /* \"#utility.yul\":26176:26177   */\n      dup3\n        /* \"#utility.yul\":26173:26183   */\n      gt\n        /* \"#utility.yul\":26170:26206   */\n      iszero\n      tag_511\n      jumpi\n        /* \"#utility.yul\":26186:26204   */\n      tag_512\n      tag_235\n      jump\t// in\n    tag_512:\n        /* \"#utility.yul\":26170:26206   */\n    tag_511:\n        /* \"#utility.yul\":26022:26213   */\n      swap3\n      swap2\n      pop\n      pop\n      jump\t// out\n\n    auxdata: 0xa2646970667358221220205ea61ab65d06e0d9f40433ef54c846a459604efa2515fe39fd472dc555b3b864736f6c634300081e0033\n}\n",
				"bytecode": {
					"linkReferences": {},
					"object": "608060405261012c5f60146101000a81548161ffff021916908361ffff16021790555034801561002d575f5ffd5b50604051611fc7380380611fc7833981810160405281019061004f9190610235565b335f73ffffffffffffffffffffffffffffffffffffffff168173ffffffffffffffffffffffffffffffffffffffff16036100c0575f6040517f1e4fbdf70000000000000000000000000000000000000000000000000000000081526004016100b7919061026f565b60405180910390fd5b6100cf8161011660201b60201c565b508060025f6101000a81548173ffffffffffffffffffffffffffffffffffffffff021916908373ffffffffffffffffffffffffffffffffffffffff16021790555050610288565b5f5f5f9054906101000a900473ffffffffffffffffffffffffffffffffffffffff169050815f5f6101000a81548173ffffffffffffffffffffffffffffffffffffffff021916908373ffffffffffffffffffffffffffffffffffffffff1602179055508173ffffffffffffffffffffffffffffffffffffffff168173ffffffffffffffffffffffffffffffffffffffff167f8be0079c531659141344cd1fd0a4f28419497f9722a3daafe3b4186f6b6457e060405160405180910390a35050565b5f5ffd5b5f73ffffffffffffffffffffffffffffffffffffffff82169050919050565b5f610204826101db565b9050919050565b610214816101fa565b811461021e575f5ffd5b50565b5f8151905061022f8161020b565b92915050565b5f6020828403121561024a576102496101d7565b5b5f61025784828501610221565b91505092915050565b610269816101fa565b82525050565b5f6020820190506102825f830184610260565b92915050565b611d32806102955f395ff3fe608060405234801561000f575f5ffd5b50600436106100cd575f3560e01c8063715018a61161008a5780638da5cb5b116100645780638da5cb5b146101fd578063a3974b211461021b578063c3ad5ecb14610239578063f2fde38b14610269576100cd565b8063715018a6146101a75780637c9cd2bc146101b1578063820785cc146101cd576100cd565b806305a1b4a9146100d157806312e7ee1c146101055780633d9b569f1461013557806358bfa4ab14610151578063633782161461016d5780636eb1079714610189575b5f5ffd5b6100eb60048036038101906100e691906110ad565b610285565b6040516100fc959493929190611179565b60405180910390f35b61011f600480360381019061011a91906111d1565b610376565b60405161012c9190611390565b60405180910390f35b61014f600480360381019061014a91906110ad565b610511565b005b61016b600480360381019061016691906113e7565b610760565b005b610187600480360381019061018291906110ad565b610787565b005b610191610938565b60405161019e9190611421565b60405180910390f35b6101af61094b565b005b6101cb60048036038101906101c69190611566565b61095e565b005b6101e760048036038101906101e291906111d1565b610b63565b6040516101f491906115ad565b60405180910390f35b610205610c38565b60405161021291906115c6565b60405180910390f35b610223610c5f565b604051610230919061163a565b60405180910390f35b610253600480360381019061024e9190611653565b610c84565b60405161026091906116f1565b60405180910390f35b610283600480360381019061027e91906111d1565b610dfb565b005b6001602052815f5260405f20818154811061029e575f80fd5b905f5260205f2090600502015f9150915050805f015490806001015f9054906101000a900473ffffffffffffffffffffffffffffffffffffffff16908060020180546102e99061173e565b80601f01602080910402602001604051908101604052809291908181526020018280546103159061173e565b80156103605780601f1061033757610100808354040283529160200191610360565b820191905f5260205f20905b81548152906001019060200180831161034357829003601f168201915b5050505050908060030154908060040154905085565b606060015f8373ffffffffffffffffffffffffffffffffffffffff1673ffffffffffffffffffffffffffffffffffffffff1681526020019081526020015f20805480602002602001604051908101604052809291908181526020015f905b82821015610506578382905f5260205f2090600502016040518060a00160405290815f8201548152602001600182015f9054906101000a900473ffffffffffffffffffffffffffffffffffffffff1673ffffffffffffffffffffffffffffffffffffffff1673ffffffffffffffffffffffffffffffffffffffff1681526020016002820180546104639061173e565b80601f016020809104026020016040519081016040528092919081815260200182805461048f9061173e565b80156104da5780601f106104b1576101008083540402835291602001916104da565b820191905f5260205f20905b8154815290600101906020018083116104bd57829003601f168201915b5050505050815260200160038201548152602001600482015481525050815260200190600101906103d4565b505050509050919050565b8060015f8473ffffffffffffffffffffffffffffffffffffffff1673ffffffffffffffffffffffffffffffffffffffff1681526020019081526020015f2082815481106105615761056061176e565b5b905f5260205f2090600502015f0154146105b0576040517f08c379a00000000000000000000000000000000000000000000000000000000081526004016105a7906117e5565b60405180910390fd5b5f60015f8473ffffffffffffffffffffffffffffffffffffffff1673ffffffffffffffffffffffffffffffffffffffff1681526020019081526020015f208281548110610600576105ff61176e565b5b905f5260205f2090600502015f01541161064f576040517f08c379a00000000000000000000000000000000000000000000000000000000081526004016106469061184d565b60405180910390fd5b60015f8373ffffffffffffffffffffffffffffffffffffffff1673ffffffffffffffffffffffffffffffffffffffff1681526020019081526020015f20818154811061069e5761069d61176e565b5b905f5260205f2090600502015f015f8154809291906106bc90611898565b91905055507f762c2616349603ac16eba0de8e6141b79129a07ab63bd99e0a80b3a47171694333838360015f8773ffffffffffffffffffffffffffffffffffffffff1673ffffffffffffffffffffffffffffffffffffffff1681526020019081526020015f2085815481106107345761073361176e565b5b905f5260205f2090600502016004015460405161075494939291906118bf565b60405180910390a15050565b610768610e7f565b805f60146101000a81548161ffff021916908361ffff16021790555050565b8060015f8473ffffffffffffffffffffffffffffffffffffffff1673ffffffffffffffffffffffffffffffffffffffff1681526020019081526020015f2082815481106107d7576107d661176e565b5b905f5260205f2090600502015f015414610826576040517f08c379a000000000000000000000000000000000000000000000000000000000815260040161081d9061194c565b60405180910390fd5b60015f8373ffffffffffffffffffffffffffffffffffffffff1673ffffffffffffffffffffffffffffffffffffffff1681526020019081526020015f2081815481106108755761087461176e565b5b905f5260205f2090600502016004015f8154809291906108949061196a565b91905055507fe8a76fc0f16d11a00d1e93b689b63d76cf60af914dd3d915375dc41d01a0c3c833838360015f8773ffffffffffffffffffffffffffffffffffffffff1673ffffffffffffffffffffffffffffffffffffffff1681526020019081526020015f20858154811061090c5761090b61176e565b5b905f5260205f2090600502016004015460405161092c94939291906118bf565b60405180910390a15050565b5f60149054906101000a900461ffff1681565b610953610e7f565b61095c5f610f06565b565b5f60149054906101000a900461ffff1661ffff16815111156109b5576040517f08c379a00000000000000000000000000000000000000000000000000000000081526004016109ac906119fb565b60405180910390fd5b5f6040518060a0016040528060015f3373ffffffffffffffffffffffffffffffffffffffff1673ffffffffffffffffffffffffffffffffffffffff1681526020019081526020015f208054905081526020013373ffffffffffffffffffffffffffffffffffffffff1681526020018381526020014281526020015f815250905060015f3373ffffffffffffffffffffffffffffffffffffffff1673ffffffffffffffffffffffffffffffffffffffff1681526020019081526020015f2081908060018154018082558091505060019003905f5260205f2090600502015f909190919091505f820151815f01556020820151816001015f6101000a81548173ffffffffffffffffffffffffffffffffffffffff021916908373ffffffffffffffffffffffffffffffffffffffff1602179055506040820151816002019081610afc9190611bb0565b50606082015181600301556080820151816004015550507f16fd3c13e9d46923e0a8bce11c7b473ec508a72e6c96cd2404b29ce972afc29e815f0151826020015183604001518460600151604051610b579493929190611c7f565b60405180910390a15050565b5f5f5f90505f5f90505b60015f8573ffffffffffffffffffffffffffffffffffffffff1673ffffffffffffffffffffffffffffffffffffffff1681526020019081526020015f2080549050811015610c2e5760015f8573ffffffffffffffffffffffffffffffffffffffff1673ffffffffffffffffffffffffffffffffffffffff1681526020019081526020015f208181548110610c0457610c0361176e565b5b905f5260205f2090600502016004015482610c1f9190611cc9565b91508080600101915050610b6d565b5080915050919050565b5f5f5f9054906101000a900473ffffffffffffffffffffffffffffffffffffffff16905090565b60025f9054906101000a900473ffffffffffffffffffffffffffffffffffffffff1681565b610c8c610fce565b60015f3373ffffffffffffffffffffffffffffffffffffffff1673ffffffffffffffffffffffffffffffffffffffff1681526020019081526020015f208281548110610cdb57610cda61176e565b5b905f5260205f2090600502016040518060a00160405290815f8201548152602001600182015f9054906101000a900473ffffffffffffffffffffffffffffffffffffffff1673ffffffffffffffffffffffffffffffffffffffff1673ffffffffffffffffffffffffffffffffffffffff168152602001600282018054610d609061173e565b80601f0160208091040260200160405190810160405280929190818152602001828054610d8c9061173e565b8015610dd75780601f10610dae57610100808354040283529160200191610dd7565b820191905f5260205f20905b815481529060010190602001808311610dba57829003601f168201915b50505050508152602001600382015481526020016004820154815250509050919050565b610e03610e7f565b5f73ffffffffffffffffffffffffffffffffffffffff168173ffffffffffffffffffffffffffffffffffffffff1603610e73575f6040517f1e4fbdf7000000000000000000000000000000000000000000000000000000008152600401610e6a91906115c6565b60405180910390fd5b610e7c81610f06565b50565b610e87610fc7565b73ffffffffffffffffffffffffffffffffffffffff16610ea5610c38565b73ffffffffffffffffffffffffffffffffffffffff1614610f0457610ec8610fc7565b6040517f118cdaa7000000000000000000000000000000000000000000000000000000008152600401610efb91906115c6565b60405180910390fd5b565b5f5f5f9054906101000a900473ffffffffffffffffffffffffffffffffffffffff169050815f5f6101000a81548173ffffffffffffffffffffffffffffffffffffffff021916908373ffffffffffffffffffffffffffffffffffffffff1602179055508173ffffffffffffffffffffffffffffffffffffffff168173ffffffffffffffffffffffffffffffffffffffff167f8be0079c531659141344cd1fd0a4f28419497f9722a3daafe3b4186f6b6457e060405160405180910390a35050565b5f33905090565b6040518060a001604052805f81526020015f73ffffffffffffffffffffffffffffffffffffffff168152602001606081526020015f81526020015f81525090565b5f604051905090565b5f5ffd5b5f5ffd5b5f73ffffffffffffffffffffffffffffffffffffffff82169050919050565b5f61104982611020565b9050919050565b6110598161103f565b8114611063575f5ffd5b50565b5f8135905061107481611050565b92915050565b5f819050919050565b61108c8161107a565b8114611096575f5ffd5b50565b5f813590506110a781611083565b92915050565b5f5f604083850312156110c3576110c2611018565b5b5f6110d085828601611066565b92505060206110e185828601611099565b9150509250929050565b6110f48161107a565b82525050565b6111038161103f565b82525050565b5f81519050919050565b5f82825260208201905092915050565b8281835e5f83830152505050565b5f601f19601f8301169050919050565b5f61114b82611109565b6111558185611113565b9350611165818560208601611123565b61116e81611131565b840191505092915050565b5f60a08201905061118c5f8301886110eb565b61119960208301876110fa565b81810360408301526111ab8186611141565b90506111ba60608301856110eb565b6111c760808301846110eb565b9695505050505050565b5f602082840312156111e6576111e5611018565b5b5f6111f384828501611066565b91505092915050565b5f81519050919050565b5f82825260208201905092915050565b5f819050602082019050919050565b61122e8161107a565b82525050565b61123d8161103f565b82525050565b5f82825260208201905092915050565b5f61125d82611109565b6112678185611243565b9350611277818560208601611123565b61128081611131565b840191505092915050565b5f60a083015f8301516112a05f860182611225565b5060208301516112b36020860182611234565b50604083015184820360408601526112cb8282611253565b91505060608301516112e06060860182611225565b5060808301516112f36080860182611225565b508091505092915050565b5f611309838361128b565b905092915050565b5f602082019050919050565b5f611327826111fc565b6113318185611206565b93508360208202850161134385611216565b805f5b8581101561137e578484038952815161135f85826112fe565b945061136a83611311565b925060208a01995050600181019050611346565b50829750879550505050505092915050565b5f6020820190508181035f8301526113a8818461131d565b905092915050565b5f61ffff82169050919050565b6113c6816113b0565b81146113d0575f5ffd5b50565b5f813590506113e1816113bd565b92915050565b5f602082840312156113fc576113fb611018565b5b5f611409848285016113d3565b91505092915050565b61141b816113b0565b82525050565b5f6020820190506114345f830184611412565b92915050565b5f5ffd5b5f5ffd5b7f4e487b71000000000000000000000000000000000000000000000000000000005f52604160045260245ffd5b61147882611131565b810181811067ffffffffffffffff8211171561149757611496611442565b5b80604052505050565b5f6114a961100f565b90506114b5828261146f565b919050565b5f67ffffffffffffffff8211156114d4576114d3611442565b5b6114dd82611131565b9050602081019050919050565b828183375f83830152505050565b5f61150a611505846114ba565b6114a0565b9050828152602081018484840111156115265761152561143e565b5b6115318482856114ea565b509392505050565b5f82601f83011261154d5761154c61143a565b5b813561155d8482602086016114f8565b91505092915050565b5f6020828403121561157b5761157a611018565b5b5f82013567ffffffffffffffff8111156115985761159761101c565b5b6115a484828501611539565b91505092915050565b5f6020820190506115c05f8301846110eb565b92915050565b5f6020820190506115d95f8301846110fa565b92915050565b5f819050919050565b5f6116026115fd6115f884611020565b6115df565b611020565b9050919050565b5f611613826115e8565b9050919050565b5f61162482611609565b9050919050565b6116348161161a565b82525050565b5f60208201905061164d5f83018461162b565b92915050565b5f6020828403121561166857611667611018565b5b5f61167584828501611099565b91505092915050565b5f60a083015f8301516116935f860182611225565b5060208301516116a66020860182611234565b50604083015184820360408601526116be8282611253565b91505060608301516116d36060860182611225565b5060808301516116e66080860182611225565b508091505092915050565b5f6020820190508181035f830152611709818461167e565b905092915050565b7f4e487b71000000000000000000000000000000000000000000000000000000005f52602260045260245ffd5b5f600282049050600182168061175557607f821691505b60208210810361176857611767611711565b5b50919050565b7f4e487b71000000000000000000000000000000000000000000000000000000005f52603260045260245ffd5b7f547765657420446f6573206e6f742065786973740000000000000000000000005f82015250565b5f6117cf601483611113565b91506117da8261179b565b602082019050919050565b5f6020820190508181035f8301526117fc816117c3565b9050919050565b7f547777657420646f6573206e6f742068617665204c696b6573000000000000005f82015250565b5f611837601983611113565b915061184282611803565b602082019050919050565b5f6020820190508181035f8301526118648161182b565b9050919050565b7f4e487b71000000000000000000000000000000000000000000000000000000005f52601160045260245ffd5b5f6118a28261107a565b91505f82036118b4576118b361186b565b5b600182039050919050565b5f6080820190506118d25f8301876110fa565b6118df60208301866110fa565b6118ec60408301856110eb565b6118f960608301846110eb565b95945050505050565b7f547765657420446f6573204e6f742045786973740000000000000000000000005f82015250565b5f611936601483611113565b915061194182611902565b602082019050919050565b5f6020820190508181035f8301526119638161192a565b9050919050565b5f6119748261107a565b91507fffffffffffffffffffffffffffffffffffffffffffffffffffffffffffffffff82036119a6576119a561186b565b5b600182019050919050565b7f5477656574204578656363656420746865206d6178206c656e677468000000005f82015250565b5f6119e5601c83611113565b91506119f0826119b1565b602082019050919050565b5f6020820190508181035f830152611a12816119d9565b9050919050565b5f819050815f5260205f209050919050565b5f6020601f8301049050919050565b5f82821b905092915050565b5f60088302611a757fffffffffffffffffffffffffffffffffffffffffffffffffffffffffffffffff82611a3a565b611a7f8683611a3a565b95508019841693508086168417925050509392505050565b5f611ab1611aac611aa78461107a565b6115df565b61107a565b9050919050565b5f819050919050565b611aca83611a97565b611ade611ad682611ab8565b848454611a46565b825550505050565b5f5f905090565b611af5611ae6565b611b00818484611ac1565b505050565b5b81811015611b2357611b185f82611aed565b600181019050611b06565b5050565b601f821115611b6857611b3981611a19565b611b4284611a2b565b81016020851015611b51578190505b611b65611b5d85611a2b565b830182611b05565b50505b505050565b5f82821c905092915050565b5f611b885f1984600802611b6d565b1980831691505092915050565b5f611ba08383611b79565b9150826002028217905092915050565b611bb982611109565b67ffffffffffffffff811115611bd257611bd1611442565b5b611bdc825461173e565b611be7828285611b27565b5f60209050601f831160018114611c18575f8415611c06578287015190505b611c108582611b95565b865550611c77565b601f198416611c2686611a19565b5f5b82811015611c4d57848901518255600182019150602085019450602081019050611c28565b86831015611c6a5784890151611c66601f891682611b79565b8355505b6001600288020188555050505b505050505050565b5f608082019050611c925f8301876110eb565b611c9f60208301866110fa565b8181036040830152611cb18185611141565b9050611cc060608301846110eb565b95945050505050565b5f611cd38261107a565b9150611cde8361107a565b9250828201905080821115611cf657611cf561186b565b5b9291505056fea2646970667358221220205ea61ab65d06e0d9f40433ef54c846a459604efa2515fe39fd472dc555b3b864736f6c634300081e0033",
					"opcodes": "PUSH1 0x80 PUSH1 0x40 MSTORE PUSH2 0x12C PUSH0 PUSH1 0x14 PUSH2 0x100 EXP DUP2 SLOAD DUP2 PUSH2 0xFFFF MUL NOT AND SWAP1 DUP4 PUSH2 0xFFFF AND MUL OR SWAP1 SSTORE POP CALLVALUE DUP1 ISZERO PUSH2 0x2D JUMPI PUSH0 PUSH0 REVERT JUMPDEST POP PUSH1 0x40 MLOAD PUSH2 0x1FC7 CODESIZE SUB DUP1 PUSH2 0x1FC7 DUP4 CODECOPY DUP2 DUP2 ADD PUSH1 0x40 MSTORE DUP2 ADD SWAP1 PUSH2 0x4F SWAP2 SWAP1 PUSH2 0x235 JUMP JUMPDEST CALLER PUSH0 PUSH20 0xFFFFFFFFFFFFFFFFFFFFFFFFFFFFFFFFFFFFFFFF AND DUP2 PUSH20 0xFFFFFFFFFFFFFFFFFFFFFFFFFFFFFFFFFFFFFFFF AND SUB PUSH2 0xC0 JUMPI PUSH0 PUSH1 0x40 MLOAD PUSH32 0x1E4FBDF700000000000000000000000000000000000000000000000000000000 DUP2 MSTORE PUSH1 0x4 ADD PUSH2 0xB7 SWAP2 SWAP1 PUSH2 0x26F JUMP JUMPDEST PUSH1 0x40 MLOAD DUP1 SWAP2 SUB SWAP1 REVERT JUMPDEST PUSH2 0xCF DUP2 PUSH2 0x116 PUSH1 0x20 SHL PUSH1 0x20 SHR JUMP JUMPDEST POP DUP1 PUSH1 0x2 PUSH0 PUSH2 0x100 EXP DUP2 SLOAD DUP2 PUSH20 0xFFFFFFFFFFFFFFFFFFFFFFFFFFFFFFFFFFFFFFFF MUL NOT AND SWAP1 DUP4 PUSH20 0xFFFFFFFFFFFFFFFFFFFFFFFFFFFFFFFFFFFFFFFF AND MUL OR SWAP1 SSTORE POP POP PUSH2 0x288 JUMP JUMPDEST PUSH0 PUSH0 PUSH0 SWAP1 SLOAD SWAP1 PUSH2 0x100 EXP SWAP1 DIV PUSH20 0xFFFFFFFFFFFFFFFFFFFFFFFFFFFFFFFFFFFFFFFF AND SWAP1 POP DUP2 PUSH0 PUSH0 PUSH2 0x100 EXP DUP2 SLOAD DUP2 PUSH20 0xFFFFFFFFFFFFFFFFFFFFFFFFFFFFFFFFFFFFFFFF MUL NOT AND SWAP1 DUP4 PUSH20 0xFFFFFFFFFFFFFFFFFFFFFFFFFFFFFFFFFFFFFFFF AND MUL OR SWAP1 SSTORE POP DUP2 PUSH20 0xFFFFFFFFFFFFFFFFFFFFFFFFFFFFFFFFFFFFFFFF AND DUP2 PUSH20 0xFFFFFFFFFFFFFFFFFFFFFFFFFFFFFFFFFFFFFFFF AND PUSH32 0x8BE0079C531659141344CD1FD0A4F28419497F9722A3DAAFE3B4186F6B6457E0 PUSH1 0x40 MLOAD PUSH1 0x40 MLOAD DUP1 SWAP2 SUB SWAP1 LOG3 POP POP JUMP JUMPDEST PUSH0 PUSH0 REVERT JUMPDEST PUSH0 PUSH20 0xFFFFFFFFFFFFFFFFFFFFFFFFFFFFFFFFFFFFFFFF DUP3 AND SWAP1 POP SWAP2 SWAP1 POP JUMP JUMPDEST PUSH0 PUSH2 0x204 DUP3 PUSH2 0x1DB JUMP JUMPDEST SWAP1 POP SWAP2 SWAP1 POP JUMP JUMPDEST PUSH2 0x214 DUP2 PUSH2 0x1FA JUMP JUMPDEST DUP2 EQ PUSH2 0x21E JUMPI PUSH0 PUSH0 REVERT JUMPDEST POP JUMP JUMPDEST PUSH0 DUP2 MLOAD SWAP1 POP PUSH2 0x22F DUP2 PUSH2 0x20B JUMP JUMPDEST SWAP3 SWAP2 POP POP JUMP JUMPDEST PUSH0 PUSH1 0x20 DUP3 DUP5 SUB SLT ISZERO PUSH2 0x24A JUMPI PUSH2 0x249 PUSH2 0x1D7 JUMP JUMPDEST JUMPDEST PUSH0 PUSH2 0x257 DUP5 DUP3 DUP6 ADD PUSH2 0x221 JUMP JUMPDEST SWAP2 POP POP SWAP3 SWAP2 POP POP JUMP JUMPDEST PUSH2 0x269 DUP2 PUSH2 0x1FA JUMP JUMPDEST DUP3 MSTORE POP POP JUMP JUMPDEST PUSH0 PUSH1 0x20 DUP3 ADD SWAP1 POP PUSH2 0x282 PUSH0 DUP4 ADD DUP5 PUSH2 0x260 JUMP JUMPDEST SWAP3 SWAP2 POP POP JUMP JUMPDEST PUSH2 0x1D32 DUP1 PUSH2 0x295 PUSH0 CODECOPY PUSH0 RETURN INVALID PUSH1 0x80 PUSH1 0x40 MSTORE CALLVALUE DUP1 ISZERO PUSH2 0xF JUMPI PUSH0 PUSH0 REVERT JUMPDEST POP PUSH1 0x4 CALLDATASIZE LT PUSH2 0xCD JUMPI PUSH0 CALLDATALOAD PUSH1 0xE0 SHR DUP1 PUSH4 0x715018A6 GT PUSH2 0x8A JUMPI DUP1 PUSH4 0x8DA5CB5B GT PUSH2 0x64 JUMPI DUP1 PUSH4 0x8DA5CB5B EQ PUSH2 0x1FD JUMPI DUP1 PUSH4 0xA3974B21 EQ PUSH2 0x21B JUMPI DUP1 PUSH4 0xC3AD5ECB EQ PUSH2 0x239 JUMPI DUP1 PUSH4 0xF2FDE38B EQ PUSH2 0x269 JUMPI PUSH2 0xCD JUMP JUMPDEST DUP1 PUSH4 0x715018A6 EQ PUSH2 0x1A7 JUMPI DUP1 PUSH4 0x7C9CD2BC EQ PUSH2 0x1B1 JUMPI DUP1 PUSH4 0x820785CC EQ PUSH2 0x1CD JUMPI PUSH2 0xCD JUMP JUMPDEST DUP1 PUSH4 0x5A1B4A9 EQ PUSH2 0xD1 JUMPI DUP1 PUSH4 0x12E7EE1C EQ PUSH2 0x105 JUMPI DUP1 PUSH4 0x3D9B569F EQ PUSH2 0x135 JUMPI DUP1 PUSH4 0x58BFA4AB EQ PUSH2 0x151 JUMPI DUP1 PUSH4 0x63378216 EQ PUSH2 0x16D JUMPI DUP1 PUSH4 0x6EB10797 EQ PUSH2 0x189 JUMPI JUMPDEST PUSH0 PUSH0 REVERT JUMPDEST PUSH2 0xEB PUSH1 0x4 DUP1 CALLDATASIZE SUB DUP2 ADD SWAP1 PUSH2 0xE6 SWAP2 SWAP1 PUSH2 0x10AD JUMP JUMPDEST PUSH2 0x285 JUMP JUMPDEST PUSH1 0x40 MLOAD PUSH2 0xFC SWAP6 SWAP5 SWAP4 SWAP3 SWAP2 SWAP1 PUSH2 0x1179 JUMP JUMPDEST PUSH1 0x40 MLOAD DUP1 SWAP2 SUB SWAP1 RETURN JUMPDEST PUSH2 0x11F PUSH1 0x4 DUP1 CALLDATASIZE SUB DUP2 ADD SWAP1 PUSH2 0x11A SWAP2 SWAP1 PUSH2 0x11D1 JUMP JUMPDEST PUSH2 0x376 JUMP JUMPDEST PUSH1 0x40 MLOAD PUSH2 0x12C SWAP2 SWAP1 PUSH2 0x1390 JUMP JUMPDEST PUSH1 0x40 MLOAD DUP1 SWAP2 SUB SWAP1 RETURN JUMPDEST PUSH2 0x14F PUSH1 0x4 DUP1 CALLDATASIZE SUB DUP2 ADD SWAP1 PUSH2 0x14A SWAP2 SWAP1 PUSH2 0x10AD JUMP JUMPDEST PUSH2 0x511 JUMP JUMPDEST STOP JUMPDEST PUSH2 0x16B PUSH1 0x4 DUP1 CALLDATASIZE SUB DUP2 ADD SWAP1 PUSH2 0x166 SWAP2 SWAP1 PUSH2 0x13E7 JUMP JUMPDEST PUSH2 0x760 JUMP JUMPDEST STOP JUMPDEST PUSH2 0x187 PUSH1 0x4 DUP1 CALLDATASIZE SUB DUP2 ADD SWAP1 PUSH2 0x182 SWAP2 SWAP1 PUSH2 0x10AD JUMP JUMPDEST PUSH2 0x787 JUMP JUMPDEST STOP JUMPDEST PUSH2 0x191 PUSH2 0x938 JUMP JUMPDEST PUSH1 0x40 MLOAD PUSH2 0x19E SWAP2 SWAP1 PUSH2 0x1421 JUMP JUMPDEST PUSH1 0x40 MLOAD DUP1 SWAP2 SUB SWAP1 RETURN JUMPDEST PUSH2 0x1AF PUSH2 0x94B JUMP JUMPDEST STOP JUMPDEST PUSH2 0x1CB PUSH1 0x4 DUP1 CALLDATASIZE SUB DUP2 ADD SWAP1 PUSH2 0x1C6 SWAP2 SWAP1 PUSH2 0x1566 JUMP JUMPDEST PUSH2 0x95E JUMP JUMPDEST STOP JUMPDEST PUSH2 0x1E7 PUSH1 0x4 DUP1 CALLDATASIZE SUB DUP2 ADD SWAP1 PUSH2 0x1E2 SWAP2 SWAP1 PUSH2 0x11D1 JUMP JUMPDEST PUSH2 0xB63 JUMP JUMPDEST PUSH1 0x40 MLOAD PUSH2 0x1F4 SWAP2 SWAP1 PUSH2 0x15AD JUMP JUMPDEST PUSH1 0x40 MLOAD DUP1 SWAP2 SUB SWAP1 RETURN JUMPDEST PUSH2 0x205 PUSH2 0xC38 JUMP JUMPDEST PUSH1 0x40 MLOAD PUSH2 0x212 SWAP2 SWAP1 PUSH2 0x15C6 JUMP JUMPDEST PUSH1 0x40 MLOAD DUP1 SWAP2 SUB SWAP1 RETURN JUMPDEST PUSH2 0x223 PUSH2 0xC5F JUMP JUMPDEST PUSH1 0x40 MLOAD PUSH2 0x230 SWAP2 SWAP1 PUSH2 0x163A JUMP JUMPDEST PUSH1 0x40 MLOAD DUP1 SWAP2 SUB SWAP1 RETURN JUMPDEST PUSH2 0x253 PUSH1 0x4 DUP1 CALLDATASIZE SUB DUP2 ADD SWAP1 PUSH2 0x24E SWAP2 SWAP1 PUSH2 0x1653 JUMP JUMPDEST PUSH2 0xC84 JUMP JUMPDEST PUSH1 0x40 MLOAD PUSH2 0x260 SWAP2 SWAP1 PUSH2 0x16F1 JUMP JUMPDEST PUSH1 0x40 MLOAD DUP1 SWAP2 SUB SWAP1 RETURN JUMPDEST PUSH2 0x283 PUSH1 0x4 DUP1 CALLDATASIZE SUB DUP2 ADD SWAP1 PUSH2 0x27E SWAP2 SWAP1 PUSH2 0x11D1 JUMP JUMPDEST PUSH2 0xDFB JUMP JUMPDEST STOP JUMPDEST PUSH1 0x1 PUSH1 0x20 MSTORE DUP2 PUSH0 MSTORE PUSH1 0x40 PUSH0 KECCAK256 DUP2 DUP2 SLOAD DUP2 LT PUSH2 0x29E JUMPI PUSH0 DUP1 REVERT JUMPDEST SWAP1 PUSH0 MSTORE PUSH1 0x20 PUSH0 KECCAK256 SWAP1 PUSH1 0x5 MUL ADD PUSH0 SWAP2 POP SWAP2 POP POP DUP1 PUSH0 ADD SLOAD SWAP1 DUP1 PUSH1 0x1 ADD PUSH0 SWAP1 SLOAD SWAP1 PUSH2 0x100 EXP SWAP1 DIV PUSH20 0xFFFFFFFFFFFFFFFFFFFFFFFFFFFFFFFFFFFFFFFF AND SWAP1 DUP1 PUSH1 0x2 ADD DUP1 SLOAD PUSH2 0x2E9 SWAP1 PUSH2 0x173E JUMP JUMPDEST DUP1 PUSH1 0x1F ADD PUSH1 0x20 DUP1 SWAP2 DIV MUL PUSH1 0x20 ADD PUSH1 0x40 MLOAD SWAP1 DUP2 ADD PUSH1 0x40 MSTORE DUP1 SWAP3 SWAP2 SWAP1 DUP2 DUP2 MSTORE PUSH1 0x20 ADD DUP3 DUP1 SLOAD PUSH2 0x315 SWAP1 PUSH2 0x173E JUMP JUMPDEST DUP1 ISZERO PUSH2 0x360 JUMPI DUP1 PUSH1 0x1F LT PUSH2 0x337 JUMPI PUSH2 0x100 DUP1 DUP4 SLOAD DIV MUL DUP4 MSTORE SWAP2 PUSH1 0x20 ADD SWAP2 PUSH2 0x360 JUMP JUMPDEST DUP3 ADD SWAP2 SWAP1 PUSH0 MSTORE PUSH1 0x20 PUSH0 KECCAK256 SWAP1 JUMPDEST DUP2 SLOAD DUP2 MSTORE SWAP1 PUSH1 0x1 ADD SWAP1 PUSH1 0x20 ADD DUP1 DUP4 GT PUSH2 0x343 JUMPI DUP3 SWAP1 SUB PUSH1 0x1F AND DUP3 ADD SWAP2 JUMPDEST POP POP POP POP POP SWAP1 DUP1 PUSH1 0x3 ADD SLOAD SWAP1 DUP1 PUSH1 0x4 ADD SLOAD SWAP1 POP DUP6 JUMP JUMPDEST PUSH1 0x60 PUSH1 0x1 PUSH0 DUP4 PUSH20 0xFFFFFFFFFFFFFFFFFFFFFFFFFFFFFFFFFFFFFFFF AND PUSH20 0xFFFFFFFFFFFFFFFFFFFFFFFFFFFFFFFFFFFFFFFF AND DUP2 MSTORE PUSH1 0x20 ADD SWAP1 DUP2 MSTORE PUSH1 0x20 ADD PUSH0 KECCAK256 DUP1 SLOAD DUP1 PUSH1 0x20 MUL PUSH1 0x20 ADD PUSH1 0x40 MLOAD SWAP1 DUP2 ADD PUSH1 0x40 MSTORE DUP1 SWAP3 SWAP2 SWAP1 DUP2 DUP2 MSTORE PUSH1 0x20 ADD PUSH0 SWAP1 JUMPDEST DUP3 DUP3 LT ISZERO PUSH2 0x506 JUMPI DUP4 DUP3 SWAP1 PUSH0 MSTORE PUSH1 0x20 PUSH0 KECCAK256 SWAP1 PUSH1 0x5 MUL ADD PUSH1 0x40 MLOAD DUP1 PUSH1 0xA0 ADD PUSH1 0x40 MSTORE SWAP1 DUP2 PUSH0 DUP3 ADD SLOAD DUP2 MSTORE PUSH1 0x20 ADD PUSH1 0x1 DUP3 ADD PUSH0 SWAP1 SLOAD SWAP1 PUSH2 0x100 EXP SWAP1 DIV PUSH20 0xFFFFFFFFFFFFFFFFFFFFFFFFFFFFFFFFFFFFFFFF AND PUSH20 0xFFFFFFFFFFFFFFFFFFFFFFFFFFFFFFFFFFFFFFFF AND PUSH20 0xFFFFFFFFFFFFFFFFFFFFFFFFFFFFFFFFFFFFFFFF AND DUP2 MSTORE PUSH1 0x20 ADD PUSH1 0x2 DUP3 ADD DUP1 SLOAD PUSH2 0x463 SWAP1 PUSH2 0x173E JUMP JUMPDEST DUP1 PUSH1 0x1F ADD PUSH1 0x20 DUP1 SWAP2 DIV MUL PUSH1 0x20 ADD PUSH1 0x40 MLOAD SWAP1 DUP2 ADD PUSH1 0x40 MSTORE DUP1 SWAP3 SWAP2 SWAP1 DUP2 DUP2 MSTORE PUSH1 0x20 ADD DUP3 DUP1 SLOAD PUSH2 0x48F SWAP1 PUSH2 0x173E JUMP JUMPDEST DUP1 ISZERO PUSH2 0x4DA JUMPI DUP1 PUSH1 0x1F LT PUSH2 0x4B1 JUMPI PUSH2 0x100 DUP1 DUP4 SLOAD DIV MUL DUP4 MSTORE SWAP2 PUSH1 0x20 ADD SWAP2 PUSH2 0x4DA JUMP JUMPDEST DUP3 ADD SWAP2 SWAP1 PUSH0 MSTORE PUSH1 0x20 PUSH0 KECCAK256 SWAP1 JUMPDEST DUP2 SLOAD DUP2 MSTORE SWAP1 PUSH1 0x1 ADD SWAP1 PUSH1 0x20 ADD DUP1 DUP4 GT PUSH2 0x4BD JUMPI DUP3 SWAP1 SUB PUSH1 0x1F AND DUP3 ADD SWAP2 JUMPDEST POP POP POP POP POP DUP2 MSTORE PUSH1 0x20 ADD PUSH1 0x3 DUP3 ADD SLOAD DUP2 MSTORE PUSH1 0x20 ADD PUSH1 0x4 DUP3 ADD SLOAD DUP2 MSTORE POP POP DUP2 MSTORE PUSH1 0x20 ADD SWAP1 PUSH1 0x1 ADD SWAP1 PUSH2 0x3D4 JUMP JUMPDEST POP POP POP POP SWAP1 POP SWAP2 SWAP1 POP JUMP JUMPDEST DUP1 PUSH1 0x1 PUSH0 DUP5 PUSH20 0xFFFFFFFFFFFFFFFFFFFFFFFFFFFFFFFFFFFFFFFF AND PUSH20 0xFFFFFFFFFFFFFFFFFFFFFFFFFFFFFFFFFFFFFFFF AND DUP2 MSTORE PUSH1 0x20 ADD SWAP1 DUP2 MSTORE PUSH1 0x20 ADD PUSH0 KECCAK256 DUP3 DUP2 SLOAD DUP2 LT PUSH2 0x561 JUMPI PUSH2 0x560 PUSH2 0x176E JUMP JUMPDEST JUMPDEST SWAP1 PUSH0 MSTORE PUSH1 0x20 PUSH0 KECCAK256 SWAP1 PUSH1 0x5 MUL ADD PUSH0 ADD SLOAD EQ PUSH2 0x5B0 JUMPI PUSH1 0x40 MLOAD PUSH32 0x8C379A000000000000000000000000000000000000000000000000000000000 DUP2 MSTORE PUSH1 0x4 ADD PUSH2 0x5A7 SWAP1 PUSH2 0x17E5 JUMP JUMPDEST PUSH1 0x40 MLOAD DUP1 SWAP2 SUB SWAP1 REVERT JUMPDEST PUSH0 PUSH1 0x1 PUSH0 DUP5 PUSH20 0xFFFFFFFFFFFFFFFFFFFFFFFFFFFFFFFFFFFFFFFF AND PUSH20 0xFFFFFFFFFFFFFFFFFFFFFFFFFFFFFFFFFFFFFFFF AND DUP2 MSTORE PUSH1 0x20 ADD SWAP1 DUP2 MSTORE PUSH1 0x20 ADD PUSH0 KECCAK256 DUP3 DUP2 SLOAD DUP2 LT PUSH2 0x600 JUMPI PUSH2 0x5FF PUSH2 0x176E JUMP JUMPDEST JUMPDEST SWAP1 PUSH0 MSTORE PUSH1 0x20 PUSH0 KECCAK256 SWAP1 PUSH1 0x5 MUL ADD PUSH0 ADD SLOAD GT PUSH2 0x64F JUMPI PUSH1 0x40 MLOAD PUSH32 0x8C379A000000000000000000000000000000000000000000000000000000000 DUP2 MSTORE PUSH1 0x4 ADD PUSH2 0x646 SWAP1 PUSH2 0x184D JUMP JUMPDEST PUSH1 0x40 MLOAD DUP1 SWAP2 SUB SWAP1 REVERT JUMPDEST PUSH1 0x1 PUSH0 DUP4 PUSH20 0xFFFFFFFFFFFFFFFFFFFFFFFFFFFFFFFFFFFFFFFF AND PUSH20 0xFFFFFFFFFFFFFFFFFFFFFFFFFFFFFFFFFFFFFFFF AND DUP2 MSTORE PUSH1 0x20 ADD SWAP1 DUP2 MSTORE PUSH1 0x20 ADD PUSH0 KECCAK256 DUP2 DUP2 SLOAD DUP2 LT PUSH2 0x69E JUMPI PUSH2 0x69D PUSH2 0x176E JUMP JUMPDEST JUMPDEST SWAP1 PUSH0 MSTORE PUSH1 0x20 PUSH0 KECCAK256 SWAP1 PUSH1 0x5 MUL ADD PUSH0 ADD PUSH0 DUP2 SLOAD DUP1 SWAP3 SWAP2 SWAP1 PUSH2 0x6BC SWAP1 PUSH2 0x1898 JUMP JUMPDEST SWAP2 SWAP1 POP SSTORE POP PUSH32 0x762C2616349603AC16EBA0DE8E6141B79129A07AB63BD99E0A80B3A471716943 CALLER DUP4 DUP4 PUSH1 0x1 PUSH0 DUP8 PUSH20 0xFFFFFFFFFFFFFFFFFFFFFFFFFFFFFFFFFFFFFFFF AND PUSH20 0xFFFFFFFFFFFFFFFFFFFFFFFFFFFFFFFFFFFFFFFF AND DUP2 MSTORE PUSH1 0x20 ADD SWAP1 DUP2 MSTORE PUSH1 0x20 ADD PUSH0 KECCAK256 DUP6 DUP2 SLOAD DUP2 LT PUSH2 0x734 JUMPI PUSH2 0x733 PUSH2 0x176E JUMP JUMPDEST JUMPDEST SWAP1 PUSH0 MSTORE PUSH1 0x20 PUSH0 KECCAK256 SWAP1 PUSH1 0x5 MUL ADD PUSH1 0x4 ADD SLOAD PUSH1 0x40 MLOAD PUSH2 0x754 SWAP5 SWAP4 SWAP3 SWAP2 SWAP1 PUSH2 0x18BF JUMP JUMPDEST PUSH1 0x40 MLOAD DUP1 SWAP2 SUB SWAP1 LOG1 POP POP JUMP JUMPDEST PUSH2 0x768 PUSH2 0xE7F JUMP JUMPDEST DUP1 PUSH0 PUSH1 0x14 PUSH2 0x100 EXP DUP2 SLOAD DUP2 PUSH2 0xFFFF MUL NOT AND SWAP1 DUP4 PUSH2 0xFFFF AND MUL OR SWAP1 SSTORE POP POP JUMP JUMPDEST DUP1 PUSH1 0x1 PUSH0 DUP5 PUSH20 0xFFFFFFFFFFFFFFFFFFFFFFFFFFFFFFFFFFFFFFFF AND PUSH20 0xFFFFFFFFFFFFFFFFFFFFFFFFFFFFFFFFFFFFFFFF AND DUP2 MSTORE PUSH1 0x20 ADD SWAP1 DUP2 MSTORE PUSH1 0x20 ADD PUSH0 KECCAK256 DUP3 DUP2 SLOAD DUP2 LT PUSH2 0x7D7 JUMPI PUSH2 0x7D6 PUSH2 0x176E JUMP JUMPDEST JUMPDEST SWAP1 PUSH0 MSTORE PUSH1 0x20 PUSH0 KECCAK256 SWAP1 PUSH1 0x5 MUL ADD PUSH0 ADD SLOAD EQ PUSH2 0x826 JUMPI PUSH1 0x40 MLOAD PUSH32 0x8C379A000000000000000000000000000000000000000000000000000000000 DUP2 MSTORE PUSH1 0x4 ADD PUSH2 0x81D SWAP1 PUSH2 0x194C JUMP JUMPDEST PUSH1 0x40 MLOAD DUP1 SWAP2 SUB SWAP1 REVERT JUMPDEST PUSH1 0x1 PUSH0 DUP4 PUSH20 0xFFFFFFFFFFFFFFFFFFFFFFFFFFFFFFFFFFFFFFFF AND PUSH20 0xFFFFFFFFFFFFFFFFFFFFFFFFFFFFFFFFFFFFFFFF AND DUP2 MSTORE PUSH1 0x20 ADD SWAP1 DUP2 MSTORE PUSH1 0x20 ADD PUSH0 KECCAK256 DUP2 DUP2 SLOAD DUP2 LT PUSH2 0x875 JUMPI PUSH2 0x874 PUSH2 0x176E JUMP JUMPDEST JUMPDEST SWAP1 PUSH0 MSTORE PUSH1 0x20 PUSH0 KECCAK256 SWAP1 PUSH1 0x5 MUL ADD PUSH1 0x4 ADD PUSH0 DUP2 SLOAD DUP1 SWAP3 SWAP2 SWAP1 PUSH2 0x894 SWAP1 PUSH2 0x196A JUMP JUMPDEST SWAP2 SWAP1 POP SSTORE POP PUSH32 0xE8A76FC0F16D11A00D1E93B689B63D76CF60AF914DD3D915375DC41D01A0C3C8 CALLER DUP4 DUP4 PUSH1 0x1 PUSH0 DUP8 PUSH20 0xFFFFFFFFFFFFFFFFFFFFFFFFFFFFFFFFFFFFFFFF AND PUSH20 0xFFFFFFFFFFFFFFFFFFFFFFFFFFFFFFFFFFFFFFFF AND DUP2 MSTORE PUSH1 0x20 ADD SWAP1 DUP2 MSTORE PUSH1 0x20 ADD PUSH0 KECCAK256 DUP6 DUP2 SLOAD DUP2 LT PUSH2 0x90C JUMPI PUSH2 0x90B PUSH2 0x176E JUMP JUMPDEST JUMPDEST SWAP1 PUSH0 MSTORE PUSH1 0x20 PUSH0 KECCAK256 SWAP1 PUSH1 0x5 MUL ADD PUSH1 0x4 ADD SLOAD PUSH1 0x40 MLOAD PUSH2 0x92C SWAP5 SWAP4 SWAP3 SWAP2 SWAP1 PUSH2 0x18BF JUMP JUMPDEST PUSH1 0x40 MLOAD DUP1 SWAP2 SUB SWAP1 LOG1 POP POP JUMP JUMPDEST PUSH0 PUSH1 0x14 SWAP1 SLOAD SWAP1 PUSH2 0x100 EXP SWAP1 DIV PUSH2 0xFFFF AND DUP2 JUMP JUMPDEST PUSH2 0x953 PUSH2 0xE7F JUMP JUMPDEST PUSH2 0x95C PUSH0 PUSH2 0xF06 JUMP JUMPDEST JUMP JUMPDEST PUSH0 PUSH1 0x14 SWAP1 SLOAD SWAP1 PUSH2 0x100 EXP SWAP1 DIV PUSH2 0xFFFF AND PUSH2 0xFFFF AND DUP2 MLOAD GT ISZERO PUSH2 0x9B5 JUMPI PUSH1 0x40 MLOAD PUSH32 0x8C379A000000000000000000000000000000000000000000000000000000000 DUP2 MSTORE PUSH1 0x4 ADD PUSH2 0x9AC SWAP1 PUSH2 0x19FB JUMP JUMPDEST PUSH1 0x40 MLOAD DUP1 SWAP2 SUB SWAP1 REVERT JUMPDEST PUSH0 PUSH1 0x40 MLOAD DUP1 PUSH1 0xA0 ADD PUSH1 0x40 MSTORE DUP1 PUSH1 0x1 PUSH0 CALLER PUSH20 0xFFFFFFFFFFFFFFFFFFFFFFFFFFFFFFFFFFFFFFFF AND PUSH20 0xFFFFFFFFFFFFFFFFFFFFFFFFFFFFFFFFFFFFFFFF AND DUP2 MSTORE PUSH1 0x20 ADD SWAP1 DUP2 MSTORE PUSH1 0x20 ADD PUSH0 KECCAK256 DUP1 SLOAD SWAP1 POP DUP2 MSTORE PUSH1 0x20 ADD CALLER PUSH20 0xFFFFFFFFFFFFFFFFFFFFFFFFFFFFFFFFFFFFFFFF AND DUP2 MSTORE PUSH1 0x20 ADD DUP4 DUP2 MSTORE PUSH1 0x20 ADD TIMESTAMP DUP2 MSTORE PUSH1 0x20 ADD PUSH0 DUP2 MSTORE POP SWAP1 POP PUSH1 0x1 PUSH0 CALLER PUSH20 0xFFFFFFFFFFFFFFFFFFFFFFFFFFFFFFFFFFFFFFFF AND PUSH20 0xFFFFFFFFFFFFFFFFFFFFFFFFFFFFFFFFFFFFFFFF AND DUP2 MSTORE PUSH1 0x20 ADD SWAP1 DUP2 MSTORE PUSH1 0x20 ADD PUSH0 KECCAK256 DUP2 SWAP1 DUP1 PUSH1 0x1 DUP2 SLOAD ADD DUP1 DUP3 SSTORE DUP1 SWAP2 POP POP PUSH1 0x1 SWAP1 SUB SWAP1 PUSH0 MSTORE PUSH1 0x20 PUSH0 KECCAK256 SWAP1 PUSH1 0x5 MUL ADD PUSH0 SWAP1 SWAP2 SWAP1 SWAP2 SWAP1 SWAP2 POP PUSH0 DUP3 ADD MLOAD DUP2 PUSH0 ADD SSTORE PUSH1 0x20 DUP3 ADD MLOAD DUP2 PUSH1 0x1 ADD PUSH0 PUSH2 0x100 EXP DUP2 SLOAD DUP2 PUSH20 0xFFFFFFFFFFFFFFFFFFFFFFFFFFFFFFFFFFFFFFFF MUL NOT AND SWAP1 DUP4 PUSH20 0xFFFFFFFFFFFFFFFFFFFFFFFFFFFFFFFFFFFFFFFF AND MUL OR SWAP1 SSTORE POP PUSH1 0x40 DUP3 ADD MLOAD DUP2 PUSH1 0x2 ADD SWAP1 DUP2 PUSH2 0xAFC SWAP2 SWAP1 PUSH2 0x1BB0 JUMP JUMPDEST POP PUSH1 0x60 DUP3 ADD MLOAD DUP2 PUSH1 0x3 ADD SSTORE PUSH1 0x80 DUP3 ADD MLOAD DUP2 PUSH1 0x4 ADD SSTORE POP POP PUSH32 0x16FD3C13E9D46923E0A8BCE11C7B473EC508A72E6C96CD2404B29CE972AFC29E DUP2 PUSH0 ADD MLOAD DUP3 PUSH1 0x20 ADD MLOAD DUP4 PUSH1 0x40 ADD MLOAD DUP5 PUSH1 0x60 ADD MLOAD PUSH1 0x40 MLOAD PUSH2 0xB57 SWAP5 SWAP4 SWAP3 SWAP2 SWAP1 PUSH2 0x1C7F JUMP JUMPDEST PUSH1 0x40 MLOAD DUP1 SWAP2 SUB SWAP1 LOG1 POP POP JUMP JUMPDEST PUSH0 PUSH0 PUSH0 SWAP1 POP PUSH0 PUSH0 SWAP1 POP JUMPDEST PUSH1 0x1 PUSH0 DUP6 PUSH20 0xFFFFFFFFFFFFFFFFFFFFFFFFFFFFFFFFFFFFFFFF AND PUSH20 0xFFFFFFFFFFFFFFFFFFFFFFFFFFFFFFFFFFFFFFFF AND DUP2 MSTORE PUSH1 0x20 ADD SWAP1 DUP2 MSTORE PUSH1 0x20 ADD PUSH0 KECCAK256 DUP1 SLOAD SWAP1 POP DUP2 LT ISZERO PUSH2 0xC2E JUMPI PUSH1 0x1 PUSH0 DUP6 PUSH20 0xFFFFFFFFFFFFFFFFFFFFFFFFFFFFFFFFFFFFFFFF AND PUSH20 0xFFFFFFFFFFFFFFFFFFFFFFFFFFFFFFFFFFFFFFFF AND DUP2 MSTORE PUSH1 0x20 ADD SWAP1 DUP2 MSTORE PUSH1 0x20 ADD PUSH0 KECCAK256 DUP2 DUP2 SLOAD DUP2 LT PUSH2 0xC04 JUMPI PUSH2 0xC03 PUSH2 0x176E JUMP JUMPDEST JUMPDEST SWAP1 PUSH0 MSTORE PUSH1 0x20 PUSH0 KECCAK256 SWAP1 PUSH1 0x5 MUL ADD PUSH1 0x4 ADD SLOAD DUP3 PUSH2 0xC1F SWAP2 SWAP1 PUSH2 0x1CC9 JUMP JUMPDEST SWAP2 POP DUP1 DUP1 PUSH1 0x1 ADD SWAP2 POP POP PUSH2 0xB6D JUMP JUMPDEST POP DUP1 SWAP2 POP POP SWAP2 SWAP1 POP JUMP JUMPDEST PUSH0 PUSH0 PUSH0 SWAP1 SLOAD SWAP1 PUSH2 0x100 EXP SWAP1 DIV PUSH20 0xFFFFFFFFFFFFFFFFFFFFFFFFFFFFFFFFFFFFFFFF AND SWAP1 POP SWAP1 JUMP JUMPDEST PUSH1 0x2 PUSH0 SWAP1 SLOAD SWAP1 PUSH2 0x100 EXP SWAP1 DIV PUSH20 0xFFFFFFFFFFFFFFFFFFFFFFFFFFFFFFFFFFFFFFFF AND DUP2 JUMP JUMPDEST PUSH2 0xC8C PUSH2 0xFCE JUMP JUMPDEST PUSH1 0x1 PUSH0 CALLER PUSH20 0xFFFFFFFFFFFFFFFFFFFFFFFFFFFFFFFFFFFFFFFF AND PUSH20 0xFFFFFFFFFFFFFFFFFFFFFFFFFFFFFFFFFFFFFFFF AND DUP2 MSTORE PUSH1 0x20 ADD SWAP1 DUP2 MSTORE PUSH1 0x20 ADD PUSH0 KECCAK256 DUP3 DUP2 SLOAD DUP2 LT PUSH2 0xCDB JUMPI PUSH2 0xCDA PUSH2 0x176E JUMP JUMPDEST JUMPDEST SWAP1 PUSH0 MSTORE PUSH1 0x20 PUSH0 KECCAK256 SWAP1 PUSH1 0x5 MUL ADD PUSH1 0x40 MLOAD DUP1 PUSH1 0xA0 ADD PUSH1 0x40 MSTORE SWAP1 DUP2 PUSH0 DUP3 ADD SLOAD DUP2 MSTORE PUSH1 0x20 ADD PUSH1 0x1 DUP3 ADD PUSH0 SWAP1 SLOAD SWAP1 PUSH2 0x100 EXP SWAP1 DIV PUSH20 0xFFFFFFFFFFFFFFFFFFFFFFFFFFFFFFFFFFFFFFFF AND PUSH20 0xFFFFFFFFFFFFFFFFFFFFFFFFFFFFFFFFFFFFFFFF AND PUSH20 0xFFFFFFFFFFFFFFFFFFFFFFFFFFFFFFFFFFFFFFFF AND DUP2 MSTORE PUSH1 0x20 ADD PUSH1 0x2 DUP3 ADD DUP1 SLOAD PUSH2 0xD60 SWAP1 PUSH2 0x173E JUMP JUMPDEST DUP1 PUSH1 0x1F ADD PUSH1 0x20 DUP1 SWAP2 DIV MUL PUSH1 0x20 ADD PUSH1 0x40 MLOAD SWAP1 DUP2 ADD PUSH1 0x40 MSTORE DUP1 SWAP3 SWAP2 SWAP1 DUP2 DUP2 MSTORE PUSH1 0x20 ADD DUP3 DUP1 SLOAD PUSH2 0xD8C SWAP1 PUSH2 0x173E JUMP JUMPDEST DUP1 ISZERO PUSH2 0xDD7 JUMPI DUP1 PUSH1 0x1F LT PUSH2 0xDAE JUMPI PUSH2 0x100 DUP1 DUP4 SLOAD DIV MUL DUP4 MSTORE SWAP2 PUSH1 0x20 ADD SWAP2 PUSH2 0xDD7 JUMP JUMPDEST DUP3 ADD SWAP2 SWAP1 PUSH0 MSTORE PUSH1 0x20 PUSH0 KECCAK256 SWAP1 JUMPDEST DUP2 SLOAD DUP2 MSTORE SWAP1 PUSH1 0x1 ADD SWAP1 PUSH1 0x20 ADD DUP1 DUP4 GT PUSH2 0xDBA JUMPI DUP3 SWAP1 SUB PUSH1 0x1F AND DUP3 ADD SWAP2 JUMPDEST POP POP POP POP POP DUP2 MSTORE PUSH1 0x20 ADD PUSH1 0x3 DUP3 ADD SLOAD DUP2 MSTORE PUSH1 0x20 ADD PUSH1 0x4 DUP3 ADD SLOAD DUP2 MSTORE POP POP SWAP1 POP SWAP2 SWAP1 POP JUMP JUMPDEST PUSH2 0xE03 PUSH2 0xE7F JUMP JUMPDEST PUSH0 PUSH20 0xFFFFFFFFFFFFFFFFFFFFFFFFFFFFFFFFFFFFFFFF AND DUP2 PUSH20 0xFFFFFFFFFFFFFFFFFFFFFFFFFFFFFFFFFFFFFFFF AND SUB PUSH2 0xE73 JUMPI PUSH0 PUSH1 0x40 MLOAD PUSH32 0x1E4FBDF700000000000000000000000000000000000000000000000000000000 DUP2 MSTORE PUSH1 0x4 ADD PUSH2 0xE6A SWAP2 SWAP1 PUSH2 0x15C6 JUMP JUMPDEST PUSH1 0x40 MLOAD DUP1 SWAP2 SUB SWAP1 REVERT JUMPDEST PUSH2 0xE7C DUP2 PUSH2 0xF06 JUMP JUMPDEST POP JUMP JUMPDEST PUSH2 0xE87 PUSH2 0xFC7 JUMP JUMPDEST PUSH20 0xFFFFFFFFFFFFFFFFFFFFFFFFFFFFFFFFFFFFFFFF AND PUSH2 0xEA5 PUSH2 0xC38 JUMP JUMPDEST PUSH20 0xFFFFFFFFFFFFFFFFFFFFFFFFFFFFFFFFFFFFFFFF AND EQ PUSH2 0xF04 JUMPI PUSH2 0xEC8 PUSH2 0xFC7 JUMP JUMPDEST PUSH1 0x40 MLOAD PUSH32 0x118CDAA700000000000000000000000000000000000000000000000000000000 DUP2 MSTORE PUSH1 0x4 ADD PUSH2 0xEFB SWAP2 SWAP1 PUSH2 0x15C6 JUMP JUMPDEST PUSH1 0x40 MLOAD DUP1 SWAP2 SUB SWAP1 REVERT JUMPDEST JUMP JUMPDEST PUSH0 PUSH0 PUSH0 SWAP1 SLOAD SWAP1 PUSH2 0x100 EXP SWAP1 DIV PUSH20 0xFFFFFFFFFFFFFFFFFFFFFFFFFFFFFFFFFFFFFFFF AND SWAP1 POP DUP2 PUSH0 PUSH0 PUSH2 0x100 EXP DUP2 SLOAD DUP2 PUSH20 0xFFFFFFFFFFFFFFFFFFFFFFFFFFFFFFFFFFFFFFFF MUL NOT AND SWAP1 DUP4 PUSH20 0xFFFFFFFFFFFFFFFFFFFFFFFFFFFFFFFFFFFFFFFF AND MUL OR SWAP1 SSTORE POP DUP2 PUSH20 0xFFFFFFFFFFFFFFFFFFFFFFFFFFFFFFFFFFFFFFFF AND DUP2 PUSH20 0xFFFFFFFFFFFFFFFFFFFFFFFFFFFFFFFFFFFFFFFF AND PUSH32 0x8BE0079C531659141344CD1FD0A4F28419497F9722A3DAAFE3B4186F6B6457E0 PUSH1 0x40 MLOAD PUSH1 0x40 MLOAD DUP1 SWAP2 SUB SWAP1 LOG3 POP POP JUMP JUMPDEST PUSH0 CALLER SWAP1 POP SWAP1 JUMP JUMPDEST PUSH1 0x40 MLOAD DUP1 PUSH1 0xA0 ADD PUSH1 0x40 MSTORE DUP1 PUSH0 DUP2 MSTORE PUSH1 0x20 ADD PUSH0 PUSH20 0xFFFFFFFFFFFFFFFFFFFFFFFFFFFFFFFFFFFFFFFF AND DUP2 MSTORE PUSH1 0x20 ADD PUSH1 0x60 DUP2 MSTORE PUSH1 0x20 ADD PUSH0 DUP2 MSTORE PUSH1 0x20 ADD PUSH0 DUP2 MSTORE POP SWAP1 JUMP JUMPDEST PUSH0 PUSH1 0x40 MLOAD SWAP1 POP SWAP1 JUMP JUMPDEST PUSH0 PUSH0 REVERT JUMPDEST PUSH0 PUSH0 REVERT JUMPDEST PUSH0 PUSH20 0xFFFFFFFFFFFFFFFFFFFFFFFFFFFFFFFFFFFFFFFF DUP3 AND SWAP1 POP SWAP2 SWAP1 POP JUMP JUMPDEST PUSH0 PUSH2 0x1049 DUP3 PUSH2 0x1020 JUMP JUMPDEST SWAP1 POP SWAP2 SWAP1 POP JUMP JUMPDEST PUSH2 0x1059 DUP2 PUSH2 0x103F JUMP JUMPDEST DUP2 EQ PUSH2 0x1063 JUMPI PUSH0 PUSH0 REVERT JUMPDEST POP JUMP JUMPDEST PUSH0 DUP2 CALLDATALOAD SWAP1 POP PUSH2 0x1074 DUP2 PUSH2 0x1050 JUMP JUMPDEST SWAP3 SWAP2 POP POP JUMP JUMPDEST PUSH0 DUP2 SWAP1 POP SWAP2 SWAP1 POP JUMP JUMPDEST PUSH2 0x108C DUP2 PUSH2 0x107A JUMP JUMPDEST DUP2 EQ PUSH2 0x1096 JUMPI PUSH0 PUSH0 REVERT JUMPDEST POP JUMP JUMPDEST PUSH0 DUP2 CALLDATALOAD SWAP1 POP PUSH2 0x10A7 DUP2 PUSH2 0x1083 JUMP JUMPDEST SWAP3 SWAP2 POP POP JUMP JUMPDEST PUSH0 PUSH0 PUSH1 0x40 DUP4 DUP6 SUB SLT ISZERO PUSH2 0x10C3 JUMPI PUSH2 0x10C2 PUSH2 0x1018 JUMP JUMPDEST JUMPDEST PUSH0 PUSH2 0x10D0 DUP6 DUP3 DUP7 ADD PUSH2 0x1066 JUMP JUMPDEST SWAP3 POP POP PUSH1 0x20 PUSH2 0x10E1 DUP6 DUP3 DUP7 ADD PUSH2 0x1099 JUMP JUMPDEST SWAP2 POP POP SWAP3 POP SWAP3 SWAP1 POP JUMP JUMPDEST PUSH2 0x10F4 DUP2 PUSH2 0x107A JUMP JUMPDEST DUP3 MSTORE POP POP JUMP JUMPDEST PUSH2 0x1103 DUP2 PUSH2 0x103F JUMP JUMPDEST DUP3 MSTORE POP POP JUMP JUMPDEST PUSH0 DUP2 MLOAD SWAP1 POP SWAP2 SWAP1 POP JUMP JUMPDEST PUSH0 DUP3 DUP3 MSTORE PUSH1 0x20 DUP3 ADD SWAP1 POP SWAP3 SWAP2 POP POP JUMP JUMPDEST DUP3 DUP2 DUP4 MCOPY PUSH0 DUP4 DUP4 ADD MSTORE POP POP POP JUMP JUMPDEST PUSH0 PUSH1 0x1F NOT PUSH1 0x1F DUP4 ADD AND SWAP1 POP SWAP2 SWAP1 POP JUMP JUMPDEST PUSH0 PUSH2 0x114B DUP3 PUSH2 0x1109 JUMP JUMPDEST PUSH2 0x1155 DUP2 DUP6 PUSH2 0x1113 JUMP JUMPDEST SWAP4 POP PUSH2 0x1165 DUP2 DUP6 PUSH1 0x20 DUP7 ADD PUSH2 0x1123 JUMP JUMPDEST PUSH2 0x116E DUP2 PUSH2 0x1131 JUMP JUMPDEST DUP5 ADD SWAP2 POP POP SWAP3 SWAP2 POP POP JUMP JUMPDEST PUSH0 PUSH1 0xA0 DUP3 ADD SWAP1 POP PUSH2 0x118C PUSH0 DUP4 ADD DUP9 PUSH2 0x10EB JUMP JUMPDEST PUSH2 0x1199 PUSH1 0x20 DUP4 ADD DUP8 PUSH2 0x10FA JUMP JUMPDEST DUP2 DUP2 SUB PUSH1 0x40 DUP4 ADD MSTORE PUSH2 0x11AB DUP2 DUP7 PUSH2 0x1141 JUMP JUMPDEST SWAP1 POP PUSH2 0x11BA PUSH1 0x60 DUP4 ADD DUP6 PUSH2 0x10EB JUMP JUMPDEST PUSH2 0x11C7 PUSH1 0x80 DUP4 ADD DUP5 PUSH2 0x10EB JUMP JUMPDEST SWAP7 SWAP6 POP POP POP POP POP POP JUMP JUMPDEST PUSH0 PUSH1 0x20 DUP3 DUP5 SUB SLT ISZERO PUSH2 0x11E6 JUMPI PUSH2 0x11E5 PUSH2 0x1018 JUMP JUMPDEST JUMPDEST PUSH0 PUSH2 0x11F3 DUP5 DUP3 DUP6 ADD PUSH2 0x1066 JUMP JUMPDEST SWAP2 POP POP SWAP3 SWAP2 POP POP JUMP JUMPDEST PUSH0 DUP2 MLOAD SWAP1 POP SWAP2 SWAP1 POP JUMP JUMPDEST PUSH0 DUP3 DUP3 MSTORE PUSH1 0x20 DUP3 ADD SWAP1 POP SWAP3 SWAP2 POP POP JUMP JUMPDEST PUSH0 DUP2 SWAP1 POP PUSH1 0x20 DUP3 ADD SWAP1 POP SWAP2 SWAP1 POP JUMP JUMPDEST PUSH2 0x122E DUP2 PUSH2 0x107A JUMP JUMPDEST DUP3 MSTORE POP POP JUMP JUMPDEST PUSH2 0x123D DUP2 PUSH2 0x103F JUMP JUMPDEST DUP3 MSTORE POP POP JUMP JUMPDEST PUSH0 DUP3 DUP3 MSTORE PUSH1 0x20 DUP3 ADD SWAP1 POP SWAP3 SWAP2 POP POP JUMP JUMPDEST PUSH0 PUSH2 0x125D DUP3 PUSH2 0x1109 JUMP JUMPDEST PUSH2 0x1267 DUP2 DUP6 PUSH2 0x1243 JUMP JUMPDEST SWAP4 POP PUSH2 0x1277 DUP2 DUP6 PUSH1 0x20 DUP7 ADD PUSH2 0x1123 JUMP JUMPDEST PUSH2 0x1280 DUP2 PUSH2 0x1131 JUMP JUMPDEST DUP5 ADD SWAP2 POP POP SWAP3 SWAP2 POP POP JUMP JUMPDEST PUSH0 PUSH1 0xA0 DUP4 ADD PUSH0 DUP4 ADD MLOAD PUSH2 0x12A0 PUSH0 DUP7 ADD DUP3 PUSH2 0x1225 JUMP JUMPDEST POP PUSH1 0x20 DUP4 ADD MLOAD PUSH2 0x12B3 PUSH1 0x20 DUP7 ADD DUP3 PUSH2 0x1234 JUMP JUMPDEST POP PUSH1 0x40 DUP4 ADD MLOAD DUP5 DUP3 SUB PUSH1 0x40 DUP7 ADD MSTORE PUSH2 0x12CB DUP3 DUP3 PUSH2 0x1253 JUMP JUMPDEST SWAP2 POP POP PUSH1 0x60 DUP4 ADD MLOAD PUSH2 0x12E0 PUSH1 0x60 DUP7 ADD DUP3 PUSH2 0x1225 JUMP JUMPDEST POP PUSH1 0x80 DUP4 ADD MLOAD PUSH2 0x12F3 PUSH1 0x80 DUP7 ADD DUP3 PUSH2 0x1225 JUMP JUMPDEST POP DUP1 SWAP2 POP POP SWAP3 SWAP2 POP POP JUMP JUMPDEST PUSH0 PUSH2 0x1309 DUP4 DUP4 PUSH2 0x128B JUMP JUMPDEST SWAP1 POP SWAP3 SWAP2 POP POP JUMP JUMPDEST PUSH0 PUSH1 0x20 DUP3 ADD SWAP1 POP SWAP2 SWAP1 POP JUMP JUMPDEST PUSH0 PUSH2 0x1327 DUP3 PUSH2 0x11FC JUMP JUMPDEST PUSH2 0x1331 DUP2 DUP6 PUSH2 0x1206 JUMP JUMPDEST SWAP4 POP DUP4 PUSH1 0x20 DUP3 MUL DUP6 ADD PUSH2 0x1343 DUP6 PUSH2 0x1216 JUMP JUMPDEST DUP1 PUSH0 JUMPDEST DUP6 DUP2 LT ISZERO PUSH2 0x137E JUMPI DUP5 DUP5 SUB DUP10 MSTORE DUP2 MLOAD PUSH2 0x135F DUP6 DUP3 PUSH2 0x12FE JUMP JUMPDEST SWAP5 POP PUSH2 0x136A DUP4 PUSH2 0x1311 JUMP JUMPDEST SWAP3 POP PUSH1 0x20 DUP11 ADD SWAP10 POP POP PUSH1 0x1 DUP2 ADD SWAP1 POP PUSH2 0x1346 JUMP JUMPDEST POP DUP3 SWAP8 POP DUP8 SWAP6 POP POP POP POP POP POP SWAP3 SWAP2 POP POP JUMP JUMPDEST PUSH0 PUSH1 0x20 DUP3 ADD SWAP1 POP DUP2 DUP2 SUB PUSH0 DUP4 ADD MSTORE PUSH2 0x13A8 DUP2 DUP5 PUSH2 0x131D JUMP JUMPDEST SWAP1 POP SWAP3 SWAP2 POP POP JUMP JUMPDEST PUSH0 PUSH2 0xFFFF DUP3 AND SWAP1 POP SWAP2 SWAP1 POP JUMP JUMPDEST PUSH2 0x13C6 DUP2 PUSH2 0x13B0 JUMP JUMPDEST DUP2 EQ PUSH2 0x13D0 JUMPI PUSH0 PUSH0 REVERT JUMPDEST POP JUMP JUMPDEST PUSH0 DUP2 CALLDATALOAD SWAP1 POP PUSH2 0x13E1 DUP2 PUSH2 0x13BD JUMP JUMPDEST SWAP3 SWAP2 POP POP JUMP JUMPDEST PUSH0 PUSH1 0x20 DUP3 DUP5 SUB SLT ISZERO PUSH2 0x13FC JUMPI PUSH2 0x13FB PUSH2 0x1018 JUMP JUMPDEST JUMPDEST PUSH0 PUSH2 0x1409 DUP5 DUP3 DUP6 ADD PUSH2 0x13D3 JUMP JUMPDEST SWAP2 POP POP SWAP3 SWAP2 POP POP JUMP JUMPDEST PUSH2 0x141B DUP2 PUSH2 0x13B0 JUMP JUMPDEST DUP3 MSTORE POP POP JUMP JUMPDEST PUSH0 PUSH1 0x20 DUP3 ADD SWAP1 POP PUSH2 0x1434 PUSH0 DUP4 ADD DUP5 PUSH2 0x1412 JUMP JUMPDEST SWAP3 SWAP2 POP POP JUMP JUMPDEST PUSH0 PUSH0 REVERT JUMPDEST PUSH0 PUSH0 REVERT JUMPDEST PUSH32 0x4E487B7100000000000000000000000000000000000000000000000000000000 PUSH0 MSTORE PUSH1 0x41 PUSH1 0x4 MSTORE PUSH1 0x24 PUSH0 REVERT JUMPDEST PUSH2 0x1478 DUP3 PUSH2 0x1131 JUMP JUMPDEST DUP2 ADD DUP2 DUP2 LT PUSH8 0xFFFFFFFFFFFFFFFF DUP3 GT OR ISZERO PUSH2 0x1497 JUMPI PUSH2 0x1496 PUSH2 0x1442 JUMP JUMPDEST JUMPDEST DUP1 PUSH1 0x40 MSTORE POP POP POP JUMP JUMPDEST PUSH0 PUSH2 0x14A9 PUSH2 0x100F JUMP JUMPDEST SWAP1 POP PUSH2 0x14B5 DUP3 DUP3 PUSH2 0x146F JUMP JUMPDEST SWAP2 SWAP1 POP JUMP JUMPDEST PUSH0 PUSH8 0xFFFFFFFFFFFFFFFF DUP3 GT ISZERO PUSH2 0x14D4 JUMPI PUSH2 0x14D3 PUSH2 0x1442 JUMP JUMPDEST JUMPDEST PUSH2 0x14DD DUP3 PUSH2 0x1131 JUMP JUMPDEST SWAP1 POP PUSH1 0x20 DUP2 ADD SWAP1 POP SWAP2 SWAP1 POP JUMP JUMPDEST DUP3 DUP2 DUP4 CALLDATACOPY PUSH0 DUP4 DUP4 ADD MSTORE POP POP POP JUMP JUMPDEST PUSH0 PUSH2 0x150A PUSH2 0x1505 DUP5 PUSH2 0x14BA JUMP JUMPDEST PUSH2 0x14A0 JUMP JUMPDEST SWAP1 POP DUP3 DUP2 MSTORE PUSH1 0x20 DUP2 ADD DUP5 DUP5 DUP5 ADD GT ISZERO PUSH2 0x1526 JUMPI PUSH2 0x1525 PUSH2 0x143E JUMP JUMPDEST JUMPDEST PUSH2 0x1531 DUP5 DUP3 DUP6 PUSH2 0x14EA JUMP JUMPDEST POP SWAP4 SWAP3 POP POP POP JUMP JUMPDEST PUSH0 DUP3 PUSH1 0x1F DUP4 ADD SLT PUSH2 0x154D JUMPI PUSH2 0x154C PUSH2 0x143A JUMP JUMPDEST JUMPDEST DUP2 CALLDATALOAD PUSH2 0x155D DUP5 DUP3 PUSH1 0x20 DUP7 ADD PUSH2 0x14F8 JUMP JUMPDEST SWAP2 POP POP SWAP3 SWAP2 POP POP JUMP JUMPDEST PUSH0 PUSH1 0x20 DUP3 DUP5 SUB SLT ISZERO PUSH2 0x157B JUMPI PUSH2 0x157A PUSH2 0x1018 JUMP JUMPDEST JUMPDEST PUSH0 DUP3 ADD CALLDATALOAD PUSH8 0xFFFFFFFFFFFFFFFF DUP2 GT ISZERO PUSH2 0x1598 JUMPI PUSH2 0x1597 PUSH2 0x101C JUMP JUMPDEST JUMPDEST PUSH2 0x15A4 DUP5 DUP3 DUP6 ADD PUSH2 0x1539 JUMP JUMPDEST SWAP2 POP POP SWAP3 SWAP2 POP POP JUMP JUMPDEST PUSH0 PUSH1 0x20 DUP3 ADD SWAP1 POP PUSH2 0x15C0 PUSH0 DUP4 ADD DUP5 PUSH2 0x10EB JUMP JUMPDEST SWAP3 SWAP2 POP POP JUMP JUMPDEST PUSH0 PUSH1 0x20 DUP3 ADD SWAP1 POP PUSH2 0x15D9 PUSH0 DUP4 ADD DUP5 PUSH2 0x10FA JUMP JUMPDEST SWAP3 SWAP2 POP POP JUMP JUMPDEST PUSH0 DUP2 SWAP1 POP SWAP2 SWAP1 POP JUMP JUMPDEST PUSH0 PUSH2 0x1602 PUSH2 0x15FD PUSH2 0x15F8 DUP5 PUSH2 0x1020 JUMP JUMPDEST PUSH2 0x15DF JUMP JUMPDEST PUSH2 0x1020 JUMP JUMPDEST SWAP1 POP SWAP2 SWAP1 POP JUMP JUMPDEST PUSH0 PUSH2 0x1613 DUP3 PUSH2 0x15E8 JUMP JUMPDEST SWAP1 POP SWAP2 SWAP1 POP JUMP JUMPDEST PUSH0 PUSH2 0x1624 DUP3 PUSH2 0x1609 JUMP JUMPDEST SWAP1 POP SWAP2 SWAP1 POP JUMP JUMPDEST PUSH2 0x1634 DUP2 PUSH2 0x161A JUMP JUMPDEST DUP3 MSTORE POP POP JUMP JUMPDEST PUSH0 PUSH1 0x20 DUP3 ADD SWAP1 POP PUSH2 0x164D PUSH0 DUP4 ADD DUP5 PUSH2 0x162B JUMP JUMPDEST SWAP3 SWAP2 POP POP JUMP JUMPDEST PUSH0 PUSH1 0x20 DUP3 DUP5 SUB SLT ISZERO PUSH2 0x1668 JUMPI PUSH2 0x1667 PUSH2 0x1018 JUMP JUMPDEST JUMPDEST PUSH0 PUSH2 0x1675 DUP5 DUP3 DUP6 ADD PUSH2 0x1099 JUMP JUMPDEST SWAP2 POP POP SWAP3 SWAP2 POP POP JUMP JUMPDEST PUSH0 PUSH1 0xA0 DUP4 ADD PUSH0 DUP4 ADD MLOAD PUSH2 0x1693 PUSH0 DUP7 ADD DUP3 PUSH2 0x1225 JUMP JUMPDEST POP PUSH1 0x20 DUP4 ADD MLOAD PUSH2 0x16A6 PUSH1 0x20 DUP7 ADD DUP3 PUSH2 0x1234 JUMP JUMPDEST POP PUSH1 0x40 DUP4 ADD MLOAD DUP5 DUP3 SUB PUSH1 0x40 DUP7 ADD MSTORE PUSH2 0x16BE DUP3 DUP3 PUSH2 0x1253 JUMP JUMPDEST SWAP2 POP POP PUSH1 0x60 DUP4 ADD MLOAD PUSH2 0x16D3 PUSH1 0x60 DUP7 ADD DUP3 PUSH2 0x1225 JUMP JUMPDEST POP PUSH1 0x80 DUP4 ADD MLOAD PUSH2 0x16E6 PUSH1 0x80 DUP7 ADD DUP3 PUSH2 0x1225 JUMP JUMPDEST POP DUP1 SWAP2 POP POP SWAP3 SWAP2 POP POP JUMP JUMPDEST PUSH0 PUSH1 0x20 DUP3 ADD SWAP1 POP DUP2 DUP2 SUB PUSH0 DUP4 ADD MSTORE PUSH2 0x1709 DUP2 DUP5 PUSH2 0x167E JUMP JUMPDEST SWAP1 POP SWAP3 SWAP2 POP POP JUMP JUMPDEST PUSH32 0x4E487B7100000000000000000000000000000000000000000000000000000000 PUSH0 MSTORE PUSH1 0x22 PUSH1 0x4 MSTORE PUSH1 0x24 PUSH0 REVERT JUMPDEST PUSH0 PUSH1 0x2 DUP3 DIV SWAP1 POP PUSH1 0x1 DUP3 AND DUP1 PUSH2 0x1755 JUMPI PUSH1 0x7F DUP3 AND SWAP2 POP JUMPDEST PUSH1 0x20 DUP3 LT DUP2 SUB PUSH2 0x1768 JUMPI PUSH2 0x1767 PUSH2 0x1711 JUMP JUMPDEST JUMPDEST POP SWAP2 SWAP1 POP JUMP JUMPDEST PUSH32 0x4E487B7100000000000000000000000000000000000000000000000000000000 PUSH0 MSTORE PUSH1 0x32 PUSH1 0x4 MSTORE PUSH1 0x24 PUSH0 REVERT JUMPDEST PUSH32 0x547765657420446F6573206E6F74206578697374000000000000000000000000 PUSH0 DUP3 ADD MSTORE POP JUMP JUMPDEST PUSH0 PUSH2 0x17CF PUSH1 0x14 DUP4 PUSH2 0x1113 JUMP JUMPDEST SWAP2 POP PUSH2 0x17DA DUP3 PUSH2 0x179B JUMP JUMPDEST PUSH1 0x20 DUP3 ADD SWAP1 POP SWAP2 SWAP1 POP JUMP JUMPDEST PUSH0 PUSH1 0x20 DUP3 ADD SWAP1 POP DUP2 DUP2 SUB PUSH0 DUP4 ADD MSTORE PUSH2 0x17FC DUP2 PUSH2 0x17C3 JUMP JUMPDEST SWAP1 POP SWAP2 SWAP1 POP JUMP JUMPDEST PUSH32 0x547777657420646F6573206E6F742068617665204C696B657300000000000000 PUSH0 DUP3 ADD MSTORE POP JUMP JUMPDEST PUSH0 PUSH2 0x1837 PUSH1 0x19 DUP4 PUSH2 0x1113 JUMP JUMPDEST SWAP2 POP PUSH2 0x1842 DUP3 PUSH2 0x1803 JUMP JUMPDEST PUSH1 0x20 DUP3 ADD SWAP1 POP SWAP2 SWAP1 POP JUMP JUMPDEST PUSH0 PUSH1 0x20 DUP3 ADD SWAP1 POP DUP2 DUP2 SUB PUSH0 DUP4 ADD MSTORE PUSH2 0x1864 DUP2 PUSH2 0x182B JUMP JUMPDEST SWAP1 POP SWAP2 SWAP1 POP JUMP JUMPDEST PUSH32 0x4E487B7100000000000000000000000000000000000000000000000000000000 PUSH0 MSTORE PUSH1 0x11 PUSH1 0x4 MSTORE PUSH1 0x24 PUSH0 REVERT JUMPDEST PUSH0 PUSH2 0x18A2 DUP3 PUSH2 0x107A JUMP JUMPDEST SWAP2 POP PUSH0 DUP3 SUB PUSH2 0x18B4 JUMPI PUSH2 0x18B3 PUSH2 0x186B JUMP JUMPDEST JUMPDEST PUSH1 0x1 DUP3 SUB SWAP1 POP SWAP2 SWAP1 POP JUMP JUMPDEST PUSH0 PUSH1 0x80 DUP3 ADD SWAP1 POP PUSH2 0x18D2 PUSH0 DUP4 ADD DUP8 PUSH2 0x10FA JUMP JUMPDEST PUSH2 0x18DF PUSH1 0x20 DUP4 ADD DUP7 PUSH2 0x10FA JUMP JUMPDEST PUSH2 0x18EC PUSH1 0x40 DUP4 ADD DUP6 PUSH2 0x10EB JUMP JUMPDEST PUSH2 0x18F9 PUSH1 0x60 DUP4 ADD DUP5 PUSH2 0x10EB JUMP JUMPDEST SWAP6 SWAP5 POP POP POP POP POP JUMP JUMPDEST PUSH32 0x547765657420446F6573204E6F74204578697374000000000000000000000000 PUSH0 DUP3 ADD MSTORE POP JUMP JUMPDEST PUSH0 PUSH2 0x1936 PUSH1 0x14 DUP4 PUSH2 0x1113 JUMP JUMPDEST SWAP2 POP PUSH2 0x1941 DUP3 PUSH2 0x1902 JUMP JUMPDEST PUSH1 0x20 DUP3 ADD SWAP1 POP SWAP2 SWAP1 POP JUMP JUMPDEST PUSH0 PUSH1 0x20 DUP3 ADD SWAP1 POP DUP2 DUP2 SUB PUSH0 DUP4 ADD MSTORE PUSH2 0x1963 DUP2 PUSH2 0x192A JUMP JUMPDEST SWAP1 POP SWAP2 SWAP1 POP JUMP JUMPDEST PUSH0 PUSH2 0x1974 DUP3 PUSH2 0x107A JUMP JUMPDEST SWAP2 POP PUSH32 0xFFFFFFFFFFFFFFFFFFFFFFFFFFFFFFFFFFFFFFFFFFFFFFFFFFFFFFFFFFFFFFFF DUP3 SUB PUSH2 0x19A6 JUMPI PUSH2 0x19A5 PUSH2 0x186B JUMP JUMPDEST JUMPDEST PUSH1 0x1 DUP3 ADD SWAP1 POP SWAP2 SWAP1 POP JUMP JUMPDEST PUSH32 0x5477656574204578656363656420746865206D6178206C656E67746800000000 PUSH0 DUP3 ADD MSTORE POP JUMP JUMPDEST PUSH0 PUSH2 0x19E5 PUSH1 0x1C DUP4 PUSH2 0x1113 JUMP JUMPDEST SWAP2 POP PUSH2 0x19F0 DUP3 PUSH2 0x19B1 JUMP JUMPDEST PUSH1 0x20 DUP3 ADD SWAP1 POP SWAP2 SWAP1 POP JUMP JUMPDEST PUSH0 PUSH1 0x20 DUP3 ADD SWAP1 POP DUP2 DUP2 SUB PUSH0 DUP4 ADD MSTORE PUSH2 0x1A12 DUP2 PUSH2 0x19D9 JUMP JUMPDEST SWAP1 POP SWAP2 SWAP1 POP JUMP JUMPDEST PUSH0 DUP2 SWAP1 POP DUP2 PUSH0 MSTORE PUSH1 0x20 PUSH0 KECCAK256 SWAP1 POP SWAP2 SWAP1 POP JUMP JUMPDEST PUSH0 PUSH1 0x20 PUSH1 0x1F DUP4 ADD DIV SWAP1 POP SWAP2 SWAP1 POP JUMP JUMPDEST PUSH0 DUP3 DUP3 SHL SWAP1 POP SWAP3 SWAP2 POP POP JUMP JUMPDEST PUSH0 PUSH1 0x8 DUP4 MUL PUSH2 0x1A75 PUSH32 0xFFFFFFFFFFFFFFFFFFFFFFFFFFFFFFFFFFFFFFFFFFFFFFFFFFFFFFFFFFFFFFFF DUP3 PUSH2 0x1A3A JUMP JUMPDEST PUSH2 0x1A7F DUP7 DUP4 PUSH2 0x1A3A JUMP JUMPDEST SWAP6 POP DUP1 NOT DUP5 AND SWAP4 POP DUP1 DUP7 AND DUP5 OR SWAP3 POP POP POP SWAP4 SWAP3 POP POP POP JUMP JUMPDEST PUSH0 PUSH2 0x1AB1 PUSH2 0x1AAC PUSH2 0x1AA7 DUP5 PUSH2 0x107A JUMP JUMPDEST PUSH2 0x15DF JUMP JUMPDEST PUSH2 0x107A JUMP JUMPDEST SWAP1 POP SWAP2 SWAP1 POP JUMP JUMPDEST PUSH0 DUP2 SWAP1 POP SWAP2 SWAP1 POP JUMP JUMPDEST PUSH2 0x1ACA DUP4 PUSH2 0x1A97 JUMP JUMPDEST PUSH2 0x1ADE PUSH2 0x1AD6 DUP3 PUSH2 0x1AB8 JUMP JUMPDEST DUP5 DUP5 SLOAD PUSH2 0x1A46 JUMP JUMPDEST DUP3 SSTORE POP POP POP POP JUMP JUMPDEST PUSH0 PUSH0 SWAP1 POP SWAP1 JUMP JUMPDEST PUSH2 0x1AF5 PUSH2 0x1AE6 JUMP JUMPDEST PUSH2 0x1B00 DUP2 DUP5 DUP5 PUSH2 0x1AC1 JUMP JUMPDEST POP POP POP JUMP JUMPDEST JUMPDEST DUP2 DUP2 LT ISZERO PUSH2 0x1B23 JUMPI PUSH2 0x1B18 PUSH0 DUP3 PUSH2 0x1AED JUMP JUMPDEST PUSH1 0x1 DUP2 ADD SWAP1 POP PUSH2 0x1B06 JUMP JUMPDEST POP POP JUMP JUMPDEST PUSH1 0x1F DUP3 GT ISZERO PUSH2 0x1B68 JUMPI PUSH2 0x1B39 DUP2 PUSH2 0x1A19 JUMP JUMPDEST PUSH2 0x1B42 DUP5 PUSH2 0x1A2B JUMP JUMPDEST DUP2 ADD PUSH1 0x20 DUP6 LT ISZERO PUSH2 0x1B51 JUMPI DUP2 SWAP1 POP JUMPDEST PUSH2 0x1B65 PUSH2 0x1B5D DUP6 PUSH2 0x1A2B JUMP JUMPDEST DUP4 ADD DUP3 PUSH2 0x1B05 JUMP JUMPDEST POP POP JUMPDEST POP POP POP JUMP JUMPDEST PUSH0 DUP3 DUP3 SHR SWAP1 POP SWAP3 SWAP2 POP POP JUMP JUMPDEST PUSH0 PUSH2 0x1B88 PUSH0 NOT DUP5 PUSH1 0x8 MUL PUSH2 0x1B6D JUMP JUMPDEST NOT DUP1 DUP4 AND SWAP2 POP POP SWAP3 SWAP2 POP POP JUMP JUMPDEST PUSH0 PUSH2 0x1BA0 DUP4 DUP4 PUSH2 0x1B79 JUMP JUMPDEST SWAP2 POP DUP3 PUSH1 0x2 MUL DUP3 OR SWAP1 POP SWAP3 SWAP2 POP POP JUMP JUMPDEST PUSH2 0x1BB9 DUP3 PUSH2 0x1109 JUMP JUMPDEST PUSH8 0xFFFFFFFFFFFFFFFF DUP2 GT ISZERO PUSH2 0x1BD2 JUMPI PUSH2 0x1BD1 PUSH2 0x1442 JUMP JUMPDEST JUMPDEST PUSH2 0x1BDC DUP3 SLOAD PUSH2 0x173E JUMP JUMPDEST PUSH2 0x1BE7 DUP3 DUP3 DUP6 PUSH2 0x1B27 JUMP JUMPDEST PUSH0 PUSH1 0x20 SWAP1 POP PUSH1 0x1F DUP4 GT PUSH1 0x1 DUP2 EQ PUSH2 0x1C18 JUMPI PUSH0 DUP5 ISZERO PUSH2 0x1C06 JUMPI DUP3 DUP8 ADD MLOAD SWAP1 POP JUMPDEST PUSH2 0x1C10 DUP6 DUP3 PUSH2 0x1B95 JUMP JUMPDEST DUP7 SSTORE POP PUSH2 0x1C77 JUMP JUMPDEST PUSH1 0x1F NOT DUP5 AND PUSH2 0x1C26 DUP7 PUSH2 0x1A19 JUMP JUMPDEST PUSH0 JUMPDEST DUP3 DUP2 LT ISZERO PUSH2 0x1C4D JUMPI DUP5 DUP10 ADD MLOAD DUP3 SSTORE PUSH1 0x1 DUP3 ADD SWAP2 POP PUSH1 0x20 DUP6 ADD SWAP5 POP PUSH1 0x20 DUP2 ADD SWAP1 POP PUSH2 0x1C28 JUMP JUMPDEST DUP7 DUP4 LT ISZERO PUSH2 0x1C6A JUMPI DUP5 DUP10 ADD MLOAD PUSH2 0x1C66 PUSH1 0x1F DUP10 AND DUP3 PUSH2 0x1B79 JUMP JUMPDEST DUP4 SSTORE POP JUMPDEST PUSH1 0x1 PUSH1 0x2 DUP9 MUL ADD DUP9 SSTORE POP POP POP JUMPDEST POP POP POP POP POP POP JUMP JUMPDEST PUSH0 PUSH1 0x80 DUP3 ADD SWAP1 POP PUSH2 0x1C92 PUSH0 DUP4 ADD DUP8 PUSH2 0x10EB JUMP JUMPDEST PUSH2 0x1C9F PUSH1 0x20 DUP4 ADD DUP7 PUSH2 0x10FA JUMP JUMPDEST DUP2 DUP2 SUB PUSH1 0x40 DUP4 ADD MSTORE PUSH2 0x1CB1 DUP2 DUP6 PUSH2 0x1141 JUMP JUMPDEST SWAP1 POP PUSH2 0x1CC0 PUSH1 0x60 DUP4 ADD DUP5 PUSH2 0x10EB JUMP JUMPDEST SWAP6 SWAP5 POP POP POP POP POP JUMP JUMPDEST PUSH0 PUSH2 0x1CD3 DUP3 PUSH2 0x107A JUMP JUMPDEST SWAP2 POP PUSH2 0x1CDE DUP4 PUSH2 0x107A JUMP JUMPDEST SWAP3 POP DUP3 DUP3 ADD SWAP1 POP DUP1 DUP3 GT ISZERO PUSH2 0x1CF6 JUMPI PUSH2 0x1CF5 PUSH2 0x186B JUMP JUMPDEST JUMPDEST SWAP3 SWAP2 POP POP JUMP INVALID LOG2 PUSH5 0x6970667358 0x22 SLT KECCAK256 KECCAK256 MCOPY 0xA6 BYTE 0xB6 TSTORE MOD RJUMP 0xD9F4 DIV CALLER 0xEF SLOAD 0xC8 CHAINID LOG4 MSIZE PUSH1 0x4E STATICCALL 0x25 ISZERO INVALID CODECOPY REVERT SELFBALANCE 0x2D 0xC5 SSTORE 0xB3 0xB8 PUSH5 0x736F6C6343 STOP ADDMOD 0x1E STOP CALLER "
				},
				"gasEstimates": {
					"creation": {
						"codeDepositCost": "1494800",
						"executionCost": "infinite",
						"totalCost": "infinite"
					},
					"external": {
						"MAX_TWEET_LENGTH()": "2627",
						"changeTweetLength(uint16)": "infinite",
						"createTweet(string)": "infinite",
						"getAllTweets(address)": "infinite",
						"getTotalLikes(address)": "infinite",
						"getTweet(uint256)": "infinite",
						"likeTweet(address,uint256)": "infinite",
						"owner()": "2536",
						"profileContract()": "infinite",
						"renounceOwnership()": "infinite",
						"transferOwnership(address)": "infinite",
						"tweets(address,uint256)": "infinite",
						"unlikeTweet(address,uint256)": "infinite"
					}
				},
				"methodIdentifiers": {
					"MAX_TWEET_LENGTH()": "6eb10797",
					"changeTweetLength(uint16)": "58bfa4ab",
					"createTweet(string)": "7c9cd2bc",
					"getAllTweets(address)": "12e7ee1c",
					"getTotalLikes(address)": "820785cc",
					"getTweet(uint256)": "c3ad5ecb",
					"likeTweet(address,uint256)": "63378216",
					"owner()": "8da5cb5b",
					"profileContract()": "a3974b21",
					"renounceOwnership()": "715018a6",
					"transferOwnership(address)": "f2fde38b",
					"tweets(address,uint256)": "05a1b4a9",
					"unlikeTweet(address,uint256)": "3d9b569f"
				}
			},
			"storageLayout": {
				"storage": [
					{
						"astId": 8,
						"contract": "contracts/Twitter.sol:Twitter",
						"label": "_owner",
						"offset": 0,
						"slot": "0",
						"type": "t_address"
					},
					{
						"astId": 201,
						"contract": "contracts/Twitter.sol:Twitter",
						"label": "MAX_TWEET_LENGTH",
						"offset": 20,
						"slot": "0",
						"type": "t_uint16"
					},
					{
						"astId": 218,
						"contract": "contracts/Twitter.sol:Twitter",
						"label": "tweets",
						"offset": 0,
						"slot": "1",
						"type": "t_mapping(t_address,t_array(t_struct(Tweet)212_storage)dyn_storage)"
					},
					{
						"astId": 221,
						"contract": "contracts/Twitter.sol:Twitter",
						"label": "profileContract",
						"offset": 0,
						"slot": "2",
						"type": "t_contract(IProfile)194"
					}
				],
				"types": {
					"t_address": {
						"encoding": "inplace",
						"label": "address",
						"numberOfBytes": "20"
					},
					"t_array(t_struct(Tweet)212_storage)dyn_storage": {
						"base": "t_struct(Tweet)212_storage",
						"encoding": "dynamic_array",
						"label": "struct Twitter.Tweet[]",
						"numberOfBytes": "32"
					},
					"t_contract(IProfile)194": {
						"encoding": "inplace",
						"label": "contract IProfile",
						"numberOfBytes": "20"
					},
					"t_mapping(t_address,t_array(t_struct(Tweet)212_storage)dyn_storage)": {
						"encoding": "mapping",
						"key": "t_address",
						"label": "mapping(address => struct Twitter.Tweet[])",
						"numberOfBytes": "32",
						"value": "t_array(t_struct(Tweet)212_storage)dyn_storage"
					},
					"t_string_storage": {
						"encoding": "bytes",
						"label": "string",
						"numberOfBytes": "32"
					},
					"t_struct(Tweet)212_storage": {
						"encoding": "inplace",
						"label": "struct Twitter.Tweet",
						"members": [
							{
								"astId": 203,
								"contract": "contracts/Twitter.sol:Twitter",
								"label": "id",
								"offset": 0,
								"slot": "0",
								"type": "t_uint256"
							},
							{
								"astId": 205,
								"contract": "contracts/Twitter.sol:Twitter",
								"label": "author",
								"offset": 0,
								"slot": "1",
								"type": "t_address"
							},
							{
								"astId": 207,
								"contract": "contracts/Twitter.sol:Twitter",
								"label": "content",
								"offset": 0,
								"slot": "2",
								"type": "t_string_storage"
							},
							{
								"astId": 209,
								"contract": "contracts/Twitter.sol:Twitter",
								"label": "timestamp",
								"offset": 0,
								"slot": "3",
								"type": "t_uint256"
							},
							{
								"astId": 211,
								"contract": "contracts/Twitter.sol:Twitter",
								"label": "likes",
								"offset": 0,
								"slot": "4",
								"type": "t_uint256"
							}
						],
						"numberOfBytes": "160"
					},
					"t_uint16": {
						"encoding": "inplace",
						"label": "uint16",
						"numberOfBytes": "2"
					},
					"t_uint256": {
						"encoding": "inplace",
						"label": "uint256",
						"numberOfBytes": "32"
					}
				}
			},
			"userdoc": {
				"kind": "user",
				"methods": {},
				"version": 1
			}
		}
	}
}